:10000000ACC50000CBC50000C9C50000C7C50000D5
:10001000C5C50000C3C50000C1C50000BFC50000C4
:10002000BDC50000BBC50000B9C500000C94C7B831
:10003000B5C500000C94A7BF0C9453B90C9480B9BB
:100040000C94ADB90C94DAB90C9407BA0C9434BA88
:100050000C9461BA0C948EBA0C94BBBA0C94E8BAA6
:100060009DC500009BC5000099C5000097C5000014
:1000700095C5000093C5000091C500008FC5000024
:100080008DC500008BC5000089C5000087C5000034
:1000900085C5000083C5000081C500007FC5000044
:1000A0007DC500007BC5000079C5000077C5000054
:1000B00075C5000073C500000C946BC00C94D7BCD0
:1000C0000C9404BD0C9431BD0C945EBD0C948BBD9E
:1000D0000C94B8BD0C94E5BD0C9412BE0C943FBEBC
:1000E0000C946CBE5BC5000059C5000057C50000EC
:1000F00055C5000053C5000051C500004FC50000A4
:100100000C94749F4BC5000049C5000047C5000012
:1001100045C5000043C5000041C500003FC50000C3
:100120003DC500003BC5000039C5000037C50000D3
:1001300035C500000C9415BB0C9442BB0C946FBBEE
:100140000C949CBB0C94C9BB0C94F6BB0C9423BCC4
:100150000C9450BC0C947DBC0C94AABC1FC5000030
:100160001DC500001BC5000019C5000017C5000013
:1001700015C5000013C5000011C500000FC5000023
:100180000DC500000BC5000009C5000007C5000033
:1001900005C5000003C5000001C50000FFC4000044
:1001A000FDC40000FBC40000F9C40000F7C4000057
:1001B0000C9499BE0C94C6BE0C94F3BE0C9420BF54
:1001C0000C944DBF0C947ABFE9C40000E7C4000052
:1001D000E5C40000E3C40000E1C40000DFC4000087
:1001E000DDC40000DBC40000D9C40000D7C4000097
:1001F000D5C400000C941ECB0C94BBCC5508F6075C
:10020000F607F6073608F607F607F607F6076E084C
:10021000F607F607F607F607D9089208F607F60775
:10022000FE07F607F607F607F607F607F607F607DE
:10023000F607F607F607F607F607F6075508F60776
:10024000F607F6073608F607F607F607F6076E080C
:10025000F607F607F607F607D9089208F607F60735
:10026000FE070E0A240A7C097C097C097C097C09AA
:100270007C097C097C097C097C097C097C097C0956
:100280007C097C097C097C097C093B0A7C09EF0A12
:100290006C097C09E60A7C097C097C097C094B0A0B
:1002A0007C09560A7C09B70A7C097C09DD0A7C09AD
:1002B00084097C097C097C097C097C097C097C090E
:1002C0007C097C097C097C097C093B0A7C09EF0AD2
:1002D0006C097C09E60A7C097C097C097C094B0ACB
:1002E0007C09560A7C09B70A7C097C09DD0A7C096D
:1002F0008409BC0C510CC60C510C5E0C510C510CF9
:10030000510C510C510C510C510C920C510C510CC4
:10031000510CA50C510C510C510C510C510C510CA1
:10032000510C510C510C510C510C510C510C510CE5
:10033000510CBC0C510CC60C510C5E0C510C510CE8
:10034000510C510C510C510C510C920C510C510C84
:10035000510CA50C8D0D8A0D510C510C510C510CEA
:10036000510C510C510C510C510C510C510C510CA5
:10037000510C510C510C510C510C510C510C510C95
:10038000510C510C510C510C510C510C510C510C85
:10039000510C510C510C510C580D4F0D510C510C6E
:1003A000510CF70C880B510C510C510C510C510C89
:1003B000510C510C510C510C510C510C510C510C55
:1003C000510C510C510C510C510C510C510C510C45
:1003D000510C510C510C510C580D4F0D510C510C2E
:1003E000510CF70C880BDB0E180E180E180E180E99
:1003F000180E180E180E180E180E180E180E180ECD
:10040000180E180E180E180E180E180E180E180EBC
:10041000180E180E180E180E180E180E180ED10EF3
:10042000180E180E180E180E180E850E7E0E180EC9
:10043000180E180E280E180E180E180E180E180E7C
:10044000180E180E180E180E180E180E180E180E7C
:10045000180E180E180E180E180E180E180ED10EB3
:10046000180E180E180E180E180E850E7E0E180E89
:10047000180E180E280E220F0D0F0D0F0D0F0D0F59
:100480000D0F0D0F0D0F0D0F0D0F0D0F0D0F0D0F8C
:100490000D0F0D0F0D0F0D0F0D0F0D0F0D0F0D0F7C
:1004A000380F0D0F0D0F420F5A0F0D0F0D0F0D0FBF
:1004B000650F0D0F0D0F7A0F0D0F7D0F800F900F31
:1004C0000D0F150F0D0F0D0F0D0F0D0F0D0F0D0F44
:1004D0000D0F0D0F0D0F0D0F0D0F0D0F0D0F0D0F3C
:1004E000380F0D0F0D0F420F5A0F0D0F0D0F0D0F7F
:1004F000650F0D0F0D0F7A0F0D0F7D0F800F900FF1
:100500000D0F150FCD10DB106D106D10E7106D1075
:100510006C106D106D106D106D106D106D106D10F4
:100520006D106D106D106D106D106D1075106D10DB
:100530006D106D106D106D106D106D106D106D10D3
:100540006D106D10CD10DB106D106D10E7106D107B
:100550006C106D106D106D106D106D106D106D10B4
:100560006D106D106D106D106D106D107510DF1128
:1005700049114911DC114911AD1199119711491116
:100580009511931149114911491149114911491105
:10059000691149114911661149114911491149114E
:1005A000491149114911491149114911491149117B
:1005B00049114911DC114911AD11991197114911D6
:1005C00095119311491149114911491149114911C5
:1005D000691149114911661127134D114D114D1122
:1005E0004D114D114D114D114D11D6124D114D1191
:1005F0004D11BD12E1114D114D114D114D114D1106
:100600004D114D114D114D114D114D114D114D11FA
:100610004D114D114D114D1127134D114D114D110E
:100620004D114D114D114D114D11D6124D114D1150
:100630004D11BD12E111591760175C1759175C175E
:10064000F616F6162C172C172C172C172C172C1700
:10065000F6162C172C172C17F616F6162C172C1727
:100660002C172C172125E5244D25D624D624D62455
:10067000D624D624D624D624D624D624D624D624AA
:10068000D624D624D624D624422537252C25D62474
:10069000D624D624D624D624D624D624D624D6248A
:1006A000D624D624A5259A258F258425D624D6247C
:1006B000D624D624D624D624D624D624D624D6246A
:1006C000D624D6247925D624D624D624D624D624B6
:1006D000D624D624D624D624D624D624D624D6244A
:1006E000D624D6246E25632558256946F8455D46EF
:1006F000F8455746F84551464B46F8454546F845B6
:10070000F845F845F845F845F845F845F845F84501
:10071000F845F845F845F845F845F845F845F845F1
:10072000F845F845F845F845F845F845F845F845E1
:10073000F845F845F845F845F845F845F845F845D1
:10074000F845F845F845F845F845F845F845F845C1
:10075000F845F845F845F845F845F845F845F845B1
:10076000F845F845F845F8456346F8456946F845C3
:100770005D46F8453F46574651463946F8454B4693
:10078000F8454546F845F845F845F845F845F84533
:10079000F845F845F845F845F845F845F845F84571
:1007A000F845F845F845F845F845F845F845F84561
:1007B000F845F845F845F845F845F845F845F84551
:1007C000F845F845F845F845F845F845F845F84541
:1007D000F845F845F845F845F845F845F845F84531
:1007E000F845F845F845F845F8456346F845694643
:1007F000F8455D46F8453F465746F8455146F845A9
:100800003946F8454B464546D156C456AF567A56FA
:1008100064564E56DE5663680E670E670E670E67A7
:100820000E670E670E670E670E6734681668F86706
:10083000DA67BC670E670E67A767A767A767A76732
:100840000E670E670E670E6789676B674D672967CE
:10085000A76C996C8B6C7D6C6F6C616C536C456C88
:10086000296C376C7F6AB46C1C6D2E6E6F6EBF6E18
:10087000F96EAE6FAE6F16706270C0704171A1718B
:10088000F6714B72AB72056EC672056E056E056E23
:100890000A73056E66739A73B073166E747A5F7A14
:1008A0007E7B6F7B4A7B3B7B147B057BF67AD17A20
:1008B000747A747A747A747A747A5F7A8B7A747AC6
:1008C000747A747A747A5F7A5F7A5F7A5F7A747A0C
:1008D000747A747A747A457DB57D3F7D437D417D20
:1008E000BB7D3F7D437D417DBB7D077C077CA17C3B
:1008F0009A7CA97CB17CA17C9A7CA97CB17C027D8C
:10090000197DB87C317D227D0B7DB87C317D227DC7
:100910000B7DBD7DBD7DFB7DBD7DEE7BF87DF87DD6
:10092000FF7DF87D5A844884A88354844E8439849A
:100930003284408460842C88C187C187C187C18785
:10094000C187C187C187C187C1871F88C187C18708
:10095000C187C187C187C187C187C187C187128805
:10096000C187C187C187C187C187C187C187C18747
:10097000C1870588C187C187C187C187C187C187F2
:10098000C187C187C1870288C187C187C187C187E5
:10099000C187C187C187C187C187C187C187C18717
:1009A000C187C187C187C187C187C187C187F287D6
:1009B000C187C187C187C187C187C187C187C187F7
:1009C000C187E587C187C187C187C187C187C187C3
:1009D000C187C187C187E287C187D587C187C187A2
:1009E000C187C187C187C187C187FF87FFA3FFA3D5
:1009F000FFA3FFA3C4A3FFA399A493A3C4A339A4F3
:100A000039A426A426A426A499A446A5DEA426A437
:100A100027A555A455A455A446A526A426A426A4D6
:100A200026A426A432A50EA532A532A532A532A54C
:100A300032A532A532A532A532A532A532A532A5FE
:100A400032A532A532A532A532A532A532A532A5EE
:100A500032A532A532A532A532A532A532A532A5DE
:100A600032A532A532A532A532A532A532A532A5CE
:100A700032A532A532A532A532A532A532A532A5BE
:100A800032A532A532A532A532A532A532A532A5AE
:100A900032A532A532A532A532A532A532A532A59E
:100AA00032A532A532A532A532A532A532A532A58E
:100AB00032A532A532A532A532A532A532A532A57E
:100AC00032A532A532A532A532A532A532A532A56E
:100AD00032A532A532A532A532A532A532A532A55E
:100AE00032A532A532A532A532A532A537A532A549
:100AF00032A537A532A537A532A537A5C6A5CCA501
:100B0000E5A6C2A5EAA5D8A5D2A5EAA5EAA5DEA5CF
:100B1000E4A544A655A65BA67FA67FA673A667A6F6
:100B200061A67FA67FA66DA679A6446967697461F0
:100B30006C20414354495649545920444554454337
:100B4000544544004469676974616C2041435449C9
:100B500056495459204C4F53540011241FBECFEF17
:100B6000CDBFDFE5DEBF00E00CBF15E3A0E0B0E2E3
:100B7000E8EFF5EA01E00BBF02C007900D92A43147
:100B8000B107D9F72BE3A4E1B5E301C01D92A63567
:100B9000B207E1F70E9424140C94FAD231CA1092E1
:100BA000800688E1809395068FEF8150F1F7809160
:100BB000880685FD11C081E08093A1060E9417166A
:100BC0000E9433B2809169068E7F80936906EEEFB2
:100BD000F0E082E08CBF19941092950608950E946F
:100BE00033B2E0E6F6E081858E7F8187EEEFF0E0BC
:100BF00082E08CBF199408950F931F93CF938C01BB
:100C00000E9492138823E9F001151105D1F0F80133
:100C100080818823B1F0C4E602C0C15091F00E94E7
:100C200098138823D1F3F80101900020E9F7319758
:100C3000BF01601B710BC801CF911F910F910C94E4
:100C40003CB0CF911F910F9108950F931F93CF93B5
:100C50008C010E9492138823D1F001151105B9F07F
:100C6000F8018081882399F0C4E602C0C15079F070
:100C70000E9498138823D1F3F80101900020E9F72E
:100C80003197BF01601B710BC8010E943CB00E94EC
:100C900092138823A9F0C4E602C0C15089F00E94D3
:100CA00098138823D1F3EBEAF2E201900020E9F7F0
:100CB0003197BF016B5A72428BEA92E20E943CB0BC
:100CC0006DE972E2C8010E9404D0892B21F0CF9116
:100CD0001F910F9108950E9492138823C1F3C4E6D7
:100CE00002C0C150A1F30E9498138823D1F3EBEA0C
:100CF000F2E201900020E9F73197BF016B5A72428E
:100D00008BEA92E2CF911F910F910C943CB0CF935C
:100D10000E9492138823B1F0C4E602C0C15091F042
:100D20000E9498138823D1F3EBEAF2E201900020AD
:100D3000E9F73197BF016B5A72428BEA92E2CF9189
:100D40000C943CB0CF9108950F931F93CF938C01D7
:100D500090910020692321F4CF911F910F91089564
:100D60000E9492138823D1F001151105B9F0F80102
:100D70008081882399F0C4E602C0C15079F00E94B6
:100D800098138823D1F3F80101900020E9F73197F7
:100D9000BF01601B710BC8010E943CB00E949213FE
:100DA0008823A9F0C4E602C0C15089F00E949813BC
:100DB0008823D1F3EBEAF2E201900020E9F73197C2
:100DC000BF016B5A72428BEA92E20E943CB06DE91D
:100DD00072E2C8010E9404D0892B09F0BDCF0E94A5
:100DE0009213882309F4B8CFC4E603C0C15009F4B4
:100DF000B3CF0E9498138823C9F3EBEAF2E2019083
:100E00000020E9F73197BF016B5A72428BEA92E2F8
:100E1000CF911F910F910C943CB0809300200895C6
:100E200081E08093260680E090E00196803A2FE0F2
:100E30009207D9F781E0809325060895CF938130FA
:100E400021F08EEA92E2CF9100CFC42F80EA9BE09E
:100E50000E9449C46C2F80EA9BE0CF910C9449C456
:100E6000813029F08EEA92E2F0DE80E00895606839
:100E700080EA9BE00E9449C480EA9BE00C9451C444
:100E800081E080934D35109237350895CF9390913E
:100E90004D359230D1F0933081F0913011F0CF91F7
:100EA0000895833209F448C08A3011F08D30B9F7C3
:100EB0002EDF87EB92E2CF919FCE87EB92E29CDE12
:100EC00081E080934D35CF9108958A3081F08D3047
:100ED00071F090911535943110F5E92FF0E0E85C50
:100EE000FA4C80839F5F90931535CF910895C09100
:100EF00015354C2F50E0FA01E85CFA4C10824F5F38
:100F00005F4F68E375E38DEF9AE30E94F4CF81E0D1
:100F100080933735C093143580934D35C0CFF7DEBD
:100F200089EB92E292DE87EB92E266DE81E08093CB
:100F30004D3510921535B3CF82E080934D35109228
:100F40001535ADCF0F931F93CF93DF93CDB7DEB79A
:100F5000E497CDBFDEBFE091FE3A8E2FEE0F990BE6
:100F6000AA0BBB0BFC01E454F109E333F10508F0D3
:100F70003DC08827E250FF4F8F4F0C947FCF8534C0
:100F8000A9F52091003BEEEAF6E2DF014E2F05C005
:100F900096E2A83CB90709F478C19A2F9E1B8D915F
:100FA0002813F6CF903108F09A509295907F3091A7
:100FB000013B05C086E2E83CF80709F464C12E2F26
:100FC000241B81913813F6CF203108F02A50920F5C
:100FD00011E009F410E0812F0E94718F882309F439
:100FE00047C111115BC188ED92E22FDEE496CDBFBF
:100FF000DEBFDF91CF911F910F9108958091FF3A4D
:10100000863511F0863791F52091003BEEEAF6E245
:10101000DF014E2F05C096E2A83CB90709F431C1A3
:101020009A2F9E1B8D912813F6CF903108F09A507D
:101030009295907F3091013B05C086E2E83CF8072D
:1010400009F41DC12E2F241B81913813F6CF2031B6
:1010500008F02A50920F11E009F410E0812F0E944D
:101060004990111109C18FEE92E2EFDD0E942292A8
:101070001F928F9384E793E29F938F9389EE9AE375
:101080009F938F930E943DD089EE9AE3DEDD0F900F
:101090000F900F900F900F900F90E496CDBFDEBF92
:1010A000DF91CF911F910F9108958091FF3A833581
:1010B00009F4D6C00CF492C0853609F495C0833784
:1010C00009F4CEC0833609F091CF0E94618F882346
:1010D00009F4CEC089E293E2B8DD88CF8091FF3A6F
:1010E000813541F00CF44BCF853609F44ACF813776
:1010F00009F07CCF0E9420901F928F9386E393E2A9
:101100009F938F938E010F5F1F4F1F930F930E942A
:101110003DD0C8019ADD0F900F900F900F900F9067
:101120000F9064CF8091FF3A813519F0813709F033
:101130005DCFCE0189960E9423908CA58F938BA5BD
:101140008F938AA58F9389A58F9387E493E29F93CA
:101150008F938E010F5F1F4F1F930F930E943DD0FF
:10116000C80173DD88A98F938FA58F938EA58F9368
:101170008DA58F9383E593E29F938F931F930F9396
:101180000E943DD0C80161DD8CA98F938BA98F93FC
:101190008AA98F9389A98F9383E693E29F938F9374
:1011A0001F930F930E943DD0C8014FDDCDBFDEBF1E
:1011B0001DCF8091FF3A893441F00CF446C0883647
:1011C00009F446C0893609F011CF0E944C9088235B
:1011D00009F442C080E893E238DD08CF833409F493
:1011E00074CF853409F002CF2091003BEEEAF6E29D
:1011F00048EC56E2DF013E2F05C086E2A83CB80766
:1012000009F448C08A2F8E1B9D912913F6CF803197
:1012100008F08A508295807F2091013B03C04E17D1
:101220005F07D1F11E2F131B91912913F8CF1031B5
:1012300008F01A50180F812F0E942C8E8823C1F0BD
:101240001F921F9389EF92E25BCF883409F0CECED4
:101250000E94FB9181111BC08EE893E2F6DCC6CEA2
:101260000E94C28E882321F08EE193E2EEDCBECE96
:1012700086E193E2EADCBACE86EE92E2F6CE20E098
:10128000E9CE90E0D7CE20E0A2CE90E090CE8CEADE
:1012900094E2ABCE80E0C0CF10E0CCCF8BEC92E2FA
:1012A000A4CE0F931F93CF93DF93CDB7DEB72C97C8
:1012B000CDBFDEBFE091FE3A8E2FEE0F990BAA0B49
:1012C000BB0BFC01F097E834F105B0F48827EF5C24
:1012D000FE4F8F4F0C947FCF8091FF3A813309F4FA
:1012E000EBC1803309F4DEC182EE93E2AEDC6091A3
:1012F000202180E10E948F152C96CDBFDEBFDF91AB
:10130000CF911F910F91089585E094E29EDC30917A
:10131000023BAEEAB6E2FD018A2F05C096E2E83C48
:10132000F90709F479C12E2F2A1B91913913F6CFB1
:10133000203108F02A50422F4295407F3091033BE4
:10134000EEEAF6E205C096E2E83CF90709F466C168
:101350002E2F281B91913913F6CF203108F4A0C10C
:1013600056EF520F3091043BEEEAF6E205C096E2EA
:10137000E83CF90709F454C12E2F281B9191391329
:10138000F6CF203108F02A50322F3295307F60910D
:10139000053BEEEAF6E205C096E2E83CF90709F4FF
:1013A0002DC12E2F281B91916913F6CF203108F003
:1013B0002A509091FF3A913309F062C07091003B3E
:1013C000EEEAF6E205C096E2E83CF90709F47BC1D3
:1013D0006E2F681B91917913F6CF603108F06A5037
:1013E0006295607FE091013B05C096E2A83CB90799
:1013F00009F46BC17A2F781B9D91E913F6CF7031F8
:1014000008F07A50450F50E0542F4427230F420F25
:10141000511D670F80E00E940C9D6ECF4091FF3AF6
:101420002EEA36E2F90105C086E2E83CF80709F445
:10143000F1C08E2F821B91914913F6CF803108F0B5
:101440008A500E944B8758CF9091FF3A2EEA36E29D
:10145000F90105C086E2E83CF80709F4CBC04E2F3D
:10146000421B81919813F6CF413009F0C3C080E050
:101470000E944D8741CF8091FF3A813309F405C125
:101480008BE094E2E2DB2C96CDBFDEBFDF91CF9103
:101490001F910F91089582EB93E2D7DB80E00E94C9
:1014A000FB860E9471880E94159226CF5091023BC4
:1014B000EEEAF6E228EC36E2DF019E2F05C086E276
:1014C000A83CB80709F49CC04A2F4E1B8D915813B5
:1014D000F6CF403108F04A504295407F6091033B7F
:1014E000AEEAB6E204C02A173B0709F48BC05A2FB4
:1014F000591B8D916813F7CF503108F05A50450FA2
:101500005091003BAEEAB6E204C02A173B0709F44B
:101510007BC06A2F691B8D915813F7CF603108F09B
:101520006A506295607F7091013BAEEAB6E204C0FA
:101530002A173B0709F46AC05A2F591B8D9178135B
:10154000F7CF503108F05A50650F7091FF3A04C040
:101550002E173F0709F45CC08E2F891B519175131C
:10156000F7CF803108F08A500E947387C5CE8091F2
:10157000FF3A813309F084CF80911435843008F02C
:1015800051C08CE194E261DB80E00E948A9D9F93D0
:101590008F9384E294E29F938F938E010F5F1F4F8E
:1015A0001F930F930E943DD00F900F900F900F90BC
:1015B0000F900F90C80149DB9FCE8091FF3A813395
:1015C00009F05ECF80E00E94FE9D96CE8091FF3AAA
:1015D000813309F45EC083EA93E237DB8DCE80EF7E
:1015E00093E233DB80E00E9426870E9471880E948C
:1015F000159282CE8CEF93E228DB7ECE20E0D9CE0E
:1016000040E06CCF50E07BCF60E08DCF50E09CCFCE
:1016100080E0AACF80E015CF40E090CE50E0A2CE8F
:1016200030E0B5CE4AEF50E064ED80E00E940C9DC2
:101630002091003BEEEAF6E2DF013E2F04C086E295
:10164000A83CB807A9F19A2F9E1B8D912813F7CFBC
:10165000903108F09A509295907F2091013B04C000
:1016600086E2E83CF80731F16E2F631B8191281365
:10167000F7CF603108F06A50690F80E00E946692EF
:101680009F938F938AE294E286CF80E00E94199E16
:1016900033CE85E993E2D9DA80E00E94F9862CCE38
:1016A000522F60CE1092202182ED93E2CEDA1FCE2F
:1016B00090E0D3CF60E0E0CF81E0809320218DEBFC
:1016C00093E2C3DA14CE60E08DCE70E09BCECF9271
:1016D000DF92EF92FF920F931F93CF93DF93CDB7DB
:1016E000DEB72F97CDBFDEBFE091FE3A8E2FEE0F13
:1016F000990BAA0BBB0BFC01E254F109E133F10594
:1017000008F0CFC08827E758FE4F8F4F0C947FCF4B
:101710005091003BEEEAF6E228EC36E2DF018E2F34
:1017200005C096E2A83CB90709F454C24A2F4E1BE3
:101730009D915913F6CF403108F04A504295407FB1
:101740005091013BAEEAB6E204C02A173B0709F408
:1017500043C20A2F081B9D915913F7CF003108F09F
:101760000A50040F5091023BAEEAB6E204C02A17B9
:101770003B0709F433C24A2F481B9D915913F7CFF9
:10178000403108F04A504295407F6091033B04C0CD
:101790002E173F0709F424C25E2F581B919169133D
:1017A000F7CF503108F05A50450F8091012010E0DA
:1017B000142B6E018111F2C12FE0C20ED11C9601D3
:1017C00041E0B80180E090E00E9476246115710547
:1017D0008105910509F4CDC19F938F937F936F93FA
:1017E0008BE694E29F938F93CE0101967C019F93A9
:1017F0008F930E943DD0CDBFDEBFC701FDD940E031
:1018000050E04F5F5F4F403A9FE05907D1F780911A
:101810000120960141E0B8018111CBC180E090E048
:101820000E947624611571058105910509F478C13E
:101830009F938F937F936F938BE694E29F938F9305
:10184000FF92EF920E943DD0CDBFDEBFC701D4D939
:1018500040E050E04F5F5F4F403A9FE05907D1F7BB
:1018600080910120960141E0B80181117DC180E0A5
:1018700090E00E947624611571058105910509F4B7
:1018800061C19F938F937F936F938BE694E29F93B5
:101890008F93FF92EF920E943DD0CDBFDEBFC70174
:1018A000ABD935DA2F96CDBFDEBFDF91CF911F9137
:1018B0000F91FF90EF90DF90CF90089500E810E037
:1018C0008BE4C82E84E2D82E99EEE92E9AE3F92E05
:1018D0000EC08FEF92E527E0815090402040E1F765
:1018E00000C000000E5F1F4F003A1105D1F21F9398
:1018F0000F93DF92CF92FF92EF920E943DD089EE3C
:101900009AE3A3D960E0802F0E94571E0F900F909A
:101910000F900F900F900F908823D9F285E594E2F5
:1019200094D9D7CFE091FF3A8E2FEE0F990BAA0BE7
:10193000BB0BFC01F097E934F10508F0B2CF882722
:10194000E655FE4F8F4F0C947FCF1F861F921F923C
:1019500085E494E29F938F938E010F5F1F4F1F9337
:101960000F930E943DD0C80147D90F900F900F9060
:101970000F900F900F9095CF8091FF3A843519F01A
:10198000843709F08ECF0E94C08D8BCF2091FF3A13
:10199000EEEAF6E2DF014E2F04C086E2A83CB8076B
:1019A000F1F09A2F9E1B8D912813F7CF9031E8F418
:1019B0009295907F3091003B04C026E2E83CF2070C
:1019C00081F02E2F241B81913813F7CF203158F44A
:1019D000920F9093163583E394E237D962CF90E06B
:1019E000E9CF20E0F5CF2A50F3CF9A50E1CF3091E4
:1019F000003BEEEAF6E268EC76E2DF018E2F05C0EE
:101A000096E2A83CB90709F4DBC02A2F2E1B9D9152
:101A10003913F6CF203108F02A502295207F4091CB
:101A2000013BAEEAB6E204C06A177B0709F4CAC0FC
:101A30003A2F381B9D914913F7CF303108F4E1C09C
:101A400066EF630F4091023BAEEAB6E205C096E254
:101A5000A83CB90709F4B2C03A2F381B9D9149132D
:101A6000F6CF303108F03A503295307F5091033B39
:101A700005C096E2E83CF90709F4A6C04E2F481BC2
:101A800091915913F6CF403108F04A5080910120CE
:101A9000882309F4AEC08DE594E2AED802CF81E090
:101AA00090913B35903309F080E080930120F9CE8E
:101AB0002091003BEEEAF6E268EC76E2DF014E2F81
:101AC00005C086E2A83CB80709F482C09A2F9E1B85
:101AD0008D912813F6CF903108F09A509295907F0F
:101AE0003091013B04C06E177F0709F46FC02E2FA1
:101AF000241B81913813F7CF203108F02A508091B0
:101B00000120882309F46EC08F851F928F938CE784
:101B100093E220CF0E94271BC4CE0E94131BC1CE8C
:101B20008F851F928F938CE793E29F938F93FF9201
:101B3000EF920E943DD00F900F900F900F900F905A
:101B40000F9084CE8F851F928F938CE793E29F93A3
:101B50008F93FF92EF920E943DD00F900F900F90C5
:101B60000F900F900F909BCE81E090E00E94762422
:101B700082CE8F851F928F938CE793E29F938F93F2
:101B8000CE0101967C019F938F930E943DD00F90D0
:101B90000F900F900F900F900F902FCE8FE0C80EE8
:101BA000D11C960141E0B80181E090E00E947624CA
:101BB0000DCE81E090E00E94762434CE30E056CF06
:101BC00020E02DCF60E03ECF40E060CF20E097CF17
:101BD00090E086CF40E0B4CD00E0C3CD40E0D5CD6D
:101BE00050E0E2CD622F690F88E40E94CD1C8F8700
:101BF0008CCF430F620F88E40E94891C811151CE63
:101C00004ACF632F1FCFCF93DF938091FE3A823369
:101C1000E9F0813381F4C1E0E091FF3A4E2FEE0FFD
:101C2000550B660B770BFA01F097E834F10540F09D
:101C3000DF91CF91089584E794E2DF91CF9105C8B9
:101C40008827ED50FE4F8F4F0C947FCFC2E0E4CF3A
:101C500085E094E20E9425062091003BEEEAF6E240
:101C6000DF019E2F05C086E2A83CB80709F4AEC08C
:101C70006A2F6E1B8D912813F6CF603108F0B8C023
:101C80006295607F3091013BAEEAB6E205C086E224
:101C9000A83CB80709F4A0C02A2F291B8D9138133E
:101CA000F6CF203108F09EC0620F2091023BAEEAD1
:101CB000B6E205C086E2A83CB80709F483C04A2F03
:101CC000491B8D912813F6CF403108F089C0429509
:101CD000407F3091033B05C086E2E83CF80709F4F9
:101CE00073C08E2F891B21913213F6CF803108F0FB
:101CF00075C0480F8C2FDF91CF91A0C883E994E283
:101D00000E942506DF91CF91C5C780E894E20E942A
:101D100025069091003BEEEAF6E248EC56E2DF0140
:101D20002E2F05C086E2A83CB80709F453C06A2FDD
:101D30006E1B8D919813F6CF603108F057C06295F5
:101D4000607F9091013B04C04E175F0709F440C0CB
:101D5000DE2FD21B81919813F7CFD03108F044C009
:101D6000D60F6D2F8C2F7CD81F928F931F92DF93ED
:101D700085E894E29F938F9389EE9AE39F938F93E4
:101D80000E943DD089EE9AE30E9425068DB79EB74A
:101D900008968DBF9EBF8DE894E2DF91CF910C94A1
:101DA00025068091A80682FD25C080EC94E2DF9193
:101DB000CF910C94250687EA94E20E942506DF91D4
:101DC000CF912EC840E085CF80E093CF60E05ACF1E
:101DD000D0E0C6CF60E0B5CF20E066CF8A5089CF93
:101DE0004A5075CF2A5060CFDA50BACF6A50A7CF89
:101DF0006A5046CF82EB94E2DF91CF910C94250696
:101E0000CF93E091FE3A8E2FEE0F990BAA0BBB0BEE
:101E1000FC01F097E734F10510F0CF910895882781
:101E2000E55CFD4F8F4F0C947FCF40E06FEF88E46F
:101E30000E94891CCAE060E088E40E94CD1CC15069
:101E4000D1F7EBCF4091FF3A2EEA36E2F90105C017
:101E500086E2E83CF80709F467C08E2F821B919157
:101E60004913F6CF803108F08A50CF910C947488D2
:101E70008BEE94E20E94250660E080E090E0CF9136
:101E80000C944D8685EF94E20E94250662E080E086
:101E900090E00E944D869FEF2DE389E49150204011
:101EA0008040E1F700C0000061E080E090E0CF9169
:101EB0000C944D868CEC94E20E9425060E946F885B
:101EC00087ED94E2CF910C94250680913A358033CA
:101ED00009F0A3CF84E095E20E9425069FE729EA56
:101EE00083E0915020408040E1F700C00000CF9196
:101EF0000C94531BCF910C946788CF910C947688E7
:101F000081E09091FF3A913309F080E08093442082
:101F1000882309F482CF81EE94E2CF910C942506B8
:101F200081E08093513579CF80E09FCFFF920F936E
:101F30001F93CF93DF93CDB7DEB76497CDBFDEBFDE
:101F400085E00E94B0B8982F9073E82FE770F0E01A
:101F5000EA55F94D108182E0903109F469C0903260
:101F600009F44CC00E94B0B88370813009F478C085
:101F7000823009F070C001E08DE295E20E94FC051C
:101F800084E295E20E94250685E595E20E94FC0523
:101F9000002309F44AC0013009F070C081E195E2E4
:101FA0000E94250681E895E20E94FC058DEC189FB1
:101FB000812D11248695869586959AE0899F101922
:101FC00011241F921F931F928F9383E995E29F9391
:101FD0008F938E010F5F1F4F1F930F930E943DD071
:101FE000C8010E942506CDBFDEBF6496CDBFDEBF0F
:101FF000DF91CF911F910F91FF9008950E94B0B88B
:102000008370813009F448C08230D9F102E08DE25A
:1020100095E20E94FC0581E195E20E94250685E596
:1020200095E20E94FC050111B6CF8CE195E2B8CF94
:102030000E94B0B88370813039F1823099F4F12C6C
:1020400001E08DE295E20E94FC0581E0F81619F3AB
:102050008CE195E297CF8DE995E20E942506C5CFE8
:1020600000E08ACF8DE295E20E94FC058CE195E2CA
:102070000E94250685E595E20E94FC0584E295E232
:102080008FCFFF24F394DCCF00E08DE295E20E9435
:10209000FC058CE195E276CFFF24F39400E0D1CFEC
:1020A0000F931F93CF93DF93CDB7DEB76497CDBF68
:1020B000DEBFE091FE3A8E2FEE0F990BAA0BBB0B01
:1020C000FC01E254F109E533F10538F48827EE57B5
:1020D000FD4F8F4F0C947FCF29DF6496CDBFDEBFBD
:1020E000DF91CF911F910F9108958FEB95E20E94A0
:1020F000FC0580911E208F9380911D208F931F924D
:102100001F921F9282E08F9388EC95E29F938F93AA
:102110008E010F5F1F4F1F930F930E943DD0C80188
:102120000E94FC0583ED95E20E94FC0586ED95E298
:102130000E94250682EE95E20E94FC058091253BD7
:102140008F938091243B8F938091233B8F93809139
:10215000223B8F938091273B8F938091263B8F93D7
:1021600080911D3B1F928F9380911C3B1F928F93F8
:102170008BEE95E29F938F931F930F930E943DD018
:10218000C8010E942506CDBFDEBF6496CDBFDEBF6D
:10219000DF91CF911F910F91089544E050E061E6E7
:1021A00076E28FEF9AE30E94E7CF892B09F095CF73
:1021B0000E94EF0592CFCE0101960E9425066496FB
:1021C000CDBFDEBFDF91CF911F910F91089588EFB2
:1021D00095E20E94250683E196E20E94FC0580912B
:1021E0001B2090911C200E9425068EE196E20E9401
:1021F000FC058091192090911A200E9425068BE2FF
:1022000096E20E94FC0583E496E20E94FC050E948F
:10221000870681E596E20E94FC0586ED95E20E9424
:10222000FC0584ED95E20E94FC0588E596E20E949B
:1022300025066496CDBFDEBFDF91CF911F910F9130
:102240000895AF92BF92CF92DF92EF92FF920F93D9
:102250001F93CF93DF93CDB7DEB76597CDBFDEBFBA
:1022600089E0ECE4F2E2DE011D9601900D928A9580
:10227000E1F780911435882381F0E091FD3A8E2FAB
:10228000EE0F990BAA0BBB0BFC01FF97E533F10591
:10229000B8F080E996E20E9425060E94870681E058
:1022A00080934D356596CDBFDEBFDF91CF911F91F5
:1022B0000F91FF90EF90DF90CF90BF90AF90089577
:1022C0008827E954FD4F8F4F0C947FCF0E9451090E
:1022D000E4CF2091FF3AEEEAF6E2DF014E2F05C08F
:1022E00086E2A83CB80709F4CAC18A2F8E1B9D91CB
:1022F0002913F6CF803108F08A508295807F309183
:10230000003B05C096E2E83CF90709F4B6C12E2F60
:10231000241B91913913F6CF203108F02A50820FF7
:10232000682F1AD3BACFD3D9B8CF6ADDB6CF6BDC5A
:10233000B4CFE091FE3A8E2FEE0F990BAA0BBB0B98
:10234000FC01E954F109EF32F10508F0A6CF882726
:10235000E451FD4F8F4F0C947FCF80E896E20E94AE
:1023600025062091FE3AEEEAF6E268EC76E2DF011D
:102370004E2F05C086E2A83CB80709F484C18A2F15
:102380008E1B9D912913F6CF803108F08A508295DB
:10239000807F3091FF3A04C06E177F0709F471C146
:1023A0002E2F241B91913913F7CF203108F02A509A
:1023B000820F0E940D0771CF0E94A2076ECF70DEC0
:1023C0006CCF2091FF3A8EEAE82E86E2F82EF701D4
:1023D0001E2D05C086E2E83CF80709F45FC19E2F78
:1023E0009E1981912813F6CF903108F09A5092955A
:1023F000907F3091003BEEEAF6E205C086E2E83CD1
:10240000F80709F451C12E2F211B81913813F6CF03
:10241000203108F459C186EF820F980FC92ED12CB4
:102420002091013BEEEAF6E205C096E2E83CF907AE
:1024300009F43CC19E2F911B81912813F6CF903156
:1024400008F09A509295907F2091023BEEEAF6E2D6
:1024500005C086E2E83CF80709F42AC16E2F611B2B
:1024600081912813F6CF603108F06A50690FC601D8
:102470000E94B2B72091033BEEEAF6E205C096E275
:10248000E83CF90709F416C19E2F911B819128138E
:10249000F6CF903108F09A509295907F2091043BAE
:1024A000EEEAF6E205C086E2E83CF80709F404C16A
:1024B0006E2F611B81912813F6CF603108F06A50AE
:1024C000690FC60101960E94B2B72091053BEEEA62
:1024D000F6E205C096E2E83CF90709F4EFC09E2F4A
:1024E000911B81912813F6CF903108F09A50929564
:1024F000907F2091063BEEEAF6E205C086E2E83CDA
:10250000F80709F4DDC06E2F611B81912813F6CF07
:10251000603108F06A50690FC60102960E94B2B796
:102520002091073BEEEAF6E205C096E2E83CF907A7
:1025300009F4B6C09E2F911B81912813F6CF9031DC
:1025400008F09A509295907F2091083B06C0F8ECD5
:10255000EF16F6E2FF0609F4A5C06E2D611BF70128
:1025600081917F012813F3CF603108F06A50690F21
:10257000C60103960E94B2B790CE60E087E195E372
:1025800070D289E0FE013D96A7E1B5E301900D927E
:102590008A95E1F767E175E380E068D2882309F462
:1025A00074C086E696E20E94250677CE2091FF3A17
:1025B000EEEAF6E2DF014E2F05C086E2A83CB8073E
:1025C00009F468C08A2F8E1B9D912913F6CF8031A4
:1025D00008F08A508295807F3091003B05C096E2DA
:1025E000E83CF90709F458C02E2F241B91913913A8
:1025F000F6CF203108F466C096EF920F890FE82ECF
:10260000F12C5701E4E0AE0EB11CCE0101966C0135
:102610000CE716E2C7010E94A0B71F928F931F9389
:102620000F93DF92CF920E943DD0C6010E94FC051D
:102630009FEFE91AF90A0F900F900F900F900F90EB
:102640000F90EA14FB0431F70E94870626CE60E063
:1026500087E195E306D289E0FE013D96A7E1B5E367
:1026600001900D928A95E1F740E250E067E175E351
:1026700080E090E00E94F5B710CE20E050CE80E0E0
:102680003ECE20E095CE80E084CE8FE696E20E949A
:10269000250603CE80E0A0CF90E0B0CF90E0A9CE99
:1026A00090E052CF60E063CF80E0B7CE90E0CCCE38
:1026B00060E0DCCE90E0F2CE60E002CF90E019CF97
:1026C00060E029CF922F9ACF822FA7CE0C9425922B
:1026D000CF93DF93EC01892B61F020E030E02F5F96
:1026E0003F4F203A8FE03807D1F70E94259221977B
:1026F000A1F7DF91CF9108950C94FAA90C94FBA94E
:1027000080915035811101C008950E9477C80C94C2
:10271000FCA981E0809350350895109250351092B5
:102720004F35089580915035811180914F3508952E
:1027300080915035882321F080914F35811102C05E
:1027400080E008950C94F2AECF92DF92EF92FF9268
:102750000F931F93CF93DF93CDB7DEB7C054D1094A
:10276000CDBFDEBFCE0101966C0160E470E0C60112
:102770000E943AAEE82E882389F08601F801F19094
:102780008F018F2D0F2C000C990B0E9429AF8F2DDC
:102790000E944607902F9C199E1580F30E9416AE4A
:1027A0008111E3CFC05CDF4FCDBFDEBFDF91CF91A2
:1027B0001F910F91FF90EF90DF90CF9008958111BE
:1027C00003C010924F35089581E080934F350895EE
:1027D00081E080934E35089510924E350895FC01A6
:1027E0002081211103C08181813009F0089580E0AA
:1027F0000C9426870895CF930E947388C0918F35DB
:1028000010928F358091903510929035811110C0C3
:10281000C11102C0CF9108958CED96E20E94250669
:1028200080E00E9426870E947188CF910C941592B7
:1028300089EC96E20E94250680E00E94FB860E94B9
:1028400071880E941592E4CF0E94CF05C7E0C09323
:10285000A2000E947DA8C093A2001092383B109263
:10286000393B10923A3B10923B3B10923C3B81E04B
:1028700080933D3B0E949FB770D078940E94F9A945
:102880000E94FAA96091192149E151E284E068D1DE
:102890006091182148E151E288E062D10E94F486FB
:1028A0000E94400780E48093A50680E88093A606F6
:1028B0000E941789809375360E9431B20E946F88FA
:1028C0000E94678898DF00E010E080913735811121
:1028D0002EC080E090E00196883C9105E1F7F6DE9D
:1028E00080915135882331F00F5F1F4F093E83E0FF
:1028F000180768F50E947388C0918F3510928F3544
:102900008091903510929035811115C0CC23E9F259
:102910008CED96E20E94250680E00E9426870E94A8
:1029200071880E94159280913735882391F289DC55
:1029300010923735CECF89EC96E20E94250680E0D2
:102940000E94FB860E9471880E941592DFCF0E9430
:10295000678800E010E0CECF089543E050E060E8E3
:1029600080E496E00E9467A943E050E060E280E4E2
:1029700096E00E9467A940E050E060E480E496E0C1
:102980000E9467A943E050E060E180E496E00E9485
:1029900067A943E050E062E080E296E00E9467A908
:1029A00041E050E062E080E096E00E9467A943E0E9
:1029B00050E064E080E096E00E9467A943E050E0C8
:1029C00061E080EA96E00E9467A943E050E060E29F
:1029D00080E696E00E9467A940E050E064E080E66F
:1029E00096E00E9467A927D141E050E060E480EAC8
:1029F00096E00E9467A941E050E060E880EA96E036
:102A00000E9467A943E050E064E080E496E00E9401
:102A100067A943E050E068E080E496E00E9467A97F
:102A200048E150E064E080EA96E00E9467A962E035
:102A300070E280EA9BE00E94A2C1811104C087EE8F
:102A400096E20E94250641E050E061E080E296E0D7
:102A50000E9467A943E050E061E080EA96E00C94B0
:102A600067A970E040E250E00C94FDCF8F929F92F6
:102A7000AF92BF92DF92EF92FF920F931F93CF938B
:102A8000DF93CDB7DEB72A97CDBFDEBF90E2899F37
:102A9000400111247B0100E010E005C00F5F1F4FD3
:102AA00000321105D1F1C801880D991D0E94A0B70F
:102AB000D82E5701EFEFEE1AFE0AF5019081981714
:102AC00069F386EF96E20E9425061F930F93F501A6
:102AD00080811F928F931F92DF928AEF96E29F93DD
:102AE0008F938E010F5F1F4F1F930F930E943DD056
:102AF000C8010E942506CDBFDEBF80E02A96CDBF6B
:102B0000DEBFDF91CF911F910F91FF90EF90DF908B
:102B1000BF90AF909F908F90089581E0EFCFCF93BB
:102B2000DF93C82FD62F90E080960E94B2B765E25F
:102B30006D0F81E08C0F90E080960E94B2B76D2FF0
:102B4000609582E08C0F90E080960E94B2B7CD5FD6
:102B50008C2F90E061E48096DF91CF910C94B2B716
:102B60009F92AF92BF92CF92DF92EF92FF920F931C
:102B70001F93CF93DF9300D01F92CDB7DEB7082FFE
:102B8000962E5A01CE0101967C016E0195E0C90E88
:102B9000D11C102F812F90E080960E94A0B7F701E2
:102BA00081937F011F5FEC15FD05A1F7498125E2A7
:102BB000240F30E08A8190E02817390769F1802FCF
:102BC00090E0692D80960E94B2B765E2690D81E0C0
:102BD000800F90E080960E94B2B7692D609582E0E8
:102BE000800F90E080960E94B2B70D5F802F90E03A
:102BF00061E480960E94B2B780E02496CDBFDEBF2C
:102C0000DF91CF911F910F91FF90EF90DF90CF90C8
:102C1000BF90AF909F9008958B8180954813CFCF40
:102C20008C81813461F6F501408381E0E6CF81E05B
:102C30008093A6060895CF93DF931F92CDB7DEB79A
:102C400043E050E062E080EA96E00E9467A9AE01AE
:102C50004F5F5F4F60E08CE083DF882359F081E0B5
:102C60009981992359F08093523581110CC082E0EB
:102C70008093A6060F90DF91CF91089580E0809316
:102C800052358823A1F382E08093A5060F90DF914F
:102C9000CF9108956091523581E068276093523555
:102CA000611106C082E08093A6068CE038CF0895BB
:102CB00082E08093A5068CE032CF08958091123B8C
:102CC000882381F0833050F48091133B813009F4E4
:102CD00043C068F18230D1F0833049F160E070E0A8
:102CE000CB0108952FE130E240E050E060E08091B8
:102CF0005335909154350E94A97FDC01CB016CE2E1
:102D000075E006D660E070E0CB0108952FE130E277
:102D100045E250E261E080915335909154350E9434
:102D2000A97FDC01CB016CE675E0F2D5D7CF8091AD
:102D3000143B2FE130E2813001F140E050E063E0EC
:102D400080915335909154350E94A97FDC01CB01CD
:102D50006AE575E0DDD5C2CF2FE130E240E050E01A
:102D600063E080915335909154350E94A97FDC0136
:102D7000CB0164E675E0CCD5B1CF45E250E261E02D
:102D800080915335909154350E94A97FDC01CB018D
:102D900062E575E0BDD5A2CFCF93DF9300D0CDB76C
:102DA000DEB797E19B838A3109F43FC08D3131F161
:102DB0008A3031F02396CDBFDEBFDF91CF910895E9
:102DC000BE016D5F7F4F80915335909154350E94C5
:102DD000317EDC01CB0166ED73E09AD50E94498813
:102DE0006B81862F90E08731910578F16130B9F5DC
:102DF00081E0809356356093432040C0AE014F5F21
:102E00005F4FBE016E5F7F4F809153359091543577
:102E10000E947784DC01CB016BE374E079D52396C3
:102E2000CDBFDEBFDF91CF9108951092123B10927B
:102E3000133B44DFDC01CB016EEF73E069D52396D1
:102E4000CDBFDEBFDF91CF910895FC018827E55EFD
:102E5000FC4F8F4F0C947FCF82E08093143B862FE2
:102E6000877F843029F26F3009F4C2CF673009F4CC
:102E7000BFCF8FEF8093432010925635809153350A
:102E8000909154350E949F7EDC01CB0165EE73E08A
:102E90003FD51092123B1092133B10DFDC01CB01A7
:102EA0006EEE73E035D52396CDBFDEBFDF91CF91B7
:102EB00008951092143BD3CF81E08093143BCFCF81
:102EC00081E08093143B94CF1F93CF93DF93CDB7D2
:102ED000DEB7A897CDBFDEBF182F8DE297E20E9424
:102EE0002506112341F11130F9F4E4E4FBE0AE01D1
:102EF0004F5F5F4FDA019E01275D3F4F04C031965F
:102F0000A217B30721F094919D939111F8CF18A6C1
:102F1000CA010E9425068FEF809343200E945B88A0
:102F20001092553510925635A896CDBFDEBFDF9171
:102F3000CF911F910895EAE2FBE0AE014F5F5F4F32
:102F4000DA019E01275D3F4F04C03196A217B307F7
:102F500021F094919D939111F8CF18A6CA010E9477
:102F6000250681E080935535109256358FEF80937A
:102F700043200E944988A896CDBFDEBFDF91CF9144
:102F80001F910895853009F00895FB0184818130F7
:102F900009F455C060F1823019F0833041F582E0C8
:102FA0008093123B92E08085813009F473C060F118
:102FB000823009F448C0833039F583E08093133BB5
:102FC000911126C02FE130E240E050E060E08091B6
:102FD0005335909154350E94A97FDC01CB016CE2FE
:102FE00075E096D46BE973E080E090E091C41092B4
:102FF000123B80858130D1F130F08230B9F18330DD
:1030000011F490E0DACF90E01092133B9923D1F2C3
:10301000933040F78091143B813059F12FE130E239
:1030200040E050E063E080915335909154350E9428
:10303000A97FDC01CB016AE575E06AD4D3CF809328
:10304000123B91E0B0CF8093133B2FE130E245E299
:1030500050E261E080915335909154350E94A97FF0
:10306000DC01CB016CE675E053D4BCCF8093133BFD
:10307000A9CF2FE130E245E250E261E08091533583
:10308000909154350E94A97FDC01CB0162E575E087
:103090003FD4A8CF8093133B2FE130E240E050E0D3
:1030A00063E080915335909154350E94A97FDC01F3
:1030B000CB0164E675E02CD495CF0F931F93CF938B
:1030C000DF93CDB7DEB76297CDBFDEBF1092123B64
:1030D0001092133B1092143B8091573581112DC0F3
:1030E00060E070E083E595E30E944077DC01CB016E
:1030F0006DE172E00DD461E08091533590915435CB
:103100000E944D86DC01CB0161E272E001D40CEC3F
:1031100016E122EC37E144E657E160E070E080918F
:103120005335909154350E94B479DC01CB0162E4AF
:1031300072E0EED381E08093573511E01093153B98
:103140001092163B1092173B1093183B65E17BE3FE
:1031500080915335909154350E94AB77DC01CB01BF
:1031600065E572E0D5D328E04FE358E26BE478E2FE
:1031700080915335909154350E94DD84DC01CB0160
:1031800060E672E0C5D349E358E263E478E28091F7
:103190005335909154350E947485DC01CB0165E66E
:1031A00072E0B6D362E080915335909154350E941D
:1031B0004D86DC01CB0169E672E0AAD360E0809124
:1031C0005335909154350E948D7BDC01CB016AE729
:1031D00072E09ED320E030E040E050E060E080917B
:1031E0005335909154350E94A97FDC01CB016FE7E4
:1031F00072E08ED300E020E040E060E08091533543
:10320000909154350E949C81DC01CB0168E872E00A
:103210007FD3198286E08A831B8387E08C8382E0D8
:103220008D8389E08E8393E09F838AE0888784E0A2
:1032300089879A8795E09B878C87BE016F5F7F4F58
:1032400080915335909154350E94BA8541E061E0F8
:1032500080915335909154350E944F83DC01CB010E
:1032600063EB72E055D360E0809153359091543513
:103270000E94257ADC01CB016CEB72E049D361E05E
:1032800080915335909154350E94257ADC01CB0111
:103290006DEB72E03DD362E08091533590915435EF
:1032A0000E94257ADC01CB0167EC72E031D363E048
:1032B00080915335909154350E94257ADC01CB01E1
:1032C00068EC72E025D364E08091533590915435D9
:1032D0000E94257ADC01CB016AEC72E019D365E02B
:1032E00080915335909154350E94257ADC01CB01B1
:1032F0006BEC72E00DD367E08091533590915435BB
:103300000E94257ADC01CB016CEC72E001D368E00D
:1033100080915335909154350E94257ADC01CB0180
:103320006DEC72E0F5D269E080915335909154359F
:103330000E94257ADC01CB016EEC72E0E9D26BE0F1
:1033400080915335909154350E94257ADC01CB0150
:1033500060ED72E0DDD26DE080915335909154358F
:103360000E94257ADC01CB0161ED72E0D1D260E1EF
:1033700080915335909154350E94257ADC01CB0120
:1033800062ED72E0C5D265E180915335909154357C
:103390000E94257ADC01CB0163ED72E0B9D266E1CF
:1033A00080915335909154350E94257ADC01CB01F0
:1033B00064ED72E0ADD267E1809153359091543560
:1033C0000E94257ADC01CB0165ED72E0A1D268E1B3
:1033D00080915335909154350E94257ADC01CB01C0
:1033E00067ED72E095D269E1809153359091543543
:1033F0000E94257ADC01CB0168ED72E089D26AE196
:1034000080915335909154350E94257ADC01CB018F
:1034100069ED72E07DD26CE0809153359091543526
:103420000E94257ADC01CB016AED72E071D26EE078
:1034300080915335909154350E94257ADC01CB015F
:103440006BED72E065D26BE180915335909154350C
:103450000E94257ADC01CB016CED72E059D26CE15F
:1034600080915335909154350E94257ADC01CB012F
:103470006EED72E04DD26DE18091533590915435EF
:103480000E94257ADC01CB0160EE72E041D26AE055
:1034900080915335909154350E94257ADC01CB01FF
:1034A00062EE72E035D26FE08091533590915435E1
:1034B0000E94257ADC01CB0164EE72E029D261E141
:1034C00080915335909154350E94257ADC01CB01CF
:1034D00066EE72E01DD262E18091533590915435D1
:1034E0000E94257ADC01CB0168EE72E011D263E123
:1034F00080915335909154350E94257ADC01CB019F
:103500006AEE72E005D260E070E0CB016296CDBF5A
:10351000DEBFDF91CF911F910F91089579D2CDDD5C
:1035200081E0809351350895CF92DF92EF92FF9220
:103530000F931F93CF93DF93CDB7DEB72797CDBF00
:10354000DEBF80915635811164C08091553581115F
:103550005BC0809143201F928F9381E597E29F93F8
:103560008F9389EEC82E8AE3D82EDF92CF920E94E5
:103570003DD0C6010E9425069E012F5F3F4F790175
:103580008E010D5F1F4F2C5F3F4FAE014A5F5F4FB3
:10359000BE01695F7F4F80E090E00E948C3D8F818B
:1035A0001F928F938A818F9389818F938C818F93C0
:1035B0008B818F9389E597E29F938F93DF92CF92D0
:1035C0000E943DD0C6010E9425068091A806CDBF6D
:1035D000DEBF82FD23C080919535811110C08EE839
:1035E00097E20E9425062796CDBFDEBFDF91CF91DF
:1035F0001F910F91FF90EF90DF90CF9008958AE791
:1036000097E20E942506EFCF86E497E20E94250606
:10361000A0CF8AE397E20E94250697CF88E697E23B
:103620000E942506E0CF0F9362E080915335909180
:1036300054350E94755C00E020E040E060E080913D
:103640005335909154350E94535D0F9108950F9317
:1036500060E080915335909154350E94755C00E193
:1036600020E240E460E880915335909154350E9407
:10367000535D0F910895813021F08FEA97E20C9409
:10368000250683EA97E20E94250680E2809366067B
:1036900080E090E00196803A2FE09207D9F780E22F
:1036A000809365060895CF92DF92EF92FF920F9379
:1036B0001F93CF93DF931F921F92CDB7DEB780E8A1
:1036C0008A839E012E5F3F4F41E060E170E080E021
:1036D00090E0FED49F938F937F936F938EEBE82EB1
:1036E00087E2F82EFF92EF9209EE1AE31F930F93F1
:1036F0000E943DD0C8010E94250682E08A839E0177
:103700002E5F3F4F41E06AEF70E080E090E0E0D450
:103710009F938F937F936F93FF92EF921F930F93DB
:103720000E943DD0C8010E9425062FEF39E582E6B0
:1037300092E02150304080409040D9F700C0000016
:10374000CDBFDEBFC12CD12C760108C038E8C3162E
:1037500033E1D306E104F10409F49EC09E012F5F1A
:103760003F4F41E060E170E080E090E00E9476240D
:103770003FEF85EA9EE0315080409040E1F700C085
:10378000000028ECC20ED11CE11CF11C898187FFCE
:10379000DDCF88E8C81683E1D806E104F10409F416
:1037A0007BC080E889839E012F5F3F4F41E06FE03F
:1037B00070E080E090E082D69E012E5F3F4F41E0B6
:1037C0006CEF70E080E090E083D49F938F937F93C1
:1037D0006F938EEB97E29F938F9389EE9AE39F937B
:1037E0008F930E943DD089EE9AE30E9425069FEFB9
:1037F00029E532E682E09150204030408040D9F700
:1038000000C00000CDBFDEBFC12CD12C760107C0A7
:1038100038E8C31633E1D306E104F104C1F19E0197
:103820002F5F3F4F41E06FE070E080E090E00E944A
:1038300076243FEF85EA9EE0315080409040E1F7EA
:1038400000C0000028ECC20ED11CE11CF11C8981D3
:1038500087FFDECF88E8C81683E1D806E104F104CB
:10386000B1F080E889839E012F5F3F4F41E06FE018
:1038700070E080E090E022D60F900F90DF91CF9122
:103880001F910F91FF90EF90DF90CF90089584E00B
:1038900098E20E942506E5CF8FEC97E20E9425066C
:1038A00080CFEF92FF920F931F93CF93DF93CDB70B
:1038B000DEB72797CDBFDEBFCE0101967C018E011A
:1038C0000D5F1F4F9E012B5F3F4FAE014A5F5F4F61
:1038D000BE01695F7F4F80E090E00E948C3D809147
:1038E000A80682FD13C080919535882369F083E096
:1038F000809394352796CDBFDEBFDF91CF911F9186
:103900000F91FF90EF90089581E0F2CF80E0F0CF2B
:1039100008950F931F93CF93DF93CDB7DEB72B9707
:10392000CDBFDEBF4093193B8E010F5F1F4F9BE061
:10393000F80111929A95E9F789836A8321E030E0D2
:103940002D833E8349E15BE34F83588729873A877C
:1039500091E09B8790910A208917A9F09091092006
:10396000891751F090E0892F2B96CDBFDEBFDF91F4
:10397000CF911F910F9108958BE499E20E94250643
:1039800080910920898340E0B80180EA94E00E9498
:1039900044C191E0882339F3E5CFCF93DF93CDB7CE
:1039A000DEB72C97CDBFDEBFFE0131969BE0DF0175
:1039B0001D929A95E9F789836A8321E030E02D838F
:1039C0003E83AE01445F5F4F4F83588729873A8714
:1039D00090910A20891769F090910920891739F090
:1039E00080E02C96CDBFDEBFDF91CF91089584E3B8
:1039F000898341E0BF0180EA94E00E9444C18111C3
:103A0000EFCF8C852C96CDBFDEBFDF91CF9108958F
:103A1000CF93DF93CDB7DEB72997CDBFDEBF61E08F
:103A200087E599E20E94A40680E593ECA0E0B0E06F
:103A300089839A83AB83BC8388E489878BEE90E08B
:103A4000A0E0B0E08D839E83AF83B88760E485E01B
:103A50000E94EDA8BE016F5F7F4F80EA94E00E9454
:103A60002FC160E070E0CB012996CDBFDEBFDF91B2
:103A7000CF9108955F926F927F928F929F92AF92B3
:103A8000BF92CF92DF92EF92FF920F931F93CF934B
:103A9000DF93CDB7DEB72B97CDBFDEBFFB01118122
:103AA0000281238194818081843309F45BC00023E7
:103AB00009F442C0E22EF92E010FCE0101965C01FD
:103AC00049E1842E4BE3942E5BE0552E68E4662E8C
:103AD000CC24C394D12C7724739403C01F5F101798
:103AE00059F1F70181917F018093193BF501852DF3
:103AF00011928A95E9F769821A83CD82DE828F82DC
:103B00009886C986DA867B8680910A20883459F0A7
:103B100080910920883411F78BE499E20E942506F0
:103B200080910920898340E0B50180EA94E00E94F9
:103B300044C11F5F1013D5CF60E070E0CB012B961E
:103B4000CDBFDEBFDF91CF911F910F91FF90EF901E
:103B5000DF90CF90BF90AF909F908F907F906F90AD
:103B60005F900895002341F3E22EF92E010FFE012C
:103B700031965F0189E1882E8BE3982E9BE0592EC8
:103B800024E3622ECC24C394D12C7724739403C0F5
:103B90001F5F101789F2F70181917F018093193B14
:103BA000F501852D11928A95E9F769821A83CD82F4
:103BB000DE828F829886C986DA867B8680910A208B
:103BC000843359F080910920843311F78BE499E212
:103BD0000E94250680910920898340E0B50180EA92
:103BE00094E00E9444C1D4CF0F931F93CF93DF93EF
:103BF000CDB7DEB72C97CDBFDEBFFB012081918111
:103C0000828103811481FE013196813031F13BE0E4
:103C1000DF011D923A95E9F729839A8341E050E04C
:103C20004D835E830F83188790E089879A872834B5
:103C300069F0243359F060E070E0CB012C96CDBFE1
:103C4000DEBFDF91CF911F910F91089541E0BF0139
:103C500080EA94E00E9444C1EECF8BE0DF011D9228
:103C60008A95E9F729839A8381E090E08D839E838A
:103C7000AE01445F5F4F4F83588789879A87809151
:103C80000A20281751F080910920281721F080E0A0
:103C9000F8018083D0CF84E3898341E0BF0180EACB
:103CA00094E00E9444C18111F2CF8C85F1CFCF9373
:103CB000DF93CDB7DEB72C97CDBFDEBFFE013196C7
:103CC0009BE0DF011D929A95E9F789836A8381E081
:103CD00090E08D839E839E01245F3F4F2F83388722
:103CE00089879A8741E0BF0180EA94E00E9444C13D
:103CF00091E0811190E0892F2C96CDBFDEBFDF913E
:103D0000CF9108954F925F926F927F928F929F9280
:103D1000AF92BF92CF92DF92EF92FF920F931F93D9
:103D2000CF93DF93CDB7DEB72897CDBFDEBF7C0141
:103D30008B016901A72FBB27A038B10509F4DBC0AF
:103D40008AE18E9DF0018F9DF00D1124EB5BFF4DFC
:103D500082818983AF8381818A1749F18FEF8A83BA
:103D600081E08B83CE0107968C839D832AE12E9D73
:103D7000C0012F9D900D11249C012B5B3F4D5901DB
:103D8000D9011496ED91FC911597CE0101964887C3
:103D900019954885672B682B692B09F08BC0D501D5
:103DA00054961C9254978F8111968C9303C08489EA
:103DB0008130A1F298013E7FC8019E7D8F3F910521
:103DC00009F495C0C8019F7E8F3F924009F48FC0CF
:103DD0000F3FE3E11E0709F48AC02F3FF2E23F07DD
:103DE00009F485C00F3F50E3150709F480C02F3F49
:103DF000304409F47CC00F3F92E4190709F477C0FE
:103E00000630A0E31A0708F0B6C03801640E711C32
:103E1000C30101978530904308F4ADC00530E0E35D
:103E20001E0709F4D3C00A8385E0801B8B83CC82F4
:103E3000DD828AE18E9DF0018F9DF00D1124EB5BF8
:103E4000FF4D0480F581E02DCE0101964C0148879D
:103E500019954885672B682B692B09F0ADC085E063
:103E6000482E4A82552453945B82CE0106968C8359
:103E70009D832AE12E9DC0012F9D900D1124DC0110
:103E8000AB5BBF4D5D011696ED91FC911797C40198
:103E9000488719954885672B682B692B09F49BC0C7
:103EA00067EC72E08EEC97E033DD67E170EA80E06A
:103EB00090E009C069E972E08EEC97E029DD68E1E5
:103EC00070EA80E090E02896CDBFDEBFDF91CF9111
:103ED0001F910F91FF90EF90DF90CF90BF90AF9028
:103EE0009F908F907F906F905F904F90089560E0CB
:103EF00070E0CB01E8CF2AE12E9DC0012F9D900DEF
:103F000011249C012B5B3F4D7901D90113968C91B3
:103F10001F928F9380E699E29F938F9389EE9AE3A5
:103F20009F938F9348870E943DD089EE9AE30E9429
:103F30002506F701838189830A8348854B83CC82D8
:103F4000DD820480F581E02DCE01019619950F9058
:103F50000F900F900F900F900F90672B682B692B8D
:103F600031F26EE173E08EEC97E0D2DC68E170EA4A
:103F700080E090E0A8CF0A834B83CC82DD828AE187
:103F80008E9DF0018F9DF00D1124EB5BFF4D0480A1
:103F9000F581E02DCE0101961995672B682B692BD1
:103FA00009F4A5CF6AE073E08EEC97E0B1DC68E13C
:103FB00070EA80E090E087CF6CEB72E08EEC97E0E7
:103FC000A7DC68E170EA80E090E07DCF9E012F5F82
:103FD0003F4F490144CF4A825B8225E030E3201BFA
:103FE000310BC6010D2C000CAA0BBB0B820F931FCB
:103FF000A11DB11D8C839D83F50164817581C40170
:104000004887FB0119954885672B682B692B09F0B8
:1040100055C09E81292F2770D50112968C91129739
:10402000821B12968C931297EC81FD812081277060
:10403000820F12968C93129792959F70292F23705E
:1040400013969C911397921B13969C931397208120
:1040500022952370920F13969C93E114F10421F49E
:1040600080930A20909309208983B6E06B16B0E311
:104070007B0609F43CCF86E08A834650040F0B830D
:10408000CC82DD828AE18E9DF0018F9DF00D11249E
:10409000EB5BFF4D64817581C401FB011995672BB2
:1040A000682B692B09F423CF6AEF72E08EEC97E05E
:1040B0002FDC68E170EA80E090E005CF61ED72E00E
:1040C0008EEC97E025DC68E170EA80E090E0FBCEC2
:1040D0006F927F928F929F92AF92BF92CF92DF9218
:1040E000EF92FF920F931F93CF93DF93CDB7DEB77D
:1040F0002A97CDBFDEBF8C017B012115310509F464
:10410000F4C00297DCF06BEB71E08EEC97E000DC22
:1041100065E070EA80E090E02A96CDBFDEBFDF91D7
:10412000CF911F910F91FF90EF90DF90CF90BF90B4
:10413000AF909F908F907F906F900895872F9927D1
:104140008038910509F4E5C09AE1909FF001919FB4
:10415000F00D1124EB5BFF4D928199838F83918148
:10416000981769F18FEF8A8381E08B83CE010796E0
:104170008C839D835AE1509FC001519F900D112463
:10418000BC016B5B7F4D6B01DB011496ED91FC91E3
:104190001597CE01019629873A8748871995298571
:1041A0003A854885672B682B692B09F0A8C0D60192
:1041B00054961C9254978F8111968C9303C08489D6
:1041C000813081F2B7017E7FC7019E7D8F3F9105CF
:1041D00009F487C0C7019F7E8F3F924009F481C0D8
:1041E000EFEFEE16E3E1FE0609F47BC06F3FF2E26B
:1041F0007F0709F476C05FEFE51650E3F50609F492
:1042000070C06F3F704409F46CC09FEFE91692E4F0
:10421000F90609F466C0A6E0EA16A0E3FA0608F07B
:104220009AC04701840E911CC401019785309043C8
:1042300008F491C0E5E0EE16E0E3FE0609F4B6C02E
:10424000EA8285E08E198B832C833D838AE1809FEF
:10425000F001819FF00D1124EB5BFF4D64817581AE
:10426000CE0101965C0129873A874887FB011995A1
:1042700029853A854885672B682B692B09F08CC006
:1042800085E0782E7A82662463946B82CE0106964E
:104290008C839D836AE1609FC001619F900D112412
:1042A000BC016B5B7F4D6B01DB0116966D917C91C0
:1042B0001797C50129873A874887FB0119952985F2
:1042C0003A854885672B682B692B09F474C06BE02D
:1042D00072E08EEC97E01CDB67E170EA80E090E032
:1042E0001BCF60E070E0CB0117CF68EB71E08EEC84
:1042F00097E00EDB60E170EA80E090E00DCF6CEDBE
:1043000071E08EEC97E004DB68E170EA80E090E019
:1043100003CF8AE1809FF001819FF00D1124EB5BB8
:10432000FF4D838189836A834B832C833D83048083
:10433000F581E02DCE0101961995672B682B692B2D
:1043400081F26AE572E08EEC97E0E2DA68E170EA09
:1043500080E090E0E1CEEA824B832C833D838AE1CA
:10436000809FF001819FF00D1124EB5BFF4D0480D5
:10437000F581E02DCE0101961995672B682B692BED
:1043800009F4AFCF69E472E08EEC97E0C1DA68E13E
:1043900070EA80E090E0C0CE60E072E08EEC97E0E2
:1043A000B7DA68E170EA80E090E0B6CEBE016F5FF8
:1043B0007F4F5B0165CF7A826B8265E070E36E1997
:1043C0007F09C901032E000CAA0BBB0B860F971F98
:1043D000A11DB11D8C839D83D60114966D917C9196
:1043E0001597C50129873A874887FB0119952985C3
:1043F0003A854885672B682B692B09F055C09E814B
:10440000592F5770D60112968C911297851B1296D0
:104410008C931297EC81FD8150815770850F129615
:104420008C93129792959F70592F537013969C916D
:104430001397951B13969C93139750815295537025
:10444000950F13969C930115110521F480930A2072
:10445000909309208983B6E08B16B0E39B0609F49C
:1044600040CF86E08A834650E40EEB822C833D8366
:104470008AE1809FF001819FF00D1124EB5BFF4DDD
:1044800064817581C501FB011995672B682B692B28
:1044900009F427CF6AE372E08EEC97E039DA68E13D
:1044A00070EA80E090E038CE65E172E08EEC97E053
:1044B0002FDA68E170EA80E090E02ECE6F927F9272
:1044C0008F929F92AF92BF92CF92DF92EF92FF9224
:1044D0000F931F93CF93DF93CDB7DEB72A97CDBF4E
:1044E000DEBF8C017B012115310509F4F4C0029770
:1044F000DCF068E772E08EEC97E00ADA65E070EADB
:1045000080E090E02A96CDBFDEBFDF91CF911F9172
:104510000F91FF90EF90DF90CF90BF90AF909F9062
:104520008F907F906F900895872F992780389105FD
:1045300009F4E5C09AE1909FF001919FF00D1124DC
:10454000EB5BFF4D928199838F839181981769F17D
:104550008FEF8A8381E08B83CE0107968C839D83C6
:104560005AE1509FC001519F900D1124BC016B5B1B
:104570007F4D6B01DB011496ED91FC911597CE01F7
:10458000019629873A874887199529853A8548856C
:10459000672B682B692B09F0A8C0D60154961C9292
:1045A00054978F8111968C9303C08489813081F256
:1045B000B7017E7FC7019E7D8F3F910509F487C0BB
:1045C000C7019F7E8F3F924009F481C0EFEFEE1646
:1045D000E3E1FE0609F47BC06F3FF2E27F0709F4D6
:1045E00076C05FEFE51650E3F50609F470C06F3F43
:1045F000704409F46CC09FEFE91692E4F90609F4DF
:1046000066C0A6E0EA16A0E3FA0608F0BCC04701BF
:10461000840E911CC40101978530904308F4B3C007
:10462000E5E0EE16E0E3FE0609F4D8C0EA8285E094
:104630008E198B832C833D838AE1809FF001819FBB
:10464000F00D1124EB5BFF4D64817581CE01019665
:104650005C0129873A874887FB01199529853A85A6
:104660004885672B682B692B09F0AEC085E0782E52
:104670007A82662463946B82CE0106968C839D8336
:104680006AE1609FC001619F900D1124BC016B5BCA
:104690007F4D6B01DB0116966D917C911797C501DB
:1046A00029873A874887FB01199529853A854885E6
:1046B000672B682B692B09F496C067EC72E08EECCF
:1046C00097E026D967E170EA80E090E01BCF60E0D8
:1046D00070E0CB0117CF65E772E08EEC97E018D958
:1046E00060E170EA80E090E00DCF69E972E08EEC65
:1046F00097E00ED968E170EA80E090E003CF5AE1DC
:10470000509FC001519F900D11248C010B5B1F4DD8
:10471000D80113968C911F928F9380E699E29F9314
:104720008F9389EE9AE39F938F9329873A874887DF
:104730000E943DD089EE9AE30E942506F80183810C
:104740008983EA8248854B8329853A852C833D837A
:104750000480F581E02DCE01019619950F900F9000
:104760000F900F900F900F90672B682B692B09F417
:10477000AECF6EE173E08EEC97E0CAD868E170EAE4
:1047800080E090E0BFCEEA824B832C833D838AE1B8
:10479000809FF001819FF00D1124EB5BFF4D0480A1
:1047A000F581E02DCE0101961995672B682B692BB9
:1047B00009F48DCF6AE073E08EEC97E0A9D868E148
:1047C00070EA80E090E09ECE6CEB72E08EEC97E0B9
:1047D0009FD868E170EA80E090E094CEBE016F5F00
:1047E0007F4F5B0143CF7A826B8265E070E36E1985
:1047F0007F09C901032E000CAA0BBB0B860F971F64
:10480000A11DB11D8C839D83D60114966D917C9161
:104810001597C50129873A874887FB01199529858E
:104820003A854885672B682B692B09F055C09E8116
:10483000592F5770D60112968C911297851B12969C
:104840008C931297EC81FD8150815770850F1296E1
:104850008C93129792959F70592F537013969C9139
:104860001397951B13969C931397508152955370F1
:10487000950F13969C930115110521F480930A203E
:10488000909309208983B6E08B16B0E39B0609F468
:104890001ECF86E08A834650E40EEB822C833D8354
:1048A0008AE1809FF001819FF00D1124EB5BFF4DA9
:1048B00064817581C501FB011995672B682B692BF4
:1048C00009F405CF6AEF72E08EEC97E021D868E139
:1048D00070EA80E090E016CE61ED72E08EEC97E039
:1048E00017D868E170EA80E090E00CCE8F929F923A
:1048F000AF92BF92CF92DF92EF92FF920F931F93EE
:10490000CF93DF9300D000D0CDB7DEB78C01C62E99
:10491000D42E790190915A359923D1F06EE473E049
:104920008EEC97E00E94881C65E070EA80E090E0E1
:104930002696CDBFDEBFDF91CF911F910F91FF90E3
:10494000EF90DF90CF90BF90AF909F908F900895A1
:1049500081E080935A352115310551F0023011055F
:1049600074F010925A3565E070EA80E090E0E0CF94
:1049700010925A3560E170EA80E090E0D9CF872F3D
:1049800090E08038910509F4EBC03AE1309FF001E6
:10499000319FF00D1124EB5BFF4D3181731721F135
:1049A0007E83872F90E083349105E8F188E1882E9B
:1049B00080EA982EA12CB12C88E699E20E94250667
:1049C00010925A35B401C501B3CF9E012A5F3F4F03
:1049D00041E06FEF71E0C8017BDB4B015C018114AA
:1049E0009104A104B10441F78AE1809FF001819F05
:1049F000F00D1124EB5BFF4D82818983CA82DB823B
:104A0000EC82FD820680F781E02DCE01019619959A
:104A1000672B682B692B71F010925A3567E170EAA9
:104A200080E090E085CFFC018827EE5CFC4F8F4F43
:104A30000C947FCF10925A3560E070E080E090E0F7
:104A400077CF9E012A5F3F4F41E06FEF70E0C801D2
:104A50003FDB4B015C01C3CF9E012A5F3F4F41E02A
:104A60006FEF74E1C80134DB4B015C01B8CF9E01EC
:104A70002A5F3F4F41E06FEF73E1C80129DB4B0133
:104A80005C01ADCF9E012A5F3F4F41E06FEF72E1C5
:104A9000C8011EDB4B015C01A2CF9E012A5F3F4F84
:104AA00041E06FEF72E0C80113DB4B015C0197CF6F
:104AB0009E012A5F3F4F41E06FEF72E4C80108DBBF
:104AC0004B015C018CCF9E012A5F3F4F41E06FEFAD
:104AD00071E4C801FDDA4B015C0181CF9E012A5FC0
:104AE0003F4F41E06FEF70E4C801F2DA4B015C0127
:104AF00076CF9E012A5F3F4F41E06FEF70E3C80120
:104B0000E7DA4B015C016BCF9E012A5F3F4F41E02A
:104B10006FEF73E2C801DCDA4B015C0160CF9E01EC
:104B20002A5F3F4F41E06FEF72E2C801D1DA4B01DB
:104B30005C0155CF9E012A5F3F4F41E06FEF71E26C
:104B4000C801C6DA4B015C014ACF9E012A5F3F4F84
:104B500041E06FEF70E2C801BBDA4B015C013FCF6F
:104B60008AE1809FF001819FF00D1124EB5BFF4DE6
:104B7000838189836A834B832C833D830680F781FD
:104B8000E02DCE01019619956115710581059105FC
:104B900009F450CF10925A359F938F937F936F9360
:104BA00081E799E29F938F9389EE9AE39F938F9386
:104BB0000E943DD089EE9AE30E942506CDBFDEBF5C
:104BC00067E170EA80E090E0B3CE8F929F92AF925F
:104BD000BF92CF92DF92EF92FF920F931F93CF93EA
:104BE000DF931F92CDB7DEB78C017B018230910538
:104BF000C4F062E37CE18EEC97E00E94881C65E0E3
:104C000070EA80E090E00F90DF91CF911F910F91BB
:104C1000FF90EF90DF90CF90BF90AF909F908F90DC
:104C200008959E012F5F3F4F41E069E470E05EDE32
:104C30004B015C01672B682B692B09F049C09981F6
:104C4000892F847092FF02C091FF3EC090E06C01FA
:104C5000D694C794D694C7949E012F5F3F4F41E0EE
:104C60006EE470E0C80142DE4B015C01672B682BEB
:104C7000692BB9F58981982F947082FD1FC0892F07
:104C800090E096958795DC2CD82A9E012F5F3F4FA8
:104C900041E061E270E0C80129DE4B015C01672B55
:104CA000682B692B29F589818F718B31E9F0F70128
:104CB000D08260E070E080E090E0A5CF81FDDFCFA2
:104CC0008B7F898390E0DBCF9B7F998380E0BECF91
:104CD00066E47CE18EEC97E00E94881CB401C5017B
:104CE00092CF62E57CE1F6CF8D2D8061D82EDFCFAB
:104CF00061E67CE1EFCF6F927F928F929F92AF92AD
:104D0000BF92CF92DF92EF92FF920F931F93CF93B8
:104D1000DF93CDB7DEB72D97CDBFDEBF5C01490174
:104D20008BE599E24D876C870E9425064D856C8541
:104D300022E0A216B104FCF069E074E08EEC97E08A
:104D40000E94881C35E020EA00E010E0632F722FFB
:104D5000C8012D96CDBFDEBFDF91CF911F910F917E
:104D6000FF90EF90DF90CF90BF90AF909F908F908B
:104D70007F906F9008952AE12A9DC0012B9D900D90
:104D80001124FC01EB5BFF4D3F018081813089F1F3
:104D90008114910409F457C001151105A9F1C1143A
:104DA000D104E9F181E08083628343838482958228
:104DB00006831783E086F186C286D3868FEF8183D0
:104DC00083E18B879E01255F3F4F41E06FEF70E0ED
:104DD000C50174DB672B682B692B21F16BE274E052
:104DE0008EEC97E00E94881C38E120EA00E010E099
:104DF000ADCF6CE074E08EEC97E00E94881C34E14B
:104E000020EA00E010E0A2CF63E174E08EEC97E0CE
:104E10000E94881C30E120EA00E010E097CF66E1B4
:104E200074E0F4CF84E28B879E01255F3F4F41E021
:104E300068EE70E0C50142DB672B682B692B31F00F
:104E400060E374E0CDCF60E174E0E0CF9E012F5FBE
:104E50003F4F42E060E170E3C50148DD672B682BFE
:104E6000692B09F074C0898186FB992790F9F301B9
:104E7000958785FB332730F9368781FB442740F936
:104E8000428B2A81208B982F92959370913009F450
:104E900073C008F462C09AE19A9DF0019B9DF00DE9
:104EA0001124EB5BFF4D93E79787311193C02111DC
:104EB000B2C197E094879AE19A9DF0019B9DF00D15
:104EC0001124EB5BFF4D869586958370818B438B18
:104ED0001B869E01255F3F4F41E06FEF70E0C501EB
:104EE000EDDA672B682B692BA9F58AE18A9DF00121
:104EF0008B9DF00D1124EB5BFF4D8089882379F0A9
:104F00008FE18B879E01255F3F4F41E060E870E0B5
:104F1000C501D4DA672B682B692B09F079C19E0192
:104F2000255F3F4F41E065E070E3C501DFDC672BA3
:104F3000682B692B09F453C06CE874E08EEC97E0A1
:104F40000E94881C37E120EA00E010E0FFCE67E312
:104F500074E0F4CF6EE774E043CF9AE19A9DF001DC
:104F60009B9DF00D1124EB5BFF4D91E7978721117D
:104F700021C095E094879FCF92E7F301978796E051
:104F80009487869586958370818B438B222309F4C1
:104F90009FCF1B869E01255F3F4F41E068EE70E08A
:104FA000C5018CDA672B682B692B09F491CF66E772
:104FB00074E016CF99E094879AE19A9DF0019B9D49
:104FC000F00D1124EB5BFF4D869586958370818BE8
:104FD000438BDFCF211122C198E094876CCF8B8562
:104FE000829583709AE19A9DF0019B9DF00D1124AA
:104FF000EB5BFF4D9381890F83831F928F93BF9249
:10500000AF928BE799E29F938F9389EE9AE39F93F8
:105010008F930E943DD0CDBFDEBFA114B10421F417
:10502000809148208093092089EE9AE30E9425060A
:1050300018E01B879E01255F3F4F41E065E870E265
:10504000C5013CDA8AE18A9DF0018B9DF00D1124A7
:10505000EB5BFF4D8089882309F4F9C086E08B87DC
:105060009E01255F3F4F41E063EE73E1C50126DA03
:105070009E01255F3F4F41E064EE73E1C5011EDAFA
:1050800083E48B879E01255F3F4F41E064E070E041
:10509000C50114DA80EE8B879E01255F3F4F41E00A
:1050A0006AEE70E0C5010ADA84E08B879E01255F15
:1050B0003F4F41E064EF70E8C50100DA83E08B8781
:1050C0009E01255F3F4F41E065EF70E8C501F6D9CD
:1050D00080EA8B879E01255F3F4F41E068EF70E8D3
:1050E000C501ECD984E58B879E01255F3F4F41E0E8
:1050F0006FEC73E1C501E2D988EC8B879E01255FD7
:105100003F4F41E06FEE70E0C501D8D987EE8B8745
:105110009E01255F3F4F41E060EF70E0C501CED9B1
:105120001B869E01255F3F4F41E061EF70E0C501A6
:10513000C5D982EE8B879E01255F3F4F41E062EF2C
:1051400070E0C501BBD981EE8B879E01255F3F4F83
:1051500041E063EF70E0C501B1D91B869E01255F78
:105160003F4F41E064EF70E0C501A8D985EE8B8721
:105170009E01255F3F4F41E065EF70E0C5019ED97C
:1051800084EE8B879E01255F3F4F41E066EF70E024
:10519000C50194D91B869E01255F3F4F41E067EF13
:1051A00070E0C5018BD989E899E20E942506BF927B
:1051B000AF928DE899E29F938F9389EE9AE39F9344
:1051C0008F930E943DD089EE9AE30E9425069E01AE
:1051D000255F3F4F41E060E070E0C50187DB0F9045
:1051E0000F900F900F900F900F90672B682B692BEB
:1051F000C1F48B858F7E803CB9F065EE74E08EEC57
:1052000097E00E94881C31E020EA00E010E09ECD8B
:1052100064E874E0E5CD9AE09487CECE9BE0948775
:10522000CBCE64EE74E08ACE85E999E20E94250631
:105230009E01255F3F4F41E060E170E3C50156DB11
:10524000672B682B692BB9F06AEE74E077CE84E2A5
:105250008B879E01255F3F4F41E068EE73E1C501FA
:105260002DD91B879E01255F3F4F41E065E073E12B
:10527000C50124D9F3CE8FE7898388E88A831B820E
:1052800084E48C8389EB8D8388E78E838FE18F8321
:1052900082E0888719869E012F5F3F4F49E067E1D2
:1052A00070E0C5010BD9672B682B692B19F06AEFE9
:1052B00074E096CD8FEF89838A838B838C838D8373
:1052C0008E838F83888789879E012F5F3F4F49E0B8
:1052D0006EE070E0C501F2D8672B682B692B19F0DE
:1052E0006AE075E07DCD8AE18A9DF0018B9DF00D2D
:1052F0001124EB5BFF4D8089882319F18E01065F35
:105300001F4F1A86980141E063E470E0C501D6D8CA
:10531000672B682B692B39F16BED7BE18EEC97E005
:105320000E94881C38E120EA00E010E066E175E0A8
:105330008EEC97E02D873C870E94881C2D853C854C
:1053400005CD88E08A878E01065F1F4F980141E0F6
:1053500065E073E1C501B2D8672B682B692B89F230
:1053600064ED7BE1DBCF87E58A87980141E064E467
:1053700070E0C501A3D8672B682B692B19F060EE8C
:105380007BE1CCCF84EE8A87980141E065E470E050
:10539000C50194D8672B682B692B19F065EE7BE16A
:1053A000BDCF83E08A87980141E066E470E0C501E3
:1053B00085D8672B682B692B19F06AEE7BE1AECF9D
:1053C00085E98A87980141E067E470E0C50176D8F5
:1053D000672B682B692B19F06FEE7BE19FCF88EF6D
:1053E0008A87980141E068E470E0C50167D8672BBF
:1053F000682B692B09F047C08AE18A9DF0018B9DDB
:10540000F00D1124EB5BFF4D808981115DC081E0BF
:105410008A87980141E062E074E1C5014FD86B01D1
:105420007C01672B682B692B09F04BC082E88A87C7
:10543000980141E060E172E1C50140D86B017C0157
:10544000672B682B692B09F052C081E38A8798018A
:1054500041E060E073E1C50131D86B017C01672B4D
:10546000682B692B21F519829E012F5F3F4F41E088
:1054700062E070E0C50122D8672B682B692B31F000
:105480006BE175E0ADCC64EF7BE148CF8FEF8B87AC
:105490009E01255F3F4F41E066E770E0C5010ED8F1
:1054A000672B682B692B31F160E275E099CC62E1E2
:1054B0007CE18EEC97E00E94881C3C2D2D2D87010D
:1054C00035CF6CEF7BE1F5CF81E08A87980141E031
:1054D00062E074E1C5010E945E226B017C01672BD2
:1054E000682B692B09F4B1CF69E07CE1E2CF61E080
:1054F0007CE1DFCF13E019839E012F5F3F4F41E036
:1055000067E770E0C5010E945E22672B682B692B5C
:1055100081F48AE18A9DF0018B9DF00D1124EB5BF3
:10552000FF4D8089882341F030E020E000E010E06A
:105530000DCC65E275E054CC1B879E01255F3F4F83
:1055400041E060E072E1C5010E945E22672B682B9A
:10555000692B19F06CE275E043CC11E01B879E01CA
:10556000255F3F4F41E060EA72E1C5010E945E2283
:10557000672B682B692B19F06FE275E031CC1B8724
:105580009E01255F3F4F41E061EA72E1C5010E9443
:105590005E22672B682B692B19F062E375E020CC43
:1055A0001B879E01255F3F4F41E065EA72E1C5011F
:1055B0000E945E22672B682B692B19F065E375E06A
:1055C0000FCC9E01255F3F4F41E068EF72E1C501BE
:1055D0008DD9672B682B692B19F068E375E0AECC89
:1055E0008B85897F82608B879E01255F3F4F41E0DD
:1055F00068EF72E1C5010E945E22672B682B692B60
:1056000019F06CE375E0ECCB1B869E01255F3F4FE4
:1056100041E060E072E1C5010E945E22672B682BC9
:10562000692B19F060E475E0DBCB1B869E01255FDA
:105630003F4F41E060EA72E1C5010E945E22672BA4
:10564000682B692B19F063E475E0CACB9E01255FD6
:105650003F4F41E068EF72E1C50148D9672B682BE5
:10566000692B19F066E475E069CC8B85897F8B879F
:105670009E01255F3F4F41E068EF72E1C5010E9446
:105680005E22672B682B692B09F44ECF69E475E025
:10569000A7CB823091055CF069E675E08EEC97E06F
:1056A0000E94881C65E070EA80E090E008952AE19D
:1056B000289FF001299FF00D1124EB5BFF4D8081A5
:1056C000882371F010821182128214821582168250
:1056D000178210861186148660E070E0CB01089571
:1056E0006CE675E08EEC97E00E94881C6FE070EA33
:1056F00080E090E0089561157105E9F08230910530
:105700005CF063E975E08EEC97E00E94881C65E030
:1057100070EA80E090E008952AE1289FF001299F37
:10572000F00D1124EB5BFF4D8485FB01808360E06D
:1057300070E0CB01089560E975E08EEC97E00E947F
:10574000881C60E170EA80E090E008953F924F92FB
:105750005F926F927F928F929F92AF92BF92CF9201
:10576000DF92EF92FF920F931F93CF93DF93CDB70A
:10577000DEB72E97CDBFDEBF8C010297FCF061EE45
:1057800075E08EEC97E00E94881C65E070EA80E08E
:1057900090E02E96CDBFDEBFDF91CF911F910F918C
:1057A000FF90EF90DF90CF90BF90AF909F908F9041
:1057B0007F906F905F904F903F9008952AE1209FD7
:1057C000C001219F900D11249C012B5B3F4D69016D
:1057D000790138E0E30EF11C560180E1A80EB11CFE
:1057E0009E01245F3F4F41E06EE070E0C8017ED82B
:1057F0002B013C01672B682B692B09F0DBC28C85E0
:10580000882309F4DAC219821A821B821C821D8243
:105810001E821F821886BE01655F7F4FC801D5D9E1
:105820002B013C01672B682B692B09F0D1C28C85B9
:1058300086FD61C082FDC1C080FD67C181FDADC133
:1058400083FDDEC184FD19C185FF4FC09E012A5F23
:105850003F4F41E064E170E0C80148D82B013C01B2
:10586000672B682B692B09F049C39E012A5F3F4FC4
:1058700041E064E170E0C8010E945E222B013C011E
:10588000672B682B692B09F005C39E01265F3F4FEC
:1058900041E061E270E0C80129D88E81982F9970AB
:1058A00029F09A859F719B3109F4C3C24BE1842E84
:1058B0004AE2942E50E8752E01C08E81872159F05E
:1058C000D701ED91FC91309731F0D4018C91873262
:1058D00011F061E019957694BFEF8B1A9B0AE3E211
:1058E0008E16EAE29E0649F78C85811179CF60E039
:1058F00070E090E04ECF9E01295F3F4F41E065E1AF
:1059000070E0C8010E9476242B013C01672B682BB4
:10591000692B09F07CC29E01295F3F4F41E065E1A0
:1059200070E0C8010E945E222B013C01672B682BAE
:10593000692B09F06FC2D60156968C91813009F41B
:1059400059C18F811F928F9389E999E29F938F9319
:1059500089EE9AE39F938F930E943DD089EE9AE35C
:105960000E94250683E2682E8AE2782E0F900F901F
:105970000F900F900F900F90430190E8592E8F8158
:10598000852189F0D701ED91FC91309761F0D40128
:105990005C91573241F0882D8619863009F4B1C2E6
:1059A00061E0852F19955694BFEF8B1A9B0AEBE2A5
:1059B0008E16EAE29E0619F797CF9E012D5F3F4FA4
:1059C00041E061E170E0C8010E9476242B013C01B6
:1059D000672B682B692B09F020C29E012D5F3F4F7A
:1059E00041E061E170E0C8010E945E222B013C01B0
:1059F000672B682B692B09F013C28B818A87811171
:105A000028C053C19E01265F3F4F41E061E170E035
:105A1000C8010E9476242B013C01672B682B692B5F
:105A200009F080C19E01265F3F4F41E061E170E0D7
:105A3000C8010E94821E2B013C01672B682B692B39
:105A400009F07DC29A858B81892B8B83992309F478
:105A50002CC1BE01655F7F4FC801B7D82B013C0147
:105A6000672B682B692B71F260E976E08EEC97E08A
:105A70000E94881CB201C3018CCE9E012B5F3F4F58
:105A800041E063E170E0C8010E9476242B013C01F3
:105A9000672B682B692B09F01DC29E012B5F3F4FBE
:105AA00041E063E170E0C8010E945E222B013C01ED
:105AB000672B682B692B09F00AC29D8163E1862E52
:105AC0006AE2962E70E8772E872D892361F0D70140
:105AD000ED91FC91309739F0D4018C91873219F017
:105AE00061E019959D817694BFEF8B1A9B0AEBE1DB
:105AF0008E16EAE29E0641F7977009F4F5CE81E032
:105B0000D60159968C938C85F0CE9E012F5F3F4F26
:105B100041E06FE070E0C8010E9476242B013C0157
:105B2000672B682B692B09F081C19E012F5F3F4FC6
:105B300041E06FE070E0C8010E945E222B013C0151
:105B4000672B682B692B09F06EC1D60156968C9194
:105B5000813009F429C1898183FDF9C0A3EF8A2E20
:105B6000A9E29A2EB0E87B2E01C08981872159F0E5
:105B7000D701ED91FC91309731F0D4018C918732AF
:105B800011F061E019957694BFEF8B1A9B0AEBEF49
:105B90008E16E9E29E0649F7A7CE9E012E5F3F4F83
:105BA00041E060E170E0C8010E9476242B013C01D5
:105BB000672B682B692B09F06AC19E012E5F3F4F4E
:105BC00041E060E170E0C8010E945E222B013C01CF
:105BD000672B682B692B09F057C1D60156968C911B
:105BE000813009F081CE8A8187FF7ECEF601168A48
:105BF0008C857BCE8F8187FFA5CEF601168AA2CE3B
:105C00009E012C5F3F4F41E062E170E0C8010E94BD
:105C100076242B013C01672B682B692B09F031C1DD
:105C20009E012C5F3F4F41E062E170E0C8010E949D
:105C30005E222B013C01672B682B692B09F01EC1EA
:105C40008C811F928F9386EB99E29F938F9389EEBD
:105C50009AE39F938F930E943DD089EE9AE30E942E
:105C60002506ECE08E2EEAE29E2E0F900F900F900C
:105C70000F900F900F90F0E47F2E8C81872159F0C8
:105C8000D701ED91FC91309731F0D4018C9187329E
:105C900011F061E019957694BFEF8B1A9B0AE3E14E
:105CA0008E16EAE29E0649F71FCE93E0892E9AE20D
:105CB000992E20E8722E33E0632E872139F1D70127
:105CC000ED91FC91309711F1D4018C918732F1F074
:105CD0009B85863109F47FC0873139F5809159352C
:105CE000892780FF13C0B92FB1705B2E90FD05C0CE
:105CF000D5018C91882309F4D0C0652D87E11995D1
:105D0000809159358E7F582A509259357694BFEF3D
:105D10008B1A9B0AEBE08E16EAE29E0609F4E4CDAC
:105D20008B81CBCF62E976E0A1CE39E020EA00E0BA
:105D300010E06EEA76E08EEC97E02E873D870E94B9
:105D4000881C3D85632F2E85722FC80122CD9E01B0
:105D5000265F3F4F41E06CE070E0C8010E9476246E
:105D60008A8580638A879E01265F3F4F41E06CE011
:105D700070E0C8010E945E228A858F7C8A879E011E
:105D8000265F3F4F41E06CE070E0C8010E945E2258
:105D900082EA99E20E940DD0D60158961C9258973B
:105DA00059961C928981DACE898187FFD5CEF6017A
:105DB000168AD2CE65E276E059CE6BE276E08EECC2
:105DC00097E00E94881C60E070E080E090E0E1CC09
:105DD00064E476E04BCE80915935892781FF96CFD8
:105DE000B92FB2705B2E91FB442440F891FD05C0A1
:105DF000D5018C91882309F470C0642D86E1199532
:105E0000809159358D7F582A509259357FCF6DE456
:105E100076E02CCE60E576E029CE67E876E026CE07
:105E20006AE876E023CE6FEB76E020CE6CEB76E08E
:105E30001DCE9E01265F3F4F41E06CE070E0C8013F
:105E40000E9476248A8580638A879E01265F3F4F61
:105E500041E06CE070E0C8010E945E228A858F7C80
:105E60008A879E01265F3F4F41E06CE070E0C801E9
:105E70000E945E228E818B7F8E8318CD64E477E052
:105E8000F5CD61E477E0F2CD65E077E0EFCD62E05B
:105E900077E0ECCD6FE877E0E9CD69869E01275F7A
:105EA0003F4F41E060E072E1C8010E945E22672B33
:105EB000682B692B09F446C060EA7CE18EEC97E020
:105EC0000E94881C38E120EA00E010E032CF69E649
:105ED00077E0CCCD66E677E0C9CD69869E01275F85
:105EE0003F4F41E060E072E1C8010E945E22672BF3
:105EF000682B692BC9F162ED7CE1E0CF6CE877E0BB
:105F0000B5CD9E01265F3F4F41E067E170E0C801DB
:105F10005D870E9476248A858F7C8A879E01265F12
:105F20003F4F41E067E170E0C8010E945E228C852E
:105F30008F7C8C87D701ED91FC915D8531CD64E933
:105F400076E094CD81E089879E01275F3F4F41E055
:105F500060EA72E1C8010E945E22672B682B692B00
:105F6000B1F063EA7CE1AACF3324339439869E01F1
:105F7000275F3F4F41E060EA72E1C8010E945E2264
:105F8000672B682B692BB1F065ED7CE197CF44243A
:105F9000439449869E01275F3F4F41E061EA72E1E9
:105FA000C8010E945E22672B682B692BA1F066EA6C
:105FB0007CE184CF39869E01275F3F4F41E061EA53
:105FC00072E1C8010E945E22672B682B692BA1F049
:105FD00068ED7CE173CF49869E01275F3F4F41E02A
:105FE00065EA72E1C8010E945E22672B682B692B6B
:105FF000A9F069EA7CE162CF81E089879E01275F91
:106000003F4F41E065EA72E1C8010E945E22672BC2
:10601000682B692BD9F06BED7CE150CF9E01275F97
:106020003F4F41E068EF72E1C8010E947624672B80
:10603000682B692BD9F06CEA7CE18EEC97E00E942A
:10604000881C37E120EA00E010E073CE9E01275F54
:106050003F4F41E068EF72E1C8010E947624672B50
:10606000682B692BB9F06EED7CE1E7CF8985897FDC
:10607000826089879E01275F3F4F41E068EF72E1B0
:10608000C8010E945E22672B682B692BB9F060EB78
:106090007CE114CF8985897F826089879E01275F93
:1060A0003F4F41E068EF72E1C8010E945E22672B1A
:1060B000682B692BA1F062EE7CE100CF19869E016E
:1060C000275F3F4F41E060E072E1C8010E945E221D
:1060D000672B682B692BA1F064EB7CE1EFCE19866E
:1060E0009E01275F3F4F41E060E072E1C8010E94DE
:1060F0005E22672B682B692BA1F066EE7CE1DECE79
:1061000019869E01275F3F4F41E060EA72E1C801B6
:106110000E945E22672B682B692BA1F067EB7CE164
:10612000CDCE19869E01275F3F4F41E060EA72E1C4
:10613000C8010E945E22672B682B692B99F069EEDB
:106140007CE1BCCE9E01275F3F4F41E068EF72E1EA
:10615000C8010E947624672B682B692B99F06AEBA3
:106160007CE16BCF9E01275F3F4F41E068EF72E11A
:10617000C8010E947624672B682B692BB9F06CEE5E
:106180007CE15BCF8985897F89879E01275F3F4FAF
:1061900041E068EF72E1C8010E945E22672B682B24
:1061A000692BC1F4D701ED91FC91A7CD8985897F39
:1061B00089879E01275F3F4F41E068EF72E1C80188
:1061C0000E945E22672B682B692B39F4D701ED9171
:1061D000FC9113CE6DEB7CE171CE6FEE7CE16ECE67
:1061E0008F929F92AF92BF92CF92DF92EF92FF92E7
:1061F0000F931F93CF93DF9300D0CDB7DEB78C0101
:10620000562F82309105ECF064EE77E08EEC97E04B
:106210000E94881C35E020EA00E010E0632F722F16
:10622000C8012396CDBFDEBFDF91CF911F910F91A3
:10623000FF90EF90DF90CF90BF90AF909F908F90A6
:1062400008959E012F5F3F4F41E069E470E05A835B
:106250000E9476246B017C015A81672B682B692B85
:1062600009F0A6C09981892F847092FF05C091FD25
:1062700003C09B7F998380E090E07C01F694E794D3
:10628000F694E7949E012F5F3F4F41E06EE470E08B
:10629000C8015A830E9476244B015C015A81672B06
:1062A000682B692B09F098C08981982F947082FF20
:1062B00005C081FD03C08B7F898390E0892F90E02A
:1062C00096958795FE2CF82A9E012F5F3F4F41E05F
:1062D00061E270E0C8015A830E9476244B015C01A0
:1062E0005A81672B682B692B09F084C089818F71D3
:1062F0008B3109F47BC08AE1809FD001819FB00D72
:106300001124AB5BBF4D1896ED91FC911997309716
:10631000A1F15831B8F15B31E9F1513209F444C0CF
:106320005831E1F139E020EA00E010E077CF8091C8
:1063300059358F25573109F060C080FF1EC08F2D61
:106340008170E82EF0FC05C050968C91882309F4EA
:1063500077C08AE1809FF001819FF00D1124EB5BF3
:10636000FF4D0084F185E02D6E2D87E11995809118
:1063700059358E7F8E298093593530E020E000E03A
:1063800010E04CCF563198F65B3061F661E08BE05F
:106390001995F3CF61E08BE11995EFCFF4FA6627F9
:1063A00060F988E11995E9CF61E081E21995E5CFBF
:1063B00066E47CE18EEC97E00E94881C3C2D2D2D3C
:1063C000870160EF77E08EEC97E02B833A830E94A1
:1063D000881C2B813A8122CF62E57CE18EEC97E02C
:1063E0000E94881C382D292D8501EBCF8F2D8061CF
:1063F000F82E81CF61E67CE1F1CF81FFBECF8F2DFA
:106400008270E82EF1FADD24D0F8F1FC04C0509639
:106410008C918823C9F18AE1809FF001819FF00D62
:106420001124EB5BFF4D0084F185E02D6D2D86E19D
:106430001995809159358D7F8E29809359359DCF3F
:1064400083E089839E012F5F3F4F41E060E072E16E
:10645000C8010E945E22672B682B692B39F160EA24
:106460007CE18EEC97E00E94881C38E120EA00E095
:1064700010E061E078E08EEC97E02B833A830E9495
:10648000881C3A812B81CACE83E089839E012F5FCD
:106490003F4F41E060E072E1C8010E945E22672B3D
:1064A000682B692BB1F062ED7CE1DBCFFF24F39424
:1064B000F9829E012F5F3F4F41E060EA72E1C8011F
:1064C0000E945E22672B682B692BB1F063EA7CE1A6
:1064D000C8CFFF24F394F9829E012F5F3F4F41E024
:1064E00060EA72E1C8010E945E22672B682B692B6B
:1064F000A1F065ED7CE1B5CFF9829E012F5F3F4FA2
:1065000041E061EA72E1C8010E945E22672B682BBC
:10651000692BA1F066EA7CE1A4CFF9829E012F5F8E
:106520003F4F41E061EA72E1C8010E945E22672BA1
:10653000682B692BA9F068ED7CE193CF81E089831A
:106540009E012F5F3F4F41E065EA72E1C8010E9462
:106550005E22672B682B692BA9F069EA7CE181CF69
:1065600081E089839E012F5F3F4F41E065EA72E140
:10657000C8010E945E22672B682B692BD9F06BED56
:106580007CE16FCF9E012F5F3F4F41E068EF72E1EA
:10659000C8010E947624672B682B692BD9F06CEA1E
:1065A0007CE18EEC97E00E94881C37E120EA00E055
:1065B00010E05FCF9E012F5F3F4F41E068EF72E137
:1065C000C8010E947624672B682B692BB9F06EED09
:1065D0007CE1E7CF9981997F926099839E012F5F3B
:1065E0003F4F41E068EF72E1C8010E945E22672BD5
:1065F000682B692BB9F060EB7CE133CF9981997FEF
:10660000926099839E012F5F3F4F41E068EF72E1F6
:10661000C8010E945E22672B682B692BA1F062EEF5
:106620007CE11FCF19829E012F5F3F4F41E060E068
:1066300072E1C8010E945E22672B682B692BA1F0D2
:1066400064EB7CE10ECF19829E012F5F3F4F41E04A
:1066500060E072E1C8010E945E22672B682B692B03
:10666000A1F066EE7CE1FDCE19829E012F5F3F4FC7
:1066700041E060EA72E1C8010E945E22672B682B4C
:10668000692BA1F067EB7CE1ECCE19829E012F5FB4
:106690003F4F41E060EA72E1C8010E945E22672B31
:1066A000682B692B99F069EE7CE1DBCE9E012F5FB0
:1066B0003F4F41E068EF72E1C8010E947624672BEA
:1066C000682B692B99F06AEB7CE16BCF9E012F5F01
:1066D0003F4F41E068EF72E1C8010E947624672BCA
:1066E000682B692BB9F06CEE7CE15BCF9981997FC7
:1066F00099839E012F5F3F4F41E068EF72E1C8012F
:106700000E945E22672B682B692B09F422CE6DEB69
:106710007CE1A7CE9981997F99839E012F5F3F4F9E
:1067200041E068EF72E1C8010E945E22672B682B8E
:10673000692B09F470CE6FEE7CE193CE8F929F921D
:10674000AF92BF92CF92DF92EF92FF920F931F937F
:10675000CF93DF93CDB7DEB72597CDBFDEBF8C01DA
:106760000297ECF06AE578E08EEC97E00E94881CD6
:1067700035E020EA00E010E0632F722FC801259673
:10678000CDBFDEBFDF91CF911F910F91FF90EF90B2
:10679000DF90CF90BF90AF909F908F9008958091A1
:1067A0005835982F937041F08F5F8093583530E0C3
:1067B00020E000E010E0E0CF9E012E5F3F4F41E07F
:1067C00060E071E0C8010E947624672B682B692B7A
:1067D00009F0B5C08A818C778A839AE1909FF00195
:1067E000919FF00D1124EB5BFF4D908D982709F4DC
:1067F000CBC092FFCEC0CE0101966C019C0141E05E
:1068000060E071E0C8010E9476244B015C01672BB7
:10681000682B692B09F027C1898182FF10C186E0AE
:106820008983960141E062E074E1C8010E945E2222
:106830004B015C01672B682B692B09F002C18A812F
:106840009AE1909FF001919FF00D1124EB5BFF4DB9
:10685000808F0084F185E02D61E08BE019958AE15D
:10686000809FF001819FF00D1124EB5BFF4D878924
:10687000882309F455C0960141E066E274E1C8013D
:106880000E947624672B682B692B09F06DC08981E3
:106890008E7090E096958795982F89838AE1809FE6
:1068A0009001819F300D1124D901AB5BBF4D7D015B
:1068B00055968C918917A9F09E012E5F3F4F41E0BC
:1068C00061E270E0C8010E9476244B015C01672BF5
:1068D000682B692B09F076C08A818F718B3109F49E
:1068E0007BC09E012D5F3F4F41E060E072E0C80138
:1068F0000E947624672B682B692B09F44FC06DE545
:106900007DE18EEC97E00E94881C66E678E08EECD4
:1069100097E00E94881C37E120EA00E010E02CCFCD
:10692000960141E069E071E0C8010E947624672B7E
:10693000682B692B31F5998197709983AFCF6AE8FD
:106940007DE18EEC97E00E94881C37E120EA00E0B0
:1069500010E060E678E08EEC97E02D833C830E94A7
:10696000881C2D813C8108CF62E27DE18EEC97E0AE
:106970000E94881C37E120EA00E010E063E678E03E
:10698000EACF69E27DE1F2CF9E012F5F3F4F6901BF
:1069900066CFAE014F5F5F4F6A0152CF9E012E5FFF
:1069A0003F4F41E060E272E0C8010E947624672B0D
:1069B000682B692BD9F06FE57DE18EEC97E00E94A2
:1069C000881CA3CF62E37DE18EEC97E00E94881CD7
:1069D000382D292D8501D2CF8981F701858B00843F
:1069E000F185E02D61E082E219957BCF960141E0CF
:1069F00060E472E0C8010E947624672B682B692B43
:106A0000B9F48AE1809FF001819FF00D1124EB5BC6
:106A1000FF4D818D882349F08B818B3030F08A8146
:106A20008B3018F089818B3008F580915835BCCEB9
:106A300061E67DE18EEC97E00E94881C66CF87E0DE
:106A4000EFCE69EC7DE18EEC97E00E94881C850119
:106A500067E97DE18EEC97E09D828C820E94881C24
:106A60003C812D8176CF64EC7DE1EDCF118E0084E9
:106A7000F185E02D60E082E11995D7CF2F923F920A
:106A80004F925F926F927F928F929F92AF92BF923E
:106A9000CF92DF92EF92FF920F931F93CF93DF93EA
:106AA000CDB7DEB72897CDBFDEBF3C01162F442EF1
:106AB0008230910504F162E978E08EEC97E00E9463
:106AC000881C65E070EA80E090E02896CDBFDEBFCC
:106AD000DF91CF911F910F91FF90EF90DF90CF90BA
:106AE000BF90AF909F908F907F906F905F904F90EE
:106AF0003F902F9008959E012F5F3F4F48E068E13F
:106B000070E00E9476246B017C01672B682B692B57
:106B100009F0AEC10AEF202E09E2302EFE013196B7
:106B200089EFC82E89E2D82E98EFE92E99E2F92E46
:106B300067EF79E246EF59E225EF39E2A4EF8A2EBA
:106B4000A9E29A2E80E090E0512C3BC0D401BC9089
:106B5000B11609F4C7C0D901BC90B11609F44CC0F4
:106B6000DA01BC90B11609F4D7C0DB01BC90B116B4
:106B700009F45DC0D701BC90B11609F49CC0D601E0
:106B8000BC90B11609F46DC0D101BC90B11609F4E6
:106B90007FC00196B8E02B0E311C319608E0C00E84
:106BA000D11CA8E0EA0EF11C685F7F4F485F5F4F81
:106BB000285F3F4FB8E08B0E911C8830910509F497
:106BC00036C15101A7E0AA1AB108D501BC90B11293
:106BD000BDCF5080B52D442009F4B5C0B0685B2E00
:106BE000B083D401BC90B11609F47FC055245394EE
:106BF000D901BC90B112B4CF5080442009F4BAC07E
:106C0000B52DB0625B2EAA24A394B12CAC0EBD1E90
:106C1000A80EB91ED5015C92DA01BC90B11609F438
:106C20007EC055245394DB01BC90B112A3CF508099
:106C3000442009F4BFC0B52DB8605B2EAA24A394EC
:106C4000B12CAC0EBD1EA80EB91ED5015C92D701A9
:106C5000BC90B116A1F155245394D601BC90B11249
:106C600093CF5080442009F4C5C0B52DB2605B2E8F
:106C7000AA24A394B12CAC0EBD1EA80EB91ED5013A
:106C80005C92D101BC90B11639F05524539481CF58
:106C90005080442009F4BEC0AA24A394B12CAC0EA9
:106CA000BD1EA80EB91EB52DB1605B2ED5015C923C
:106CB000552453946ECF5080442009F48BC0B52DD9
:106CC000B4605B2EAA24A394B12CAC0EBD1EA80EFA
:106CD000B91ED5015C92D601BC90B11631F2552493
:106CE000539452CF50804420A9F1B52DB0645B2E4F
:106CF000AA24A394B12CAC0EBD1EA80EB91ED501BA
:106D00005C92D901BC90B11609F47ACF5524539402
:106D1000DA01BC90B11229CF50804420D9F1B52DB1
:106D2000B0615B2EAA24A394B12CAC0EBD1EA80E9C
:106D3000B91ED5015C92DB01BC90B11609F47BCF82
:106D40005524539417CFBF775B2EB083D401BC90EA
:106D5000B1124CCFB52DBF7B5B2EAA24A394B12CCE
:106D6000AC0EBD1EA80EB91ED5015C92D901BC9017
:106D7000B112CCCFB52DBF7D5B2EAA24A394B12C2C
:106D8000AC0EBD1EA80EB91ED5015C92DA01BC90F6
:106D9000B11247CFB52DBF7E5B2EAA24A394B12C90
:106DA000AC0EBD1EA80EB91ED5015C92DB01BC90D5
:106DB000B112C6CFB52DB77F5B2EAA24A394B12CF8
:106DC000AC0EBD1EA80EB91ED5015C92D701BC90B9
:106DD000B11241CFB52DBB7F5B2EAA24A394B12C59
:106DE000AC0EBD1EA80EB91ED5015C92D601BC909A
:106DF000B11275CFB52DBD7F5B2EAA24A394B12C03
:106E0000AC0EBD1EA80EB91ED5015C92D101BC907E
:106E1000B1123BCFAA24A394B12CAC0EBD1EA80E78
:106E2000B91EB52DBE7F5B2ED5015C922ECF5110C1
:106E30000BC064EB78E08EEC97E00E94881C69E060
:106E400070EA80E090E041CE9E012F5F3F4F48E026
:106E500068E170E0C3010E945E226B017C01672B38
:106E6000682B692B71F460E070E080E090E02DCE3B
:106E700068E978E08EEC97E00E94881CB601C701B3
:106E800024CE68EB78E0F6CFAF92FF920F931F937A
:106E9000CF93DF931F92CDB7DEB78C01029794F0AA
:106EA0006EEE78E08EEC97E00E94881C65E070EA58
:106EB00080E090E00F90DF91CF911F910F91FF90B4
:106EC000AF9008958AE1809FF001819FF00D112419
:106ED000EB5BFF4D8485853009F451C0893009F49E
:106EE0004EC09AEF980F923008F45DC096EF980F5D
:106EF000923008F458C0883009F455C0283009F49D
:106F000058C0211158C0FF24F3949E012F5F3F4FBA
:106F100041E061E070E0C8010E947624672B682B95
:106F2000692B09F04AC08AE1809FF001819FF00D32
:106F30001124EB5BFF4D848599EF980F923008F494
:106F400047C08A50823008F443C0898188772F2D4A
:106F50002170A11040C02068822B89839E012F5F81
:106F60003F4F41E061E070E0C8010E945E22672B64
:106F7000682B692B99F560E070E0CB019BCF28303E
:106F8000C1F067EF78E08EEC97E00E94881C63E127
:106F900070EA80E090E00F90DF91CF911F910F9108
:106FA000FF90AF900895283161F32C3009F0A6CFFF
:106FB000E8CFF12CAACFF22EA8CF67E079E08EECD3
:106FC00097E00E94881C67E170EA80E090E072CF51
:106FD00089818A77BCCF822B8983C0CF64E279E034
:106FE0008EEC97E00E94881C68E170EA80E090E0F7
:106FF00061CFEF92FF920F931F93CF93DF93CDB7A3
:10700000DEB72897CDBFDEBF8C01542F0297A4F0C6
:1070100065E979E08EEC97E00E94881C65E070EAF3
:1070200080E090E02896CDBFDEBFDF91CF911F9129
:107030000F91FF90EF9008954830C0F4611101C0A6
:1070400050E080915A358823E1F06EE473E08EECD5
:1070500097E00E94881C6FE979E08EEC97E00E942F
:10706000881C67E170EA80E090E0DCCF68E979E0B5
:107070008EEC97E00E94881C69E070EA80E090E066
:10708000D1CF81E080935A358AE1809FF001819FC2
:10709000F00D1124EB5BFF4D8181882381F01E826E
:1070A0009E012A5F3F4F41E06FEF70E0C8015887B3
:1070B0000E9468205885672B682B692BD1F58AE1DF
:1070C000809FF001819FF00D1124EB5BFF4D8281C9
:1070D00089838BEE8A8381E08B837E0127E0E20E39
:1070E000F11CEC82FD820680F781E02DCE01019635
:1070F00058871995588510925A35672B682B692B3C
:1071000009F0A9CF20E1529FC00111245F815F786F
:10711000582B5F83970141E06BEE70E0C8010E943D
:107120005E22672B682B692B59F460E070E0CB017D
:1071300079CF88E699E20E94250610925A358BCFC6
:1071400066EA79E08EEC97E00E94881C68E170EABC
:1071500080E090E067CFEF92FF920F931F93CF9361
:10716000DF93CDB7DEB72A97CDBFDEBF8C01F62EF9
:10717000542FE22E0297A4F06FEC79E08EEC97E0AA
:107180000E94881C65E070EA80E090E02A96CDBFFE
:10719000DEBFDF91CF911F910F91FF90EF90089587
:1071A00080915A35882389F06EE473E08EEC97E085
:1071B0000E94881C63ED79E08EEC97E00E94881CA9
:1071C00067E170EA80E090E0E1CF81E080935A359A
:1071D0008AE1809FF001819FF00D1124EB5BFF4D50
:1071E0008181882389F01E829E012A5F3F4F41E002
:1071F0006FEF70E0C8015A870E9468205A85672B9C
:10720000682B692B09F051C08AE1809FF001819FB2
:10721000F00D1124EB5BFF4D828189838BEE8A8315
:1072200081E08B839E01295F3F4F2C833D83068045
:10723000F781E02DCE010196288739875A87199565
:10724000288539855A8510925A35672B682B692B0A
:1072500009F0B0CFE11030C0523009F440C0E0F185
:107260005630D1F18F815730A1F1553091F18B7F9C
:10727000F294F69497E0F922F82AFF8241E06BEE4F
:1072800070E0C8010E94821E61157105810591059B
:1072900009F47CCF64E07AE08EEC97E00E94881CD1
:1072A00068E170EA80E090E071CF88E699E20E94A0
:1072B000250610925A357ECF523071F08F815230B0
:1072C00040F0563031F0573011F0553081F6836080
:1072D000CECF8C7F8260CBCF8F818C7FC8CF8F81C8
:1072E0008C7F8160C4CF8F929F92AF92BF92CF92DA
:1072F000DF92EF92FF920F931F93CF93DF93CDB75F
:10730000DEB76B97CDBFDEBF4C017B016A0159012F
:10731000672B09F440C0452B09F448C0232B09F41E
:1073200050C00115110509F457C082E08816910478
:10733000D4F069E37AE08EEC97E00E94881C65E067
:1073400070EA80E090E06B96CDBFDEBFDF91CF9119
:107350001F910F91FF90EF90DF90CF90BF90AF9073
:107360009F908F9008959E012B5E3F4F47E062E211
:1073700070E0C4010E947624672B682B692BB9F159
:107380006EE37AE08EEC97E00E94881C67E170EA79
:1073900080E090E0D8CF63E37AE08EEC97E00E9443
:1073A000881C60E170EA80E090E0CDCF64E37AE091
:1073B0008EEC97E00E94881C60E170EA80E090E02B
:1073C000C2CF65E37AE08EEC97E00E94881C60E112
:1073D00070EA80E090E0B7CF66E37AE08EEC97E069
:1073E0000E94881C60E170EA80E090E0ACCF2D89BB
:1073F0008E8990E0A0E0B0E0BA2FA92F982F8827BF
:107400003F89832B322F3F73A32BF7018083918316
:10741000A283B383488D842F8F7090E0982F8827A4
:10742000398D832BF601808391833A8D832F83706E
:1074300090E0982F88275B8D852BF50180839183C1
:107440002078F801218340784283307830839E0190
:107450002F5F3F4F44E169E270E0C4010E9476244F
:10746000672B682B692B09F051C089818F7390E0DD
:10747000982F88272A81822BF801838394838B811C
:107480008F7390E0982F88272C81822B8583968399
:107490008D818F7390E0982F88272E81822B878390
:1074A00090878F818F7390E0982F88272885822B73
:1074B0008187928789858F7390E0982F88272A8506
:1074C000822B838794878B858F7390E0982F8827F2
:1074D0002C85822B858796878D858F7390E0982FDA
:1074E00088272E85822B8787908B8F85818B888933
:1074F000828B8989838B8A89848B8B89858B8C8904
:107500008170868B60E070E0CB011DCF66E67AE08B
:107510008EEC97E00E94881C67E170EA80E090E0C2
:1075200012CFDF92EF92FF920F931F93CF93DF93CF
:10753000CDB7DEB76F97CDBFDEBF7C01D62E8A01F7
:107540000297ACF061EC7AE08EEC97E00E94881C28
:1075500065E070EA80E090E06F96CDBFDEBFDF911E
:10756000CF911F910F91FF90EF90DF90089584E0ED
:10757000681709F4E5C04115510509F4F9C0FA018D
:1075800080819181905F8115904208F07AC0FA0164
:1075900082819381905F8115904208F072C0FA0158
:1075A00084819581905F8115904208F06AC0FA014C
:1075B000808D918D905F8115904208F062C0FA0134
:1075C000828D938D905F8115904208F05AC0FA0128
:1075D000848D958D905F8115904208F052C0F8011E
:1075E00086819781905C97FD41C0F80180859185E7
:1075F000905C97FD3BC082859385905C97FD36C07B
:1076000084859585905C97FD31C086859785905CD3
:1076100097FD2CC080899189905C97FD27C0828955
:107620009389905C97FD22C084899589905C97FD31
:107630001DC086899789905C97FD18C09E012F5FB9
:107640003F4F41E060E870E0C7010E947624672B5D
:10765000682B692B09F169EE7AE08EEC97E00E94C5
:10766000881C67E170EA80E090E076CF64EE7AE013
:107670008EEC97E00E94881C69E070EA80E090E060
:107680006BCF6BED7AE08EEC97E00E94881C69E08E
:1076900070EA80E090E060CFD694D69489818E7FA6
:1076A000D82AD982F801808191819A838B83828143
:1076B00093819C838D83848195819E838F83868132
:1076C000978198878987808591859A878B8782851E
:1076D00093859C878D87848595859E878F878685F2
:1076E0009785988B898B808991899A8B8B8B8289DE
:1076F00093899C8B8D8B848995899E8B8F8B8689B2
:107700009789988F898F808D918D9A8F8B8F828D9D
:10771000938D9C8F8D8F848D958D9E8F8F8F9E01E5
:107720002F5F3F4F4FE160E870E0C7010E945E228B
:10773000672B682B692B39F560E070E0CB010CCF2B
:107740009E012F5F3F4F41E060E870E0C7010E945B
:107750007624672B682B692B09F167EC7AE08EECB5
:1077600097E00E94881C67E170EA80E090E0F4CE28
:1077700063ED7AE08EEC97E00E94881C60E170EA8D
:1077800080E090E0E9CE6DE27BE08EEC97E00E9435
:10779000881C68E170EA80E090E0DECE898181603B
:1077A00089839E012F5F3F4F41E060E870E0C70191
:1077B0000E945E22672B682B692B09F4BDCF6EEC0B
:1077C0007AE08EEC97E00E94881C68E170EA80E025
:1077D00090E0C2CE0F931F93CF93DF93CDB7DEB768
:1077E0002897CDBFDEBF8230910594F064E57BE041
:1077F0008EEC97E00E94881C65E070EA80E090E0E3
:107800002896CDBFDEBFDF91CF911F910F910895D4
:10781000AAE1A89FF001A99FF00D1124EB5BFF4D99
:10782000E089E11102C06D5F7F4F6115E0E47E07E2
:1078300030F5FB01EE27FF73F9836A83411560E49D
:10784000560740F5BA0166277F737B834C83211569
:10785000E0E43E0750F5A90144275F735D832E8362
:10786000011520E4120760F168E672E28EEC97E001
:107870000E94881C69E070EA80E090E0C1CF69E571
:1078800072E28EEC97E00E94881C69E070EA80E06A
:1078900090E0B6CF6EE572E28EEC97E00E94881C15
:1078A00069E070EA80E090E0ABCF63E672E28EECD4
:1078B00097E00E94881C69E070EA80E090E0A0CF29
:1078C000980122273F733F8308879E012F5F3F4F18
:1078D00048E062EA70E00E945E22672B682B692B09
:1078E00021F460E070E0CB018BCF6EE672E28EECAB
:1078F00097E00E94881C68E170EA80E090E080CF09
:107900008F929F92BF92CF92DF92EF92FF920F934E
:107910001F93CF93DF93CDB7DEB72797CDBFDEBFE1
:107920006C01162FF42EB22E82E0C816D104CCF0D2
:1079300066E87BE08EEC97E00E94881C65E070EAC8
:1079400080E090E02796CDBFDEBFDF91CF911F9101
:107950000F91FF90EF90DF90CF90BF909F908F900E
:10796000089580915A35882389F06EE473E08EEC97
:1079700097E00E94881C6AE87BE08EEC97E00E940A
:10798000881C67E170EA80E090E0DCCF81E08093C2
:107990005A358AE18C9DF0018D9DF00D1124EB5B31
:1079A000FF4D8181882371F01E829E012A5F3F4F27
:1079B00041E06FEF70E0C6010E946820672B682BE2
:1079C000692BC1F58AE18C9DF0018D9DF00D11248C
:1079D000EB5BFF4D8281898380EA8A8381E08B8320
:1079E0004E0187E0880E911C8C829D820680F78173
:1079F000E02DCE010196199510925A35672B682B10
:107A0000692B09F0B8CF8F818170E82A0E29B02A3E
:107A1000FB281F291F83940141E060EA70E0C60142
:107A20000E945E22672B682B692B59F460E070E09E
:107A3000CB0188CF88E699E20E94250610925A353C
:107A40009ACF62E97BE08EEC97E00E94881C68E1A7
:107A500070EA80E090E076CFCF93DF9300D01F9262
:107A6000CDB7DEB78230910584F06EE07CE08EEC1D
:107A700097E00E94881C65E070EA80E090E0249620
:107A8000CDBFDEBFDF91CF910895611520E472076D
:107A9000A0F4411520E4520700F164E17CE08EEC93
:107AA00097E00E94881C69E070EA80E090E02496EC
:107AB000CDBFDEBFDF91CF91089561E17CE08EEC18
:107AC00097E00E94881C69E070EA80E090E02496CC
:107AD000CDBFDEBFDF91CF91089579836A835B8349
:107AE0004C839E012F5F3F4F44E06AEC70E00E94A0
:107AF0005E22672B682B692B21F460E070E0CB01DC
:107B0000BECF68E27CE08EEC97E00E94881C68E1C2
:107B100070EA80E090E0B3CF8F929F92AF92BF92D5
:107B2000CF92DF92EF92FF920F931F93CF93DF9349
:107B3000CDB7DEB72597CDBFDEBF6B015A01490136
:107B4000672B09F466C0452B09F46EC0232B09F49A
:107B500076C00115110509F47DC0E114F10409F4A2
:107B600084C082309105D4F06FE57CE08EEC97E024
:107B70000E94881C65E070EA80E090E02596CDBF09
:107B8000DEBFDF91CF911F910F91FF90EF90DF90BB
:107B9000CF90BF90AF909F908F9008959E012F5FE0
:107BA0003F4F45E06EEC70E00E947624672B682B17
:107BB000692B09F065C08D81982F9078F60190832C
:107BC000982F9074F50190838072F40180838981ED
:107BD0008F7390E0982F88272A81822BF801808369
:107BE00091838B818F7390E0982F88272C81822B33
:107BF000F7018083918321E0F8014081518184174E
:107C0000950708F020E02093953560E070E0CB0107
:107C1000B5CF68E57CE08EEC97E00E94881C60E1BF
:107C200070EA80E090E0AACF69E57CE08EEC97E016
:107C30000E94881C60E170EA80E090E09FCF6AE5D6
:107C40007CE08EEC97E00E94881C60E170EA80E0A6
:107C500090E094CF6BE57CE08EEC97E00E94881C6E
:107C600060E170EA80E090E089CF6CE57CE08EEC2A
:107C700097E00E94881C60E170EA80E090E07ECF8F
:107C800063E67CE08EEC97E00E94881C67E170EA76
:107C900080E090E073CFCF92DF92FF920F931F931B
:107CA000CF93DF931F921F92CDB7DEB78C01562F73
:107CB000F42E0297A4F062E97CE08EEC97E00E943B
:107CC000881C65E070EA80E090E00F900F90DF91F3
:107CD000CF911F910F91FF90DF90CF900895603169
:107CE00028F52FE0241708F444C0CE0101966C015A
:107CF000643038F183E0841720F5960141E06CEEA2
:107D000070E0C8015A830E9476245A81672B682B41
:107D1000692B09F455C069EA7CE08EEC97E00E947B
:107D2000881C67E170EA80E090E0CFCF65E97CE0F5
:107D30008EEC97E00E94881C69E070EA80E090E099
:107D4000C4CF960141E060E870E0C8015A830E9408
:107D500076245A81672B682B692BB1F06EE97CE0A1
:107D60008EEC97E00E94881C68E170EA80E090E069
:107D7000ACCF68E97CE08EEC97E00E94881C69E05B
:107D800070EA80E090E0A1CF89818F7D89839601A0
:107D900041E060E870E0C8015A830E945E225A8187
:107DA000672B682B692B09F4A8CF63EA7CE08EEC83
:107DB00097E00E94881C68E170EA80E090E085CF3F
:107DC00020E1F29EC001112499819F70892B898343
:107DD000960141E06CEE70E0C8015A830E945E2279
:107DE0005A81672B682B692B59F060EB7CE08EEC95
:107DF00097E00E94881C68E170EA80E090E065CF1F
:107E0000960141E06DEE70E0C8015A830E9476242D
:107E10005A81672B682B692B59F064EB7CE08EEC60
:107E200097E00E94881C67E170EA80E090E04DCF07
:107E300020E1529FC001112499819F70892B898371
:107E4000960141E06DEE70E0C8010E945E22672B52
:107E5000682B692B21F460E070E0CB0136CF6BEB2F
:107E60007CE08EEC97E00E94881C68E170EA80E07C
:107E700090E02BCFCF93DF9300D000D0CDB7DEB70B
:107E80008230910584F060EE7CE08EEC97E00E94F9
:107E9000881C65E070EA80E090E02696CDBFDEBFEA
:107EA000DF91CF9108956115E0E17E0798F44115C7
:107EB000E0E15E07F8F42115E0E13E0730F169EEFC
:107EC0007CE08EEC97E00E94881C69E070EA80E01C
:107ED00090E0E3CF63EE7CE08EEC97E00E94881C9C
:107EE00069E070EA80E090E02696CDBFDEBFDF91CA
:107EF000CF91089566EE7CE08EEC97E00E94881C9E
:107F000069E070EA80E090E0C8CF79836A835B83A0
:107F10004C833D832E839E012F5F3F4F46E06AEDE9
:107F200070E00E945E22672B682B692B21F460E0D1
:107F300070E0CB01B2CF62E07DE08EEC97E00E9472
:107F4000881C68E170EA80E090E0A7CFAF92BF9212
:107F5000CF92DF92EF92FF920F931F93CF93DF9315
:107F60001F92CDB7DEB78C01B62EA42E0297D4F0A7
:107F700068E27DE08EEC97E00E94881C55E0C52EFB
:107F800050EAD52EE12CF12CC701B6010F90DF91FC
:107F9000CF911F910F91FF90EF90DF90CF90BF9006
:107FA000AF900895862F880F880F842B89839E01B8
:107FB0002F5F3F4F41E060EE70E0C8010E94821EDB
:107FC0006B017C01672B682B692BF1F49E012F5FFD
:107FD0003F4F41E060E870E0C801B11002C0AA2044
:107FE000F1F10E947624672B682B692BD1F061E4B4
:107FF0007DE08EEC97E00E94881C98E1C92E90EA03
:10800000D92EE12CF12CC0CF60E37DE08EEC97E01F
:108010000E94881C48E1C42E40EAD42EE12CF12CA9
:10802000B3CF89818D7F89839E012F5F3F4F41E0D0
:1080300060E870E0C8010E945E22672B682B692B04
:1080400009F4A2CF66E47DE08EEC97E00E94881CE4
:1080500088E1C82E80EAD82EE12CF12C95CF0E9421
:108060007624672B682B692B69F066E37DE08EEC44
:1080700097E00E94881C38E1C32E30EAD32EE12C11
:10808000F12C82CF8981826089839E012F5F3F4FCF
:1080900041E060E870E0C8010E945E22672B682B17
:1080A000692B09F471CF6BE37DE08EEC97E00E94C1
:1080B000881C28E1C22E20EAD22EE12CF12C64CFBC
:1080C0000F931F93CF93DF93CDB7DEB72897CDBF24
:1080D000DEBF8230910594F065E77DE08EEC97E09D
:1080E0000E94881C65E070EA80E090E02896CDBF91
:1080F000DEBFDF91CF911F910F910895E72FE29599
:10810000EF70E983729562956F7067277F706727BC
:108110006A83652F62956F706B83529542954F709D
:1081200045275F7045274C83432F42954F704D8301
:10813000329522952F7023273F7023272E83212FDE
:1081400022952F702F83129502950F7001271F70B3
:10815000012708879E012F5F3F4F48E061EE70E0E6
:108160000E94821E611571058105910509F4BECF3B
:1081700061E97DE08EEC97E00E94881C68E170EA7E
:1081800080E090E0B3CF6F927F928F929F92AF92F8
:10819000BF92CF92EF920F93CF93DF931F92CDB701
:1081A000DEB73C0182E068167104DCF06FEB7DE025
:1081B0008EEC97E00E94881C55E0852E50EA952EA3
:1081C000A12CB12CC501B4010F90DF91CF910F917B
:1081D000EF90CF90BF90AF909F908F907F906F90D7
:1081E00008958E2D8C29802B482B642B69839E014A
:1081F0002F5F3F4F41E06AEE70E0C3010E94821E94
:108200004B015C01672B682B692BD9F5C1101FC08E
:1082100001111DC0E1101BC09E012F5F3F4F41E0C7
:1082200060E870E0C3010E947624672B682B692BFD
:1082300009F452C061ED7DE08EEC97E00E94881C4D
:1082400038E1832E30EA932EA12CB12CBBCF9E01B6
:108250002F5F3F4F41E060E870E0C3010E94762449
:10826000672B682B692BD1F06CED7DE08EEC97E0ED
:108270000E94881C98E1892E90EA992EA12CB12C9D
:10828000A1CF68EC7DE08EEC97E00E94881C48E16D
:10829000842E40EA942EA12CB12C94CF89818F7C1E
:1082A00089839E012F5F3F4F41E060E870E0C3018A
:1082B0000E945E22672B682B692B09F483CF61EE45
:1082C0007DE08EEC97E00E94881C88E1882E80EA91
:1082D000982EA12CB12C76CF8981806189839E0153
:1082E0002F5F3F4F41E060E870E0C3010E945E22D3
:1082F000672B682B692B09F465CF66ED7DE08EEC6A
:1083000097E00E94881C28E1822E20EA922EA12C60
:10831000B12C58CFCF92DF92FF920F931F93CF9340
:10832000DF93CDB7DEB72797CDBFDEBF8C01F42E2C
:108330000297ACF06AE07EE08EEC97E00E94881C29
:1083400065E070EA80E090E02796CDBFDEBFDF9168
:10835000CF911F910F91FF90DF90CF900895809162
:108360005A35882389F06EE473E08EEC97E00E9422
:10837000881C6EE07EE08EEC97E00E94881C67E12E
:1083800070EA80E090E0E0CF81E080935A358AE1A6
:10839000809FF001819FF00D1124EB5BFF4D8181E7
:1083A000882371F01E829E012A5F3F4F41E06FEFEC
:1083B00070E0C8010E946820672B682B692BC1F50B
:1083C0008AE1809FF001819FF00D1124EB5BFF4D4E
:1083D000828189838BE78A8381E08B836E0127E02A
:1083E000C20ED11CCC82DD820680F781E02DCE0149
:1083F0000196199510925A35672B682B692B09F055
:10840000B8CF20E1F29EC00111249F819F7C892B6F
:108410008F83960141E06BE770E0C8010E945E2205
:10842000672B682B692B59F460E070E0CB018CCF8F
:1084300088E699E20E94250610925A359ACF65E1A6
:108440007EE08EEC97E00E94881C68E170EA80E094
:1084500090E07ACFEF92FF920F931F93CF93DF9329
:10846000CDB7DEB72897CDBFDEBF8C01542F029762
:10847000A4F06CE37EE08EEC97E00E94881C65E03F
:1084800070EA80E090E02896CDBFDEBFDF91CF910B
:108490001F910F91FF90EF9008954230A8F08091C6
:1084A0005A358823E1F06EE473E08EEC97E00E9489
:1084B000881C65E47EE08EEC97E00E94881C67E1F2
:1084C00070EA80E090E0DFCF61E47EE08EEC97E040
:1084D0000E94881C63E170EA80E090E0D4CF81E0E4
:1084E00080935A358AE1809FF001819FF00D11241D
:1084F000EB5BFF4D8181882381F01E829E012A5F04
:108500003F4F41E06FEF70E0C80158870E9468203C
:108510005885672B682B692BB1F58AE1809FF001A4
:10852000819FF00D1124EB5BFF4D8281898380EAEE
:108530008A8381E08B837E0187E0E80EF11CEC8268
:10854000FD820680F781E02DCE01019658871995AE
:10855000588510925A35672B682B692B09F0A9CFE3
:108560008F8150FB80F98F83970141E060EA70E0D2
:10857000C8010E945E22672B682B692B59F460E0CA
:1085800070E0CB0180CF88E699E20E942506109228
:108590005A358FCF6CE47EE08EEC97E00E94881C09
:1085A00068E170EA80E090E06ECFEF92FF920F9367
:1085B0001F93CF93DF931F92CDB7DEB78C01029745
:1085C00094F068E77EE08EEC97E00E94881C65E0FE
:1085D00070EA80E090E00F90DF91CF911F910F91B2
:1085E000FF90EF900895442329F0483119F0822F2D
:1085F0008D7F91F46EE77EE08EEC97E00E94881C00
:1086000063E170EA80E090E00F90DF91CF911F91DD
:108610000F91FF90EF900895273061F3483019F1E2
:10862000483209F043C0FF24F3942430E9F12530A7
:10863000C1F5EE24E3949E012F5F3F4F41E06DEEC4
:1086400070E0C8010E947624672B682B692B69F0C3
:1086500062EA7EE08EEC97E00E94881C67E170EA97
:1086600080E090E0B8CFF12CE0CF89818C7F8F291A
:1086700089839E012F5F3F4F41E06DEE70E0C8019E
:108680000E945E22672B682B692B99F068EA7EE0D6
:108690008EEC97E00E94881C68E170EA80E090E030
:1086A0009ACF82E0E82EC7CFE12CC5CF92E0F92E19
:1086B000BCCF9E012F5F3F4F41E06CEE70E0C801E0
:1086C0000E947624672B682B692B59F06CEA7EE0B8
:1086D0008EEC97E00E94881C67E170EA80E090E0F1
:1086E0007ACF89818C7FE82AE9829E012F5F3F4FF4
:1086F00041E06CEE70E0C8010E945E22672B682B9F
:10870000692B21F460E070E0CB0165CF62EB7EE085
:108710008EEC97E00E94881C68E170EA80E090E0AF
:108720005ACFAF92BF92DF92EF92FF920F931F93B7
:10873000CF93DF93CDB7DEB72797CDBFDEBF7C01E8
:1087400082E0E816F104BCF066EE7EE08EEC97E085
:108750000E94881C65E070EA80E090E02796CDBF1B
:10876000DEBFDF91CF911F910F91FF90EF90DF90CF
:10877000BF90AF9008956034E1F010E02031E1F057
:10878000D12C0830E9F000E080915A358823E9F0D7
:108790006EE473E08EEC97E00E94881C6EE07FE050
:1087A0008EEC97E00E94881C67E170EA80E090E020
:1087B000D5CF14E0203121F784E0D82E083019F706
:1087C00004E080915A358111E3CF81E080935A35DE
:1087D0008AE18E9DF0018F9DF00D1124EB5BFF4D22
:1087E0008181882371F01E829E012A5F3F4F41E004
:1087F0006FEF70E0C7010E946820672B682B692B20
:10880000D9F58AE18E9DF0018F9DF00D1124EB5B6F
:10881000FF4D828189838EEE8A8381E08B835E01A6
:1088200087E0A80EB11CAC82BD820680F781E02DE6
:10883000CE010196199510925A35672B682B692B3A
:1088400009F0ACCF8F818B7F182B1F83950141E0FE
:108850006EEE70E0C7010E945E22672B682B692BC9
:1088600091F064E17FE08EEC97E00E94881C68E163
:1088700070EA80E090E072CF88E699E20E942506D7
:1088800010925A358BCF950141E06CEE70E0C70134
:108890000E947624672B682B692B59F068E17FE0F2
:1088A0008EEC97E00E94881C67E170EA80E090E01F
:1088B00055CF8F818B7FD82ADF82950141E06CEE06
:1088C00070E0C7010E945E22672B682B692B59F06C
:1088D0006EE17FE08EEC97E00E94881C68E170EA10
:1088E00080E090E03BCF950141E06DEE70E0C70184
:1088F0000E947624672B682B692B59F062E27FE097
:108900008EEC97E00E94881C67E170EA80E090E0BE
:1089100025CF8F818B7F082B0F83950141E06DEE72
:1089200070E0C7010E945E22672B682B692B21F43F
:1089300060E070E0CB0112CF68E27FE08EEC97E060
:108940000E94881C68E170EA80E090E007CFEF9217
:10895000FF920F931F93CF93DF93CDB7DEB76E9740
:10896000CDBFDEBF7C01142F522F9CE0E5E5F2E283
:10897000DE01519601900D929A95E1F790E1E1E6C2
:10898000F2E2DE01119601900D929A95E1F722E054
:10899000E216F104A4F06BE67FE08EEC97E00E9413
:1089A000881C65E070EA80E090E06E96CDBFDEBF87
:1089B000DF91CF911F910F91FF90EF9008958AE181
:1089C0008E9DF0018F9DF00D1124EB5BFF4D848592
:1089D000853059F06FE67FE08EEC97E00E94881CAE
:1089E00063E170EA80E090E0E0CF81898111F2CF0D
:1089F000603409F442C061111CC04330F1F05330BF
:108A000069F0033059F069E77FE08EEC97E00E944F
:108A1000881C63E170EA80E090E0C7CF64E97FE002
:108A20008EEC97E00E94881C69E070EA80E090E09C
:108A3000BCCF603869F1433089F781E090E08C0F5A
:108A40009D1F24E0029F800D911D11248C019C012B
:108A500044E06FEE70E0C7010E945E22672B682B36
:108A6000692BD1F167E97FE08EEC97E00E94881CCA
:108A700068E170EA80E090E098CF62E77FE08EECFA
:108A800097E00E94881C63E170EA80E090E08DCF5F
:108A9000802F90E09C01220F331F820F931F21E152
:108AA00030E02C0F3D1F280F391F43E06FEE70E0C0
:108AB000C7015E8F0E945E225E8D672B682B692B3B
:108AC00009F164E87FE08EEC97E00E94881C68E181
:108AD00070EA80E090E069CF980144E063EF70E0D5
:108AE000C7010E945E22672B682B692B69F16AE936
:108AF0007FE08EEC97E00E94881C68E170EA80E0DD
:108B000090E053CF852F90E09C01220F331F820FFE
:108B1000931F21E130E02C0F3D1F280F391F43E048
:108B200062EF70E0C7010E945E22672B682B692B01
:108B3000F1F067E87FE08EEC97E00E94881C68E126
:108B400070EA80E090E031CF80E48D8F9E01235E5B
:108B50003F4F41E067EF70E0C7010E945E22672B44
:108B6000682B692B31F560E070E0CB011ECF812FBF
:108B700090E09C01220F331F820F931F21E130E010
:108B80002C0F3D1F280F391F43E065EF70E0C70130
:108B90000E945E22672B682B692B29F36AE87FE02D
:108BA0008EEC97E00E94881C68E170EA80E090E01B
:108BB000FCCE6EE97FE08EEC97E00E94881C68E1B5
:108BC00070EA80E090E0F1CECF92DF92EF92FF92D8
:108BD000CF93DF931F92CDB7DEB7DC0149836623C5
:108BE00039F0462F50E0FA013197EF38F10518F1CE
:108BF00060E070E089E0C82E80EAD82EE12CF12CEC
:108C0000A230B105F4F068E772E08EEC97E00E94C4
:108C1000881C6AE070E18EEC97E00E94881C68E195
:108C200070EA80E090E00F90DF91CF91FF90EF909D
:108C3000DF90CF9008958827EB58FC4F8F4F0C940E
:108C40007FCF9E012F5F3F4F41E0CD010E94821EEA
:108C50006C297D298E299F29611571058105910552
:108C6000C1F60F90DF91CF91FF90EF90DF90CF9002
:108C7000089561EF70E0C12CD12C7601C1CF64EF73
:108C800070E0C12CD12C7601BBCF6FEE70E0C12C0F
:108C9000D12C7601B5CF60EF70E0C12CD12C7601DC
:108CA000AFCF62EF70E0C12CD12C7601A9CF63EF7A
:108CB00070E0C12CD12C7601A3CF65EF70E0C12C00
:108CC000D12C76019DCF67EF70E0C12CD12C7601BD
:108CD00097CF66EF70E0C12CD12C760191CFAF9287
:108CE000BF92CF92DF92EF92FF920F931F93CF9399
:108CF000DF93CDB7DEB72797CDBFDEBF6C01162F50
:108D0000F22E82E0C816D104C4F068E370E18EEC64
:108D100097E00E94881C65E070EA80E090E027966A
:108D2000CDBFDEBFDF91CF911F910F91FF90EF90EC
:108D3000DF90CF90BF90AF9008959FE09E15D8F040
:108D4000002309F47DC0013009F000E080915A351C
:108D50008823E1F06EE473E08EEC97E00E94881CBB
:108D60006EE470E18EEC97E00E94881C67E170EA87
:108D700080E090E0D4CF6BE370E18EEC97E00E944E
:108D8000881C69E070EA80E090E0C9CF81E08093C0
:108D90005A358AE18C9DF0018D9DF00D1124EB5B1D
:108DA000FF4D8181882379F01E829E012A5F3F4F0B
:108DB00041E06FEF70E0C6010E946820672B682BCE
:108DC000692B09F03FC08AE18C9DF0018D9DF00D6B
:108DD0001124EB5BFF4D828189838CEE8A8381E0D5
:108DE0008B835E0187E0A80EB11CAC82BD82068039
:108DF000F781E02DCE010196199510925A35672B17
:108E0000682B692B09F0ACCF12951F708F81877F7B
:108E1000182B1F83950141E06CEE70E0C6010E94A3
:108E20005E22672B682B692BA1F064E570E18EEC64
:108E300097E00E94881C68E170EA80E090E06FCFC4
:108E400002E084CF88E699E20E94250610925A3506
:108E500087CF950141E06EEE70E0C6010E94762456
:108E6000672B682B692B59F068E570E18EEC97E071
:108E70000E94881C67E170EA80E090E050CFF69491
:108E8000F6948F8184708F2990E1E99E70011124FE
:108E9000E82A0E290F83950141E06EEE70E0C601CD
:108EA0000E945E22672B682B692B21F460E070E042
:108EB000CB0135CF6EE570E18EEC97E00E94881C07
:108EC00068E170EA80E090E02ACFCF93DF931F92B1
:108ED000CDB7DEB78230910574F06AE870E18EECB0
:108EE00097E00E94881C65E070EA80E090E00F90B7
:108EF000DF91CF910895462B42954F7049839E0193
:108F00002F5F3F4F41E067E773E10E94821E6115CA
:108F100071058105910559F365E970E18EEC97E0E3
:108F20000E94881C68E170EA80E090E0E0CF60E099
:108F300070E0CB0108955F926F927F928F929F9223
:108F4000AF92BF92CF92DF92EF92FF920F931F9357
:108F5000CF93DF9300D01F92CDB7DEB73C01F62E42
:108F6000142FD22E5A2C82E0681671040CF16DEF8A
:108F700070E18EEC97E00E94881CF5E08F2EF0EAFD
:108F80009F2EA12CB12CC501B4012496CDBFDEBF0C
:108F9000DF91CF911F910F91FF90EF90DF90CF90D5
:108FA000BF90AF909F908F907F906F905F9008954B
:108FB000403268F060E071E18EEC97E00E94881C1E
:108FC000E9E08E2EE0EA9E2EA12CB12CDCCF4C8362
:108FD0009E012C5F3F4F41E06CE770E0C3010E94AF
:108FE000821E4B015C01672B682B692B09F50D294B
:108FF0008F2D829586958770082B0C839E012C5FA0
:109000003F4F41E060ED72E1C3010E945E22672B99
:10901000682B692BD1F064E171E18EEC97E00E943E
:10902000881C68E1862E60EA962EA12CB12CABCF6D
:109030006DE071E18EEC97E00E94881C78E1872E4C
:1090400070EA972EA12CB12C9ECFEC829E012C5F52
:109050003F4F41E063E074E1C3010E945E22672B51
:10906000682B692B69F06BE171E18EEC97E00E944F
:10907000881C58E1852E50EA952EA12CB12C83CF67
:109080009E012C5F3F4F41E06DE770E0C3010E94FD
:109090007624672B682B692B69F061E271E18EEC15
:1090A00097E00E94881C47E1842E40EA942EA12C70
:1090B000B12C69CF8C818F79952D9695892B9C2D1C
:1090C0009695892B8C839E012C5F3F4F41E06DE785
:1090D00070E0C3010E945E22672B682B692B19F593
:1090E000F1102EC08FE08C83511003C08C818063FF
:1090F0008C839E012C5F3F4F41E06EE770E0C3011F
:109100000E945E22672B682B692BA9F162E571E151
:109110008EEC97E00E94881C28E1822E20EA922E95
:10912000A12CB12C30CF69E271E18EEC97E00E9466
:10913000881C38E1832E30EA932EA12CB12C23CF4A
:10914000112309F44DC0143008F44DC01C3008F44C
:109150003EC08FE08C83812F8B7F912F9B7E983038
:10916000D9F18031C9F11451143008F0BDCF8C8190
:109170008B7F8C83B9CF19829E012F5F3F4F41E0D7
:1091800067E374E1C3010E945E2280E8C81609F417
:109190004BC08C81887109F4F6CE9E012F5F3F4F42
:1091A00041E065E174E1C3010E947624672B682BDE
:1091B000692BE1F06CE671E18EEC97E00E94881C6F
:1091C00097E1892E90EA992EA12CB12CDCCE87E074
:1091D0008C83143009F0BFCF8C818D7F8C83C3CFFB
:1091E00081E08C83B8CF83E08C83F3CF89818C7F3F
:1091F00089839E012F5F3F4F41E065E174E1C30128
:109200000E945E22672B682B692B09F4BCCE6FE6A7
:1092100071E18EEC97E00E94881C88E1882E80EA3C
:10922000982EA12CB12CAFCE8BE089839E012F5FAD
:109230003F4F41E066E274E1C3010E945E2283E099
:1092400089839E012F5F3F4F41E067E374E1C301D3
:109250000E945E2298CE0F931F93CF93DF931F92AD
:109260001F92CDB7DEB78C01562F823091058CF05E
:1092700065E971E18EEC97E00E94881C65E070EA78
:1092800080E090E00F900F90DF91CF911F910F91B0
:1092900008956A3088F068E971E18EEC97E00E94E9
:1092A000881C69E070EA80E090E00F900F90DF91F9
:1092B000CF911F910F9108959E012F5F3F4F41E085
:1092C0006BE770E05A830E9476245A81672B682BE3
:1092D000692B59F06CE971E18EEC97E00E94881CD3
:1092E00067E170EA80E090E0CDCF8981807F582BE4
:1092F00059839E012F5F3F4F41E06BE770E0C8014B
:109300000E945E22672B682B692B21F460E070E0DD
:10931000CB01B8CF63EA71E18EEC97E00E94881C24
:1093200068E170EA80E090E0ADCFAF92BF92DF924B
:10933000EF92FF920F931F93CF93DF93CDB7DEB7DA
:109340002797CDBFDEBF8C01D22E0297BCF06FEC09
:1093500071E18EEC97E00E94881C65E070EA80E085
:1093600090E02796CDBFDEBFDF91CF911F910F9187
:10937000FF90EF90DF90BF90AF900895603109F4B7
:109380006BC0F62E80915A35882389F06EE473E025
:109390008EEC97E00E94881C69ED71E18EEC97E0FD
:1093A0000E94881C67E170EA80E090E0DACF81E0FB
:1093B00080935A358AE1809FF001819FF00D11243E
:1093C000EB5BFF4D8181882371F01E829E012A5F35
:1093D0003F4F41E06FEF70E0C8010E946820672BAB
:1093E000682B692BE1F58AE1809FF001819FF00DE8
:1093F0001124EB5BFF4D828189838DE78A8381E0B5
:109400008B835E0187E0A80EB11CAC82BD82068012
:10941000F781E02DCE010196199510925A35672BF0
:10942000682B692B09F0B8CF6F81687EE62A6D2D15
:10943000660F660F6E296F296F83950141E06DE716
:1094400070E0C8010E945E22672B682B692B71F4C3
:1094500060E070E0CB0185CF82E0F82E93CF88E604
:1094600099E20E94250610925A3596CF61EE71E17D
:109470008EEC97E00E94881C68E170EA80E090E042
:1094800070CFCF93DF931F92CDB7DEB782309105B7
:1094900074F069E072E18EEC97E00E94881C65E050
:1094A00070EA80E090E00F90DF91CF91089569839A
:1094B0009E012F5F3F4F41E069E770E00E94821EEE
:1094C000611571058105910571F360E172E18EEC22
:1094D00097E00E94881C68E170EA80E090E0E3CFAA
:1094E000CF92DF92FF920F931F93CF93DF93CDB76D
:1094F000DEB72797CDBFDEBF8C01F62E0297ACF00A
:1095000067E372E18EEC97E00E94881C65E070EAE8
:1095100080E090E02796CDBFDEBFDF91CF911F9115
:109520000F91FF90DF90CF90089580915A35882356
:1095300089F06EE473E08EEC97E00E94881C6CE387
:1095400072E18EEC97E00E94881C67E170EA80E08F
:1095500090E0E0CF81E080935A358AE1809FF0016E
:10956000819FF00D1124EB5BFF4D8181882371F009
:109570001E829E012A5F3F4F41E06FEF70E0C801FD
:109580000E946820672B682B692BB9F58AE1809FC0
:10959000F001819FF00D1124EB5BFF4D82818983E7
:1095A0008DE78A8381E08B836E0187E0C80ED11C32
:1095B000CC82DD820680F781E02DCE0101961995DF
:1095C00010925A35672B682B692B09F0B8CFFF0C26
:1095D000FF0CFF0C8F81877FF82AFF82960141E004
:1095E0006DE770E0C8010E945E22672B682B692B33
:1095F00059F460E070E0CB018DCF88E699E20E94DB
:10960000250610925A359BCF63E472E18EEC97E009
:109610000E94881C68E170EA80E090E07BCF0F93A5
:109620001F93CF93DF931F92CDB7DEB78B01672BCC
:1096300081F18230910584F06CE672E18EEC97E066
:109640000E94881C65E070EA80E090E00F90DF9156
:10965000CF911F910F9108959E012F5F3F4F41E0E1
:1096600060E071E00E947624672B682B692B09F576
:10967000898190E0A0E0B0E0B82FAA279927882739
:10968000F80180839183A283B38360E070E0CB0113
:10969000DDCF69E672E18EEC97E00E94881C60E104
:1096A00070EA80E090E00F90DF91CF911F910F91D1
:1096B000089560E772E18EEC97E00E94881C67E1F4
:1096C00070EA80E090E0C2CF0F931F93CF93DF93B7
:1096D0001F92CDB7DEB78B01672B81F182309105E8
:1096E00084F06BE972E18EEC97E00E94881C65E0E3
:1096F00070EA80E090E00F90DF91CF911F910F9181
:1097000008959E012F5F3F4F41E068E071E00E94A5
:109710007624672B682B692B09F5898190E0A0E0FE
:10972000B0E0B82FAA2799278827F8018083918372
:10973000A283B38360E070E0CB01DDCF68E972E122
:109740008EEC97E00E94881C60E170EA80E090E077
:109750000F90DF91CF911F910F9108956FE972E102
:109760008EEC97E00E94881C67E170EA80E090E050
:10977000C2CFEF92FF920F931F93CF93DF9300D04E
:1097800000D0CDB7DEB78B017A01672BD1F0452B26
:1097900009F454C082309105FCF06BEC72E18EEC60
:1097A00097E00E94881C65E070EA80E090E02696D1
:1097B000CDBFDEBFDF91CF911F910F91FF90EF9052
:1097C000089567EC72E18EEC97E00E94881C60E1DE
:1097D00070EA80E090E0EBCF9E012F5F3F4F46E0C4
:1097E0006AE071E00E947624672B682B692B89F56B
:1097F00029818A8190E0A0E0B0E0BA2FA92F982FAC
:109800008827A22B2B81822BF80180839183A2834E
:10981000B3832C818D8190E0A0E0B0E0BA2FA92F16
:10982000982F8827A22B2E81822BF701808391838A
:10983000A283B38360E070E0CB01B9CF68EC72E142
:109840008EEC97E00E94881C60E170EA80E090E076
:10985000AECF6FEC72E18EEC97E00E94881C67E15E
:1098600070EA80E090E0A3CFEF92FF920F931F93F6
:10987000CF93DF9300D01F92CDB7DEB78B017A0173
:10988000672BD1F0452B09F444C082309105FCF0E0
:109890006FEF72E18EEC97E00E94881C65E070EA41
:1098A00080E090E02496CDBFDEBFDF91CF911F9185
:1098B0000F91FF90EF9008956BEF72E18EEC97E0BF
:1098C0000E94881C60E170EA80E090E0EBCF9E018E
:1098D0002F5F3F4F44E062E071E00E947624672BE7
:1098E000682B692B09F5898190E0982F88272A81B8
:1098F000822BF801808391838B8190E0982F8827B9
:109900002C81822BF7018083918360E070E0CB0192
:10991000C9CF6CEF72E18EEC97E00E94881C60E189
:1099200070EA80E090E0BECF62E073E18EEC97E0F9
:109930000E94881C67E170EA80E090E0B3CF611577
:109940007105E1F0823091055CF06DE273E18EEC1F
:1099500097E00E94881C65E070EA80E090E008953E
:109960009B0141E063ED72E10E947624672B682B36
:10997000692B79F460E070E0CB0108956AE273E14D
:109980008EEC97E00E94881C60E170EA80E090E035
:10999000089560E373E18EEC97E00E94881C67E114
:1099A00070EA80E090E0089561157105E1F0823081
:1099B00091055CF067E573E18EEC97E00E94881CEE
:1099C00065E070EA80E090E008959B0141E060E48A
:1099D00071E00E947624672B682B692B79F460E094
:1099E00070E0CB01089564E573E18EEC97E00E948E
:1099F000881C60E170EA80E090E008956AE573E118
:109A00008EEC97E00E94881C67E170EA80E090E0AD
:109A100008952F923F924F925F926F927F928F9212
:109A20009F92AF92BF92CF92DF92EF92FF920F93ED
:109A30001F93CF93DF93CDB7DEB72B97CDBFDEBF9C
:109A40008C01562F029704F163E873E18EEC97E0E6
:109A50000E94881C65E070EA80E090E02B96CDBF04
:109A6000DEBFDF91CF911F910F91FF90EF90DF90BC
:109A7000CF90BF90AF909F908F907F906F905F90AE
:109A80004F903F902F900895643009F4AEC0683035
:109A900009F07FC080E18F837E01B7E0EB0EF11CFF
:109AA000970141E065E170E0C8010E945E224B0130
:109AB0005C0181E08F83970141E06AE773E1C801AF
:109AC0000E945E222B013C01482859286A287B28E5
:109AD0001F82332433948AE1809F9001819F300D4F
:109AE0001124C9018B5B9F4D5C01EFEFAE1ABE0ADA
:109AF0004C01F2E08F0E911C25E1222E6C0126E034
:109B0000C20ED11C11C06EE473E08EEC97E00E948F
:109B1000881C85E090EAA0E0B0E0482A592A6A2A29
:109B20007B2A8F8184FD5EC080915A358111EBCFF5
:109B300030925A35D5018C91882391F01E829E0176
:109B40002A5F3F4F41E06FEF70E0C8010E9468203C
:109B5000AB01BC01411551056105710509F043C216
:109B6000F401808189832A823B82EC82FD82D601C6
:109B7000ED91FC91CE010196199510925A35672B03
:109B8000682B692B09F45AC187E190EAA0E0B0E0A4
:109B9000C4CF60E070E0CB0161CF8AE1809FF0012B
:109BA000819FF00D1124EB5BFF4D8089882309F420
:109BB00049C187E08F83970141E065E170E0C8010A
:109BC0000E945E22462A572A682A792A8AE1809FC3
:109BD000F001819FF00D1124EB5BFF4D80898823FC
:109BE00009F416C1C301B20139CF8AE1809FF001A7
:109BF000819FF00D1124EB5BFF4D8089882309F4D0
:109C00002FC1412C512C3201CE0107967C011F82BD
:109C1000970141E06CE070E0C8010E945E22462A94
:109C2000572A682A792A83E08F83970141E060E60A
:109C300070E0C8010E945E22462A572A682A792AC3
:109C400088E18F83970141E065E170E0C8010E94DF
:109C50005E22462A572A682A792A81E08F83970153
:109C600041E064E670E0C8010E945E22462A572A5D
:109C7000682A792A1F82332433948AE1809F9001D5
:109C8000819F300D1124C9018B5B9F4D5C01AFEFAB
:109C9000AA1ABA0A4C01B2E08B0E911C45E1242E9F
:109CA0006C01E6E0CE0ED11C11C06EE473E08EECC8
:109CB00097E00E94881C85E090EAA0E0B0E0482A86
:109CC000592A6A2A7B2A8F8183FD35C080915A35B3
:109CD0008111EBCF30925A35D5018C91882391F0C8
:109CE0001E829E012A5F3F4F41E06FEF70E0C80186
:109CF0000E946820AB01BC01411551056105710549
:109D000009F060C1F401808189832A823B82EC8260
:109D1000FD82D601ED91FC91CE010196199510922C
:109D20005A35672B682B692B09F484C087E190EAC8
:109D3000A0E0B0E0C4CF81E08F83970141E06AE703
:109D400073E1C8010E945E22462A572A682A792AAE
:109D50001F82332433948AE1809F9001819F300DCC
:109D60001124C9018B5B9F4D5C01BFEFAB1ABB0A8D
:109D70004C01E2E08E0E911C35E1232E6C01F6E0E1
:109D8000CF0ED11C11C06EE473E08EEC97E00E9400
:109D9000881C85E090EAA0E0B0E0482A592A6A2AA7
:109DA0007B2A8F8184FDF9CE80915A358111EBCFCA
:109DB00030925A35D5018C91882391F01E829E01F4
:109DC0002A5F3F4F41E06FEF70E0C8010E946820BA
:109DD000AB01BC01411551056105710509F014C1C4
:109DE000F401808189832A823B82EC82FD82D60144
:109DF000ED91FC91CE010196199510925A35672B81
:109E0000682B692B99F087E190EAA0E0B0E0C5CF1C
:109E100083E08F83970141E064E070E0C8010E9415
:109E20005E22642975298629972918CE80E090E062
:109E3000DC01B3CF80E090E0DC0141CF80E090E036
:109E4000DC016BCE88E08F83970141E065E073E130
:109E5000C8010E945E22462A572A682A792AA9CE7A
:109E60001F827E0127E0E20EF11C970141E064E0D1
:109E700070E0C8015B870E945E224B015C0154E2E6
:109E8000D52EDF82970141E068EE73E1C8010E94A0
:109E90005E222B013C01482859286A287B2883E050
:109EA0008F83970141E060E072E1C8010E945E2269
:109EB000462A572A682A792ACC24C394CF8297014C
:109EC00041E061EA72E1C8010E945E22462A572AF7
:109ED000682A792ACF82970141E065EA72E1C801D8
:109EE0000E945E22462A572A682A792ACF82970141
:109EF00041E060EA72E1C8010E945E22462A572AC8
:109F0000682A792A1F82970141E065E073E1C80160
:109F10000E945E22462A572A682A792ADF82970100
:109F200041E068EE73E1C8010E945E22462A572A8A
:109F3000682A792A5B855F83970141E069EE73E1C6
:109F4000C8010E945E22462A572A682A792A1F825F
:109F5000970141E069EE73E1C8010E945E22462A42
:109F6000572A682A792A1F82970141E060EA72E144
:109F7000C8010E945E22462A572A682A792A1F822F
:109F8000970141E060E072E1C8010E945E22462A2A
:109F9000572A682A792A970141E062E070E4C801F3
:109FA0000E947624462A572A682A792A970141E096
:109FB0006FE572E4C8010E945E22462A572A682A89
:109FC000792A25CE88E699E248875B8769877A8770
:109FD0000E94250610925A3548855B8569857A85E9
:109FE000DB01CA016CCE88E699E248875B87698706
:109FF0007A870E94250610925A3548855B856985C7
:10A000007A85DB01CA0189CD88E699E248875B87BA
:10A0100069877A870E94250610925A3548855B85A4
:10A0200069857A85DB01CA01B8CE60935B3560E053
:10A0300070E0CB0108958F929F92AF92BF92DF9212
:10A04000EF92FF920F931F93CF93DF93CDB7DEB7BD
:10A050002997CDBFDEBF7C018B01D0905B359091FD
:10A060005A35992321F16EE473E08EEC97E00E945B
:10A07000881C35E020EA80E090E04E8150E060E00E
:10A0800070E0F8014083518362837383632F722FE2
:10A090002996CDBFDEBFDF91CF911F910F91FF9029
:10A0A000EF90DF90BF90AF909F908F90089581E0E8
:10A0B00080935A3582E0E816F1043CF010925A354C
:10A0C00035E020EA80E090E0D8CF8AE18E9DF00173
:10A0D0008F9DF00D1124EB5BFF4D8181803489F061
:10A0E00080E489879E01275F3F4F41E06FEF70E476
:10A0F000C7010E9468204B015C01672B682B692B0C
:10A1000031F58AE18E9DF0018F9DF00D1124EB5BFE
:10A11000FF4D82818983DA8281E08B83CE010696AE
:10A120008C839D830680F781E02D05971995109209
:10A130005A35672B682B692B29F037E120EA80E03C
:10A1400090E09BCF30E020E080E090E096CF88E682
:10A1500099E20E94250610925A35382D292DC50105
:10A160008CCF8F929F92AF92BF92DF92EF92FF922D
:10A170000F931F93CF93DF9300D01F92CDB7DEB71D
:10A180007C01D22E82E0E816F104ECF063E874E181
:10A190008EEC97E00E94881C15E0812E10EA912E2B
:10A1A000A12CB12CC501B4012496CDBFDEBFDF9137
:10A1B000CF911F910F91FF90EF90DF90BF90AF90E4
:10A1C0009F908F900895462B49831A830B838AE1D1
:10A1D0008E9DF0018F9DF00D1124EB5BFF4D80896A
:10A1E000882309F46EC09E012F5F3F4F43E060E675
:10A1F00070E0C7010E94821E4B015C01672B682B37
:10A20000692B09F051C0D9829E012F5F3F4F41E079
:10A2100060E173E1C7010E945E22672B682B692B06
:10A2200009F076C08AE18E9DF0018F9DF00D11241A
:10A23000EB5BFF4D8089811178C01C828E010C5F21
:10A240001F4F980141E060E072E1C7010E945E2269
:10A250001C82980141E060EA72E1C7010E945E221F
:10A2600088E08C83980141E065E073E1C7010E94BA
:10A270005E2283E08C83980141E060E072E1C701D7
:10A280000E945E22672B682B692B09F45BC065EB8B
:10A2900074E18EEC97E00E94881CF8E18F2EF0EAC2
:10A2A0009F2EA12CB12C7ECF6EE974E18EEC97E04D
:10A2B0000E94881CB8E18B2EB0EA9B2EA12CB12CF9
:10A2C00071CF83E08C838E010C5F1F4F980141E0BA
:10A2D00060E072E1C7010E945E22BB24B394BC829D
:10A2E000980141E061EA72E1C7010E945E22BC82EE
:10A2F000980141E065EA72E1C7010E945E22BC82DA
:10A30000980141E060EA72E1C7010E945E226BCFD2
:10A3100065EA74E18EEC97E00E94881CA8E18A2E21
:10A32000A0EA9A2EA12CB12C3DCF8E010C5F1F4FBD
:10A3300087E08C83980141E065E170E0C7010E94ED
:10A340005E2230CFDD24D394DC82980141E060EAC4
:10A3500072E1C7010E945E22672B682B692B69F0AE
:10A3600068EB74E18EEC97E00E94881CE8E18E2E89
:10A37000E0EA9E2EA12CB12C15CFDC82980141E0A1
:10A3800061EA72E1C7010E945E22672B682B692B8C
:10A3900069F06BEB74E18EEC97E00E94881C78E129
:10A3A000872E70EA972EA12CB12CFCCEDC8298016E
:10A3B00041E065EA72E1C7010E945E22672B682BCB
:10A3C000692B69F06EEB74E18EEC97E00E94881CBB
:10A3D00068E1862E60EA962EA12CB12CE3CE98017E
:10A3E00041E068EF72E1C7010E947624672B682B79
:10A3F000692B69F061EC74E18EEC97E00E94881C97
:10A4000057E1852E50EA952EA12CB12CCBCE8C8114
:10A41000897F82608C83980141E068EF72E1C70117
:10A420000E945E22672B682B692B69F065EC74E152
:10A430008EEC97E00E94881C48E1842E40EA942E1E
:10A44000A12CB12CAFCE1C82980141E060E072E1FA
:10A45000C7010E945E22672B682B692B69F069ECAB
:10A4600074E18EEC97E00E94881C38E1832E30EA7C
:10A47000932EA12CB12C96CE1C82980141E060EA6B
:10A4800072E1C7010E945E22672B682B692B69F07D
:10A490006CEC74E18EEC97E00E94881C28E1822E1F
:10A4A00020EA922EA12CB12C7DCE980141E068EFDC
:10A4B00072E1C7010E947624672B682B692B69F033
:10A4C0006FEC74E18EEC97E00E94881C97E1892E76
:10A4D00090EA992EA12CB12C65CE8C81897F8C833A
:10A4E000980141E068EF72E1C7010E945E22672B8C
:10A4F000682B692B09F41CCF62ED74E18EEC97E0B8
:10A500000E94881C88E1882E80EA982EA12CB12C0C
:10A5100049CE0F93CF93DF931F92CDB7DEB7823032
:10A5200091057CF063E075E18EEC97E00E94881C59
:10A5300065E070EA80E090E00F90DF91CF910F919D
:10A5400008950068202B422B642B69839E012F5FA6
:10A550003F4F41E063E670E00E94821E6115710585
:10A560008105910549F36AE075E18EEC97E00E9460
:10A57000881C68E170EA80E090E0DECF0F93CF9313
:10A58000DF931F921F92CDB7DEB78230910584F022
:10A5900068E375E18EEC97E00E94881C65E070EA44
:10A5A00080E090E00F900F90DF91CF910F91089590
:10A5B00047FD25C0083008F5022B0983642B6A8308
:10A5C0009E012F5F3F4F42E065E670E00E94821ED1
:10A5D000611571058105910529F36DE475E18EEC36
:10A5E00097E00E94881C68E170EA80E090E00F909C
:10A5F0000F90DF91CF910F91089507E0DDCF4FE7E6
:10A60000D9CFCF92DF92EF92FF920F931F93CF9308
:10A61000DF931F92CDB7DEB78C0119820297C4F089
:10A6200067E775E18EEC97E00E94881C95E0C92EE3
:10A6300090EAD92EE12CF12CC701B6010F90DF91E1
:10A64000CF911F910F91FF90EF90DF90CF900895E1
:10A65000611109C092E080E04111892F211106C0EB
:10A660008061898305C096E084E0F6CF81618983AB
:10A670009E012F5F3F4F41E06DE670E0C8010E94F0
:10A68000821E6B017C01672B682B692BB1F49E0144
:10A690002F5F3F4F41E067E170E0C8010E947624E0
:10A6A0008981806389839E012F5F3F4F41E067E18D
:10A6B00070E0C8010E945E22BFCF6DE875E18EECAC
:10A6C00097E00E94881C88E1C82E80EAD82EE12CF1
:10A6D000F12CB2CF6115710571F082309105B4F0A3
:10A6E0006CEB75E18EEC97E00E94881C65E070EAE7
:10A6F00080E090E0089569EB75E18EEC97E00E94B0
:10A70000881C60E170EA80E090E008959B0145E0DC
:10A7100061E173E10E94821E611571058105910559
:10A7200009F4089560EC75E18EEC97E00E94881CB6
:10A7300068E170EA80E090E00895CF93DF931F9284
:10A74000CDB7DEB769838230910574F061EE75E1B3
:10A750008EEC97E00E94881C65E070EA80E090E053
:10A760000F90DF91CF9108959E012F5F3F4F41E001
:10A7700066E173E10E94821E6115710581059105F4
:10A7800079F365EE75E18EEC97E00E94881C68E134
:10A7900070EA80E090E0E4CF6115710571F08230DD
:10A7A0009105B4F06CE076E18EEC97E00E94881C95
:10A7B00065E070EA80E090E0089569E076E18EEC73
:10A7C00097E00E94881C60E170EA80E090E00895C4
:10A7D0009B0147E067E173E10E94821E61157105EC
:10A7E0008105910509F4089560E176E18EEC97E02A
:10A7F0000E94881C68E170EA80E090E00895CF93A1
:10A80000DF931F92CDB7DEB769838230910574F074
:10A8100064E376E18EEC97E00E94881C65E070EAC4
:10A8200080E090E00F90DF91CF9108959E012F5F1F
:10A830003F4F41E067E670E00E94821E611571059E
:10A840008105910579F368E376E18EEC97E00E944B
:10A85000881C68E170EA80E090E0E4CF6115710542
:10A8600071F082309105B4F061E676E18EEC97E00C
:10A870000E94881C65E070EA80E090E008956EE533
:10A8800076E18EEC97E00E94881C60E170EA80E03F
:10A8900090E008959B0145E068E670E00E94821E0A
:10A8A000611571058105910509F4089565E676E164
:10A8B0008EEC97E00E94881C68E170EA80E090E0EE
:10A8C00008952F923F924F925F926F927F928F9254
:10A8D000AF92CF92EF92FF920F931F93CF93DF939C
:10A8E0001F921F92CDB7DEB71C01142FF22E82E00B
:10A8F0002816310404F166E976E18EEC97E00E94B7
:10A90000881C35E0432E30EA532E612C712CC30194
:10A91000B2010F900F90DF91CF911F910F91FF9097
:10A92000EF90CF90AF908F907F906F905F904F900F
:10A930003F902F900895683068F069E976E18EECD9
:10A9400097E00E94881C29E0422E20EA522E612CBA
:10A95000712CDDCF69839E012F5F3F4F41E062E1A3
:10A9600072E1C1010E94821E2B013C01672B682B02
:10A97000692B11F5E02AFE281F2919838A28C82887
:10A98000CA829E012F5F3F4F42E060E773E1C10141
:10A990000E945E22672B682B692B09F4B8CF67EA07
:10A9A00076E18EEC97E00E94881C88E1482E80EAD0
:10A9B000582E612C712CABCF6FE976E18EEC97E0CD
:10A9C0000E94881C98E1492E90EA592E612C712C26
:10A9D0009ECF6F927F928F929F92AF92BF92CF92B3
:10A9E000DF92EF92FF920F931F93CF93DF93CDB738
:10A9F000DEB72E97CDBFDEBF3C016B015A01490186
:10AA0000672B09F447C0452B09F44FC0232B09F4E9
:10AA100057C00115110509F45EC0E114F10409F4F1
:10AA200065C082E068167104E4F06AED76E18EECB0
:10AA300097E00E94881C65E070EA80E090E02E9626
:10AA4000CDBFDEBFDF91CF911F910F91FF90EF90AF
:10AA5000DF90CF90BF90AF909F908F907F906F903E
:10AA600008959E012F5F3F4F43E060EE71E0C30108
:10AA70000E947624672B682B692B09F442C06DED88
:10AA800076E18EEC97E00E94881C67E170EA80E036
:10AA900090E0D5CF63ED76E18EEC97E00E94881CC4
:10AAA00060E170EA80E090E0CACF64ED76E18EEC80
:10AAB00097E00E94881C60E170EA80E090E0BFCFE0
:10AAC00065ED76E18EEC97E00E94881C60E170EA0B
:10AAD00080E090E0B4CF66ED76E18EEC97E00E94E6
:10AAE000881C60E170EA80E090E0A9CF67ED76E134
:10AAF0008EEC97E00E94881C60E170EA80E090E0B4
:10AB00009ECF898190E0982F88272A81822BF60199
:10AB1000808391838B81F80180839E012F5F3F4F5B
:10AB20004FE063EE71E0C3010E947624672B682B2F
:10AB3000692BB9F485E0FE013196D50101900D92A3
:10AB40008A95E1F788E0FE013696D40101900D92D6
:10AB50008A95E1F78E85F701808360E070E0CB0194
:10AB60006ECF64EE76E18EEC97E00E94881C67E180
:10AB700070EA80E090E063CF6F927F928F929F9215
:10AB8000AF92BF92CF92DF92EF92FF920F931F93FB
:10AB9000CF93DF93CDB7DEB7A097CDBFDEBF3C012B
:10ABA0005A014901452BC9F1232B09F441C0011574
:10ABB000110509F448C0E114F10409F44FC0C114AF
:10ABC000D10409F460C082E068167104E4F068E220
:10ABD00077E18EEC97E00E94881C65E070EA80E0E7
:10ABE00090E0A096CDBFDEBFDF91CF911F910F9176
:10ABF000FF90EF90DF90CF90BF90AF909F908F909D
:10AC00007F906F900895862F90E08730910588F1AE
:10AC100069E070EA80E090E0E4CF61E277E18EECF9
:10AC200097E00E94881C60E170EA80E090E0D9CF54
:10AC300062E277E18EEC97E00E94881C60E170EAA6
:10AC400080E090E0CECF63E277E18EEC97E00E9467
:10AC5000881C60E170EA80E090E0C3CF64E277E1B5
:10AC60008EEC97E00E94881C60E170EA80E090E042
:10AC7000B8CFFC019E012F5F3F4F8827EC5FFB4F51
:10AC80008F4F0C947FCF65E277E18EEC97E00E94C6
:10AC9000881C60E170EA80E090E0A3CF4FE161E2C0
:10ACA00072E0C3010E947624672B682B692B09F49C
:10ACB000CBC066E677E18EEC97E00E94881C67E1E6
:10ACC00070EA80E090E08DCF4FE161E072E0C30177
:10ACD0000E947624672B682B692B09F4CDC06BE5A5
:10ACE00077E18EEC97E00E94881C67E170EA80E0D3
:10ACF00090E077CF4EE061EC72E0C3010E947624D1
:10AD0000672B682B692B09F06EC04AE050E08981FF
:10AD1000F50180838A81F40180838B818F71F80132
:10AD200080838C81F701808320E030E060E080E068
:10AD300090E0F601E80FF91FA5E0B0E0AC0FBD1FF1
:10AD4000A20FB31F2C9120836F5F862F90E09C0190
:10AD50008417950774F360E070E0CB0142CF4EE0BA
:10AD600061EA72E0C3010E947624672B682B692B8D
:10AD700061F265E477E18EEC97E00E94881C67E160
:10AD800070EA80E090E02DCF4FE161E872E0C3010E
:10AD90000E947624672B682B692B81F54BE150E0EC
:10ADA000B6CF41E161E672E0C3010E947624672BD1
:10ADB000682B692B71F54DE050E0A9CF4FE161E4BC
:10ADC00072E0C3010E947624672B682B692B61F126
:10ADD00061E777E18EEC97E00E94881C67E170EAFA
:10ADE00080E090E0FECE60E577E18EEC97E00E9497
:10ADF000881C67E170EA80E090E0F3CE6AE377E1D7
:10AE00008EEC97E00E94881C67E170EA80E090E099
:10AE1000E8CE6FE277E18EEC97E00E94881C67E154
:10AE200070EA80E090E0DDCE9E01205E3F4F41E081
:10AE300060E472E0C3010E947624672B682B692BC3
:10AE400099F54CE150E063CF9E01205E3F4F41E019
:10AE500060E272E0C3010E947624672B682B692BA5
:10AE600081F36BE677E18EEC97E00E94881C67E146
:10AE700070EA80E090E0B5CE9E01205E3F4F41E059
:10AE800060E072E0C3010E947624672B682B692B77
:10AE9000C1F260E677E18EEC97E00E94881C67E1E2
:10AEA00070EA80E090E09DCE66E777E18EEC97E077
:10AEB0000E94881C67E170EA80E090E092CECF9219
:10AEC000DF92EF92FF920F931F93CF93DF93CDB753
:10AED000DEB76397CDBFDEBF8B016A017901672BB7
:10AEE000F1F0452B39F1232B09F454C08230910540
:10AEF00064F166EB77E18EEC97E00E94881C65E0D8
:10AF000070EA80E090E06396CDBFDEBFDF91CF9125
:10AF10001F910F91FF90EF90DF90CF90089561EB1C
:10AF200077E18EEC97E00E94881C60E170EA80E097
:10AF300090E0E9CF62EB77E18EEC97E00E94881C0D
:10AF400060E170EA80E090E0DECF9E012F5F3F4F2E
:10AF500043E161E471E00E947624672B682B692B42
:10AF600021F58981D8018C938A81F601808380E163
:10AF7000FE013496D70101900D928A95E1F7F70111
:10AF800070968CE0DF011D928A95E9F760E070E031
:10AF9000CB01B9CF63EB77E18EEC97E00E94881C80
:10AFA00060E170EA80E090E0AECF69EB77E18EEC93
:10AFB00097E00E94881C67E170EA80E090E0A3CFF0
:10AFC000CF92DF92EF92FF920F931F93CF93DF9375
:10AFD000CDB7DEB76397CDBFDEBF8B017A016901C4
:10AFE000672BF1F0452B39F1232B09F44DC082304A
:10AFF000910564F163EF77E18EEC97E00E94881C85
:10B0000065E070EA80E090E06396CDBFDEBFDF913F
:10B01000CF911F910F91FF90EF90DF90CF90089507
:10B020006EEE77E18EEC97E00E94881C60E170EA9A
:10B0300080E090E0E9CF6FEE77E18EEC97E00E9440
:10B04000881C60E170EA80E090E0DECF9E012F5F17
:10B050003F4F43E161E671E00E947624672B682B45
:10B06000692BE9F48981F80180838A81F701808363
:10B0700080E1FE013496D60101900D928A95E1F7A8
:10B0800060E070E0CB01C0CF60EF77E18EEC97E03D
:10B090000E94881C60E170EA80E090E0B5CF66EF26
:10B0A00077E18EEC97E00E94881C67E170EA80E00F
:10B0B00090E0AACFEF92FF920F931F93CF93DF936D
:10B0C000CDB7DEB76397CDBFDEBF8B017A01672BAB
:10B0D000C9F0452BE9F182309105FCF068E278E196
:10B0E0008EEC97E00E94881C65E070EA80E090E0BA
:10B0F0006396CDBFDEBFDF91CF911F910F91FF907F
:10B10000EF90089564E278E18EEC97E00E94881C4D
:10B1100060E170EA80E090E0EBCF9E012F5F3F4F4F
:10B1200043E161E871E00E947624672B682B692B6C
:10B13000D1F48981F801808380E1FE013496D70142
:10B1400001900D928A95E1F760E070E0CB01D0CFDD
:10B1500065E278E18EEC97E00E94881C60E170EA7D
:10B1600080E090E0C5CF6BE278E18EEC97E00E9442
:10B17000881C67E170EA80E090E0BACFCF92DF925E
:10B18000EF92FF920F931F93CF93DF93CDB7DEB76C
:10B190006F97CDBFDEBF8B017A016901672BF1F09C
:10B1A000452B39F1232B09F44FC08230910564F10E
:10B1B0006FE578E18EEC97E00E94881C65E070EA0C
:10B1C00080E090E06F96CDBFDEBFDF91CF911F9101
:10B1D0000F91FF90EF90DF90CF9008956AE578E1AE
:10B1E0008EEC97E00E94881C60E170EA80E090E0BD
:10B1F000E9CF6BE578E18EEC97E00E94881C60E176
:10B2000070EA80E090E0DECF9E012F5F3F4F4FE17C
:10B2100061EA71E00E947624672B682B692BF9F4B0
:10B220008981F80180838A81F70180838B81818302
:10B230008CE1FE013496D60101900D928A95E1F7DA
:10B2400060E070E0CB01BECF6CE578E18EEC97E07A
:10B250000E94881C60E170EA80E090E0B3CF62E673
:10B2600078E18EEC97E00E94881C67E170EA80E04C
:10B2700090E0A8CF6F927F928F92AF92CF92DF92A1
:10B28000EF92FF920F93CF93DF931F921F92CDB750
:10B29000DEB73C0182E068167104E4F06BE978E106
:10B2A0008EEC97E00E94881C95E0C92E90EAD92E7A
:10B2B000E12CF12CC701B6010F900F90DF91CF91D7
:10B2C0000F91FF90EF90DF90CF90AF908F907F9095
:10B2D0006F9008958982CE280C29202B422B642B55
:10B2E0006A839E012F5F3F4F42E06BE070E0C30135
:10B2F0000E94821E6B017C01672B682B692BD9F49D
:10B30000AA2081F181E0A81223C09E012F5F3F4F48
:10B3100041E060E470E0C3010E94762489818E7F61
:10B3200089839E012F5F3F4F41E060E470E0C301DD
:10B330000E945E22BFCF60EB78E18EEC97E00E9426
:10B34000881C88E1C82E80EAD82EE12CF12CB2CFDF
:10B350009E012F5F3F4F41E060E470E0C3010E9417
:10B360007624A8CF9E012F5F3F4F41E060E470E05C
:10B37000C3010E94762489818160D2CF82309105F9
:10B380005CF06FED78E18EEC97E00E94881C65E040
:10B3900070EA80E090E0089561157105B9F12AE145
:10B3A000289FF001299FF00D1124EB5BFF4D848550
:10B3B000DB018C9384858550873028F069E070EA42
:10B3C00080E090E0089581E011968C931197129699
:10B3D0001C92129798E013969C93139714968C9353
:10B3E000149715968C93159716968C931697179617
:10B3F0008C93179718961C92189719961C92199768
:10B400001A968C9360E070E0CB01089562EE78E1CB
:10B410008EEC97E00E94881C60E170EA80E090E08A
:10B4200008950F93CF93DF931F92CDB7DEB70983B3
:10B43000823091057CF06AE279E18EEC97E00E941F
:10B44000881C65E070EA80E090E00F90DF91CF917A
:10B450000F910895203179F06DE279E18EEC97E05B
:10B460000E94881C69E070EA80E090E00F90DF9114
:10B47000CF910F9108959E012F5F3F4F41E061E111
:10B4800074E10E945E22672B682B692B21F460E037
:10B4900070E0CB01DACF64E379E18EEC97E00E94B3
:10B4A000881C68E170EA80E090E0CFCFCF92DF9215
:10B4B000EF92FF920F931F93CF93DF93CDB7DEB739
:10B4C0002A97CDBFDEBF8B017A016901672BF1F0AE
:10B4D000452B39F1232B09F44FC08230910564F1DB
:10B4E00066E679E18EEC97E00E94881C65E070EAE0
:10B4F00080E090E02A96CDBFDEBFDF91CF911F9113
:10B500000F91FF90EF90DF90CF90089561E679E181
:10B510008EEC97E00E94881C60E170EA80E090E089
:10B52000E9CF62E679E18EEC97E00E94881C60E149
:10B5300070EA80E090E0DECF9E012F5F3F4F4AE04F
:10B5400061E271E00E947624672B682B692BF9F485
:10B550008981F80180838A81F70180838B818183CF
:10B5600087E0FE013496D60101900D928A95E1F7AD
:10B5700060E070E0CB01BECF63E679E18EEC97E04E
:10B580000E94881C60E170EA80E090E0B3CF6AE638
:10B5900079E18EEC97E00E94881C67E170EA80E018
:10B5A00090E0A8CFEF92FF920F931F93CF93DF937A
:10B5B00000D0CDB7DEB77A0182309105A4F069E9F9
:10B5C00079E18EEC97E00E94881C65E070EA80E0EB
:10B5D00090E02396CDBFDEBFDF91CF911F910F91F9
:10B5E000FF90EF900895452B19F1683061F16623C3
:10B5F000B1F069E070EA80E090E049810A8110E0F2
:10B6000020E030E0322F212F102F0027242B4B81F8
:10B61000042BF7010083118322833383DACF9E0149
:10B620002F5F3F4F43E06FE470E00E947624E5CF48
:10B630006CE979E18EEC97E00E94881C60E170EA89
:10B6400080E090E0C6CF9E012F5F3F4F43E06AE469
:10B6500070E00E947624D1CFCF92DF92EF92FF92DA
:10B660000F931F93CF93DF93CDB7DEB72797CDBF4F
:10B67000DEBF8C017B016A010297B4F063ED79E1D2
:10B680008EEC97E00E94881C65E070EA80E090E014
:10B690002796CDBFDEBFDF91CF911F910F91FF9015
:10B6A000EF90DF90CF900895672B09F46FC0452B82
:10B6B000A9F080915A358823E1F06EE473E08EECB6
:10B6C00097E00E94881C6BED79E18EEC97E00E9478
:10B6D000881C67E170EA80E090E0DACF67ED79E1FD
:10B6E0008EEC97E00E94881C60E170EA80E090E0B8
:10B6F000CFCF81E080935A359AE1909FF001919FDE
:10B70000F00D1124EB5BFF4D9181913071F08E8330
:10B710009E012A5F3F4F41E06FEF71E0C8010E9438
:10B720006820672B682B692B51F58AE1809FF00117
:10B73000819FF00D1124EB5BFF4D8281898389E0AD
:10B740008A8381E08B83CE0107968C839D8306805C
:10B75000F781E02D0697199510925A35672B682BC3
:10B76000692B09F0B0CF8F81982F9078F7019083E3
:10B770008770F601808360E070E0CB0189CF88E6B6
:10B7800099E20E94250610925A359DCF66ED79E127
:10B790008EEC97E00E94881C60E170EA80E090E007
:10B7A00077CFCF92DF92EF92FF920F931F93CF93B9
:10B7B000DF93CDB7DEB72797CDBFDEBF8C017B010E
:10B7C0006A010297B4F062E07AE18EEC97E00E94A1
:10B7D000881C65E070EA80E090E02796CDBFDEBF70
:10B7E000DF91CF911F910F91FF90EF90DF90CF905D
:10B7F0000895672B09F46EC0452BA9F080915A3546
:10B800008823E1F06EE473E08EEC97E00E94881CE0
:10B810006AE07AE18EEC97E00E94881C67E170EAAA
:10B8200080E090E0DACF66E07AE18EEC97E00E946B
:10B83000881C60E170EA80E090E0CFCF81E08093E7
:10B840005A359AE1909FF001919FF00D1124EB5B26
:10B85000FF4D9181913071F08E839E012A5F3F4FA1
:10B8600041E06FEF71E0C8010E946820672B682BF0
:10B87000692B49F58AE1809FF001819FF00D112429
:10B88000EB5BFF4D8281898381E08A838B83CE01CC
:10B8900007968C839D830680F781E02D0697199586
:10B8A00010925A35672B682B692B09F0B1CF8F8125
:10B8B000982F907FF70190838F70F601808360E06E
:10B8C00070E0CB018ACF88E699E20E9425061092AB
:10B8D0005A359ECF65E07AE18EEC97E00E94881C95
:10B8E00060E170EA80E090E078CF60E070E0CB014A
:10B8F0000895CF92DF92EF92FF920F931F93CF9311
:10B90000DF93CDB7DEB72797CDBFDEBF8C017B01BC
:10B910000297B4F067E77EE18EEC97E00E94881C06
:10B9200065E070EA80E090E02796CDBFDEBFDF9152
:10B93000CF911F910F91FF90EF90DF90CF900895DE
:10B94000672B09F460C080915A35882389F06EE432
:10B9500073E08EEC97E00E94881C6EE77EE18EEC2F
:10B9600097E00E94881C67E170EA80E090E0DCCFFD
:10B9700081E080935A358AE1809FF001819FF00D2C
:10B980001124EB5BFF4D8181882371F01E829E01A3
:10B990002A5F3F4F41E06FEF70E0C8010E946820CE
:10B9A000672B682B692BD1F58AE1809FF001819F7D
:10B9B000F00D1124EB5BFF4D8281898384E18A8342
:10B9C00081E08B836E0187E0C80ED11CCC82DD82C2
:10B9D0000680F781E02DCE010196199510925A3517
:10B9E000672B682B692B09F0B8CF8F8180FF1DC0B2
:10B9F0006FE77EE18EEC97E00E94881C65E170EABB
:10BA000080E090E091CF6AE77EE18EEC97E00E94C3
:10BA1000881C60E170EA80E090E086CF88E699E2D9
:10BA20000E94250610925A3598CF97014CE060E1AC
:10BA300071E0C8010E947624672B682B692B59F0AE
:10BA400063E87EE18EEC97E00E94881C67E170EA73
:10BA500080E090E069CF960141E064E170E0C801C8
:10BA60000E947624672B682B692B39F48F8180FD27
:10BA70000FC060E070E0CB0157CF67E87EE18EEC4D
:10BA800097E00E94881C67E170EA80E090E04CCF6C
:10BA900068E87EE18EEC97E00E94881C65E170EA20
:10BAA00080E090E041CFFF920F931F93CF93DF93FD
:10BAB000CDB7DEB72997CDBFDEBF8C01F62E1F8232
:10BAC00002979CF063EB7EE18EEC97E00E94881C6D
:10BAD00065E070EA80E090E02996CDBFDEBFDF919F
:10BAE000CF911F910F91FF90089580915A3588232F
:10BAF00089F06EE473E08EEC97E00E94881C67EB9F
:10BB00007EE18EEC97E00E94881C67E170EA80E09D
:10BB100090E0E2CF81E080935A358AE1809FF00186
:10BB2000819FF00D1124EB5BFF4D8181803281F00C
:10BB300080E28E839E012A5F3F4F41E06FEF70E20B
:10BB4000C8010E946820672B682B692B09F043C04D
:10BB50008AE1809FF001819FF00D1124EB5BFF4D86
:10BB60008281898381E88A8381E08B839E01295FBA
:10BB70003F4F2C833D830680F781E02DCE01019657
:10BB80002887398719952885398510925A35672B6A
:10BB9000682B692B09F0B3CF8F818C7790E8F91669
:10BBA00009F193E8892B8F8341E061E870E2C801D5
:10BBB0000E94821E611571058105910509F48CCFE3
:10BBC00060EC7EE18EEC97E00E94881C68E170EAF0
:10BBD00080E090E081CF88E699E20E9425061092ED
:10BBE0005A358DCF90E0DECF4F925F926F927F9269
:10BBF0008F929F92AF92BF92CF92DF92EF92FF927D
:10BC00000F93CF93DF93CDB7DEB72597CDBFDEBFC0
:10BC10007C016B014A0159010D8382E0E816F104B1
:10BC20000CF160EF7EE18EEC97E00E94881CE5E06D
:10BC30004E2EE0EA5E2E612C712CC301B2012596D6
:10BC4000CDBFDEBFDF91CF910F91FF90EF90DF90DE
:10BC5000CF90BF90AF909F908F907F906F905F90AC
:10BC60004F9008956115710529F19B014FE760E040
:10BC700070E2C7010E94821E2B013C01672B682BDA
:10BC8000692BF1F4950141E06FE770E2C7010E9472
:10BC90005E22672B682B692B01F168EF7EE18EEC49
:10BCA00097E00E94881C68E1462E60EA562E612CBF
:10BCB000712CC3CF65E772E08EEC97E00E94881C80
:10BCC00064EF7EE18EEC97E00E94881C78E1472EBD
:10BCD00070EA572E612C712CB0CF960120583F4F3F
:10BCE00040E860E071E2C7010E945E22672B682B8A
:10BCF000692B69F06CEF7EE18EEC97E00E94881C66
:10BD000058E1452E50EA552E612C712C96CFF40146
:10BD10008081918199838A83828193819B838C83A3
:10BD20009E012B5F3F4F41E060E871E2C7010E9436
:10BD30005E22672B682B692B69F065E07FE18EEC52
:10BD400097E00E94881C48E1442E40EA542E612C62
:10BD5000712C73CF9E012F5F3F4F42E061E871E28B
:10BD6000C7010E945E22672B682B692B69F069E08E
:10BD70007FE18EEC97E00E94881C38E1432E30EA88
:10BD8000532E612C712C59CF95012F5F3F4F41E00D
:10BD900063E871E2C7010E945E22672B682B692B62
:10BDA00069F06DE07FE18EEC97E00E94881C28E14D
:10BDB000422E20EA522E612C712C3FCF9E012D5F26
:10BDC0003F4F42E064E871E2C7010E945E22672BA8
:10BDD000682B692B69F061E17FE18EEC97E00E94AE
:10BDE000881C98E1492E90EA592E612C712C25CFA0
:10BDF00095012E5F3F4F41E066E871E2C7010E9466
:10BE00005E22672B682B692B09F417CF65E17FE170
:10BE10008EEC97E00E94881C88E1482E80EA582E1C
:10BE2000612C712C0ACFCF92DF92EF92FF920F9389
:10BE30001F93CF93DF93EC018A0182309105BCF010
:10BE400069E270E28EEC97E00E94881C25E0C22E29
:10BE500020EAD22EE12CF12CC701B601DF91CF915F
:10BE60001F910F91FF90EF90DF90CF900895611593
:10BE7000710521F19B0148E060E870E20E94821E9A
:10BE80006B017C01672B682B692BF1F4980146E06C
:10BE900060E070E3CE010E945E22672B682B692B65
:10BEA000D9F261E370E28EEC97E00E94881C88E191
:10BEB000C82E80EAD82EE12CF12CCECF65E772E0B7
:10BEC0008EEC97E00E94881C6DE270E28EEC97E0A9
:10BED0000E94881C98E1C92E90EAD92EE12CF12C01
:10BEE000BBCF4F925F926F927F92AF92BF92CF92F1
:10BEF000DF92EF92FF921F93CF93DF93CDB7DEB720
:10BF00002997CDBFDEBF5C01162F80915A3588235B
:10BF1000D1F16EE473E08EEC97E00E94881C809172
:10BF20005A35882309F470C16EE473E08EEC97E013
:10BF30000E94881C80915A35882309F46BC16EE4F5
:10BF400073E08EEC97E00E94881C25E0C22E20EA68
:10BF5000D22EE12CF12C9F81892F87788F8312308C
:10BF600041F58885837F846088879E01285F3F4FE5
:10BF700041E064E870E2C5010E945E226C297D29DF
:10BF80008E299F292EC081E080935A3582E0A81621
:10BF9000B1040CF47BC010925A3595E0C92E90EA9A
:10BFA000D92EE12CF12C9F81892F87788F83123035
:10BFB000C1F2133008F44CC0133021F1143009F0F1
:10BFC00055C08985806189879E01275F3F4F41E089
:10BFD00065E870E2C5010E945E226C297D298E29E8
:10BFE0009F292996CDBFDEBFDF91CF911F91FF9092
:10BFF000EF90DF90CF90BF90AF907F906F905F9069
:10C000004F90089594789F8389858F7E89879E01BC
:10C01000275F3F4F41E065E870E2C5010E945E2264
:10C020002B013C019E01295F3F4F41E063E070E03E
:10C03000C5010E945E22DC01CB0184299529A62935
:10C04000B729BC01CD016C297D298E299F29C9CF33
:10C05000113061F494789F838885837F88879E015F
:10C06000285F3F4F41E064E870E2D7CF94789F8328
:10C070009E01295F3F4F41E063E070E0C5010E94EF
:10C080005E226C297D298E299F29ABCF8AE18A9D6A
:10C09000F0018B9DF00D1124EB5BFF4D818180320F
:10C0A00081F080E28E839E012A5F3F4F41E06FEF77
:10C0B00070E2C5010E946820672B682B692B09F08C
:10C0C0009EC08AE18A9DF0018B9DF00D1124EB5BEF
:10C0D000FF4D8281898385E88A8381E08B83CE014D
:10C0E00009968C839D830680F781E02D089719952A
:10C0F00081E080935A358AE18A9DF0018B9DF00D95
:10C100001124EB5BFF4D8181803281F080E28E83D0
:10C110009E012A5F3F4F41E06FEF70E2C5010E9430
:10C120006820672B682B692B09F064C08AE18A9D1F
:10C13000F0018B9DF00D1124EB5BFF4D8281898313
:10C1400084E88A8381E08B83CE0108968C839D836B
:10C150000680F781E02D0797199581E080935A3585
:10C160008AE18A9DF0018B9DF00D1124EB5BFF4D60
:10C170008181882381F01E829E012A5F3F4F41E02A
:10C180006FEF70E0C5010E9468206B017C01672B96
:10C19000682B692B41F58AE18A9DF0018B9DF00D9A
:10C1A0001124EB5BFF4D8281898383E08A8381E0E8
:10C1B0008B83CE0107968C839D830680F781E02DCB
:10C1C0000697199510925A35672B682B692B39F011
:10C1D00087E1C82E80EAD82EE12CF12CE4CEC12CC8
:10C1E000D12C7601E0CE88E699E20E9425061092D5
:10C1F0005A35D9CE88E699E20E942506AECF88E668
:10C2000099E20E94250674CF82E0A816B1040CF4CE
:10C210006FCFC1CE82E0A816B1040CF49ECFBBCE86
:10C22000AF92BF92CF92DF92EF92FF920F931F9344
:10C23000CF93DF9300D000D0CDB7DEB75C018B0188
:10C240006115710509F458C0FB0120813181211568
:10C25000F0E43F0740F5C90188279F7399832A833B
:10C26000FB01828193818115F0E49F0748F169E821
:10C2700072E28EEC97E00E94881C79E0C72E70EA8B
:10C28000D72EE12CF12CC701B6012696CDBFDEBF1B
:10C29000DF91CF911F910F91FF90EF90DF90CF90A2
:10C2A000BF90AF90089562E872E28EEC97E00E9432
:10C2B000881CE9E0CE2EE0EADE2EE12CF12CE3CF63
:10C2C0009C0122273F733B838C8322E0A216B1049A
:10C2D00004F168E772E08EEC97E00E94881C61E947
:10C2E00072E28EEC97E00E94881C68E1C62E60EA3C
:10C2F000D62EE12CF12CC7CF6FE772E28EEC97E0DF
:10C300000E94881CF0E1CF2EF0EADF2EE12CF12C08
:10C31000BACF9E012F5F3F4F44E06AEA70E0C5014B
:10C320000E94821E6B017C01672B682B692BB9F67A
:10C33000F801848195818115F0E49F07C0F4998309
:10C340008A83F80186818B83878190858115F0E44B
:10C350009F07D0F06FE972E28EEC97E00E94881C94
:10C3600049E0C42E40EAD42EE12CF12C8CCF65E9B3
:10C3700072E28EEC97E00E94881C59E0C52E50EACC
:10C38000D52EE12CF12C7FCF9C838D83F801818504
:10C390008E839E012F5F3F4F46E062EB70E0C50148
:10C3A0000E945E22672B682B692B11F5F8018285AC
:10C3B00093858115F0E49F0740F59C0122273F7388
:10C3C000F8019485932B99838A83858596858115B9
:10C3D000F0E49F0738F169EB72E28EEC97E00E947F
:10C3E000881C99E0C92E90EAD92EE12CF12C4BCF74
:10C3F0006BEA72E28EEC97E00E94881C38E1C32E53
:10C4000030EAD32EE12CF12C3ECF6FEA72E28EECB3
:10C4100097E00E94881C29E0C22E20EAD22EE12C4F
:10C42000F12C31CF9C0122273F733B838C839E01EB
:10C430002F5F3F4F44E066EC70E0C5010E945E2232
:10C44000672B682B692B09F41ECF61EC72E28EEC2E
:10C4500097E00E94881C88E1C82E80EAD82EE12C43
:10C46000F12C11CF6115710579F0823091055CF0E6
:10C470006BEB7BE08EEC97E00E94881C65E070EA35
:10C4800080E090E00895CCCE68EB7BE08EEC97E006
:10C490000E94881C60E170EA80E090E00895EF92CD
:10C4A000FF920F931F93CF93DF93CDB7DEB72E97F5
:10C4B000CDBFDEBF7C018B016115710509F485C01C
:10C4C000FB01208131812115F0E43F0708F069C0AC
:10C4D000C90188279F7399832A83FB0122813381B5
:10C4E0002115F0E43F0708F07BC0C90188279F733E
:10C4F0009B832C839E012F5F3F4F44E06EEA70E0E8
:10C50000C7010E945E22672B682B692B09F073C05C
:10C51000F801848195818115F0E49F0708F076C0C9
:10C5200099838A83F80186818B8387819085811521
:10C53000F0E49F0708F075C09C838D83F801818526
:10C540008E83828593858115F0E49F0708F074C07F
:10C550009F838887F801848595858115F0E49F077E
:10C5600008F075C099878A87F801868597858115B7
:10C57000F0E49F0708F076C09B878C87F8018089DC
:10C5800091898115F0E49F0708F477C063E173E2B5
:10C590008EEC97E00E94881C69E070EA80E090E0F1
:10C5A0000AC065ED72E28EEC97E00E94881C69E09B
:10C5B00070EA80E090E02E96CDBFDEBFDF91CF9194
:10C5C0001F910F91FF90EF90089562ED72E28EEC53
:10C5D00097E00E94881C60E170EA80E090E0EBCF79
:10C5E0006DED72E28EEC97E00E94881C69E070EAC3
:10C5F00080E090E0E0CF66EE72E28EEC97E00E9481
:10C60000881C68E170EA80E090E0D5CF6AEE72E2C3
:10C610008EEC97E00E94881C69E070EA80E090E070
:10C62000CACF64EF72E28EEC97E00E94881C69E04A
:10C6300070EA80E090E0BFCF6EEF72E28EEC97E0A0
:10C640000E94881C69E070EA80E090E0B4CF65E069
:10C6500073E28EEC97E00E94881C69E070EA80E04B
:10C6600090E0A9CF6CE073E28EEC97E00E94881C0A
:10C6700069E070EA80E090E09ECF9D878E879E0102
:10C680002F5F3F4F4EE068EB70E0C7010E945E22D3
:10C69000672B682B692B21F460E070E0CB018BCF16
:10C6A0006BE173E28EEC97E00E94881C68E170EA0F
:10C6B00080E090E080CF6115710579F082309105BE
:10C6C0005CF065EE7BE08EEC97E00E94881C65E0F4
:10C6D00070EA80E090E00895E2CE62EE7BE08EECBE
:10C6E00097E00E94881C60E170EA80E090E0089585
:10C6F0008F929F92AF92BF92CF92DF92EF92FF9272
:10C700000F931F93CF93DF93CDB7DEB7A397CDBF22
:10C71000DEBF8C010297D4F060ED7AE18EEC97E0F9
:10C720000E94881C65E070EA80E090E0A396CDBF8F
:10C73000DEBFDF91CF911F910F91FF90EF90DF90BF
:10C74000CF90BF90AF909F908F900895862F877F56
:10C75000813009F459C01AA292E0C92E22E0D22EEB
:10C760007E0193E2E90EF11C970141E06CEE70E06E
:10C77000C8010E9476248BA1887F8D298BA3970105
:10C7800041E06CEE70E0C8010E94821E970141E01A
:10C790006DEE70E0C8010E9476249BA1987FD92A93
:10C7A000DBA2970141E06DEE70E0C8010E94821E9D
:10C7B000970141E06EEE70E0C8010E9476248BA1E3
:10C7C000887F8C298BA3970141E06EEE70E0C80151
:10C7D0000E94821E9E012E5D3F4F41E062E070E0AC
:10C7E000C8010E94821E611571058105910509F439
:10C7F0009DCF64EA7BE18EEC97E00E94881C68E1A3
:10C8000070EA80E090E092CF6AA3403209F44CC114
:10C8100008F4D9C0403409F468C0403609F0CFC1EB
:10C820008AE1809FF001819FF00D1124EB5BFF4DA9
:10C8300080898111A4C184E019828A8383E08B837B
:10C8400080E68C831D8281E08E8382E08F8381E786
:10C850008887CE0101967C019C0148E062EA70E085
:10C86000C8010E945E22672B682B692B09F092C1D8
:10C87000CC24C394D12CC982DA8281E490E08B83EA
:10C880009C83CB86DC86CD86DE86CD82DE8285E00B
:10C890008F831F86188A198A1A8A188619861A861B
:10C8A000B701C801FCDD85E890E08B8B9C8B85E5AA
:10C8B00093E08D8B9E8B8DE692E08F8B988F81E33A
:10C8C000898F1A8E1B8E1C8ECD8EDE8E18A219A219
:10C8D0001F8EBE016D5E7F4FC801A2DC8AA18660FB
:10C8E0008AA3C12CB4E0DB2E3BCF8AE1809FF0010C
:10C8F000819FF00D1124EB5BFF4D8089811141C1B7
:10C9000084E019828A8383E08B8380E68C831D8296
:10C9100081E08E8382E08F8381E78887CE01019654
:10C920007C019C0148E062EA70E0C8010E945E223E
:10C93000672B682B692B09F026C1CC24C394D12C1A
:10C94000C982DA8280E490E08B839C83CB86DC868C
:10C95000CD86DE86CD82DE8283E08F8320EB31E0E0
:10C960002F87388B298B3A8B49E3A42EBB24B394B1
:10C97000A886B9868A87B701C80191DD85E890E06D
:10C980008B8B9C8B85E593E08D8B9E8B80E792E073
:10C990008F8B988F88E1898F87E391E08A8F9B8FB7
:10C9A00089E18C8FCD8EDE8EA8A2B9A21F8EBE012A
:10C9B0006D5E7F4FC80134DC8AA184618AA3C12CDB
:10C9C00054E0D52ECDCE4111FAC08AE1809FF0010E
:10C9D000819FF00D1124EB5BFF4D80898111CBC04D
:10C9E00084E019828A8383E08B838AE58C831D82AD
:10C9F00081E08E8382E08F838DE08887CE0101966F
:10CA00007C019C0148E062EA70E0C8010E945E225D
:10CA1000672B682B692B09F0C4C0CC24C394D12C9C
:10CA2000C982DA828FE390E08B839C83CB86DC869D
:10CA3000CD86DE8675E0872E912C8D829E8283E0E6
:10CA40008F832DEA31E02F87388B298B3A8BEBE0EF
:10CA5000AE2EBB24B394A886B9868A87B701C801D5
:10CA60001EDD88E790E08B8B9C8B88E493E08D8BB8
:10CA70009E8BCF8AD88E86E1898F87E091E08A8F5E
:10CA80009B8F87E18C8F8D8E9E8EA8A2B9A21F8E60
:10CA9000BE016D5E7F4FC801C3DB8AA180618AA39E
:10CAA000C12CF4E0DF2E5CCE8AE1809FF001819FF3
:10CAB000F00D1124EB5BFF4D808981115EC084E095
:10CAC00019828A8383E08B838AE58C831D8281E0CF
:10CAD0008E8382E08F838DE08887CE0101967C0172
:10CAE0009C0148E062EA70E0C8010E945E22672B68
:10CAF000682B692B09F05CC081E090E089839A8300
:10CB00002FE330E02B833C838B879C878D879E8728
:10CB100087E0C82ED12CCD82DE8286E08F831F86EF
:10CB2000188A198A1A8A188619861A86B701C801BE
:10CB3000B6DC8BE790E08B8B9C8B8BE493E08D8B4A
:10CB40009E8B8BE092E08F8B988F8DE2898F1A8E6F
:10CB50001B8E1C8ECD8EDE8E18A219A21F8EBE01DA
:10CB60006D5E7F4FC8015CDB8AA182608AA3C12C05
:10CB700094E0D92EF5CD81E034CF81E0A1CF81E0E2
:10CB80005BCE81E0BECE6EE672E28EEC97E00E9454
:10CB9000881CD3CE6EE672E28EEC97E00E94881C71
:10CBA00067CE6EE672E28EEC97E00E94881C35CF6D
:10CBB0006EE672E28EEC97E00E94881C9DCF7E01AB
:10CBC00083E2E80EF11C970141E06CEE70E0C801D1
:10CBD0000E9476248BA1887F84608BA3C12C84E083
:10CBE000D82ECDCD4F925F926F927F928F929F926F
:10CBF000AF92BF92CF92DF92EF92FF920F931F936B
:10CC0000CF93DF93CDB7DEB76F97CDBFDEBF6C019B
:10CC10007B01188E198E1A8E1B8E1E8E1F8E1C8EF7
:10CC20001D8E87E1FB0180838EE18C9DF0018D9D3F
:10CC3000F00D1124E15AFA4C0288F389E02D0488A2
:10CC4000F589E02D8E010F5F1F4F9E01245E3F4F3F
:10CC5000AE01425E5F4FBE01685E7F4FC60119950F
:10CC60004B015C01672B682B692B09F08EC08B8907
:10CC7000811174C08E89811171C08EE18C9DF0018B
:10CC80008D9DF00D1124E15AFA4C9485992309F4F5
:10CC90004DC0888C998CAA8CBB8C0E8D1F8DAC8D51
:10CCA000BD8D0584F685E02D80E041815281638150
:10CCB000748184169506A606B70608F463C051E091
:10CCC00040E04580568067807084481459046A04A7
:10CCD0007B0408F450E0252F342F4185528504173A
:10CCE000150708F44CC071E060E043855485401797
:10CCF000510708F470E0472F562F65857685A617F3
:10CD0000B707D0F1CC24C394D12C678570896A17FA
:10CD10007B0708F4C12CB601232B21F0452B11F021
:10CD2000672BE1F58F5F71968913BFCF63E078ECD5
:10CD300080E090E06F96CDBFDEBFDF91CF911F9175
:10CD40000F91FF90EF90DF90CF90BF90AF909F90AA
:10CD50008F907F906F905F904F90089584E1E3E310
:10CD6000FAE2A9EEBAE301900D928A95E1F789EE15
:10CD70009AE30E94250681CF60E070E0CDCF40E0CD
:10CD800050E0BBCF20E030E0A8CF60EC7BE18EEC40
:10CD900097E00E94881CB401C501CCCF2E813F8151
:10CDA0008081F70180838F3039F0853151F060E068
:10CDB00070E080E090E0BECF28373540C1F785E1D4
:10CDC00004C02039364099F78FE0F701808360E096
:10CDD00070E080E090E0AECFCF92DF92EF92FF92D2
:10CDE000892B09F5A62FB0E0AA0FBB1F80917D20EB
:10CDF00090917E20A80FB91F11968C91882349F03D
:10CE000060E070E080E090E0FF90EF90DF90CF90E6
:10CE10000895862F90E08D319105A0F069E070ECC7
:10CE200080E090E0F1CF6EE77CE18EEC97E00E942D
:10CE3000881C66E070EC80E090E0FF90EF90DF905F
:10CE4000CF900895FC018827E55FFB4F8F4F0C942E
:10CE50007FCF80918520909186208160809385206E
:10CE600090938620E0917135F09172350084F185C0
:10CE7000E02D6BE080E090E019956B017C01672B61
:10CE8000682B692B09F4BCCF6DE67DE18EEC97E051
:10CE90000E94881CB601C701B7CF80918520909170
:10CEA000862082608093852090938620E091713562
:10CEB000F09172350084F185E02D6BE080E090E028
:10CEC00019956B017C01672B682B692B09F498CFAE
:10CED00062E67DE1DBCF80918520909186208064A1
:10CEE0008093852090938620E0917135F091723582
:10CEF0000084F185E02D6BE080E090E019956B01F6
:10CF00007C01672B682B692B09F47ACF6BE27DE1FA
:10CF1000BDCF809185209091862080688093852068
:10CF200090938620E0917135F09172350084F185FF
:10CF3000E02D6BE080E090E019956B017C01672BA0
:10CF4000682B692B09F45CCF6FE17DE19FCFE09105
:10CF50007135F09172350084F185E02D61E280E059
:10CF600090E019956B017C01672B682B692B09F404
:10CF700047CF68E77DE18ACF809185209091862018
:10CF800080618093852090938620E0917135F091A7
:10CF900072350084F185E02D6BE080E090E019951A
:10CFA0006B017C01672B682B692B09F429CF67E59E
:10CFB0007DE16CCF80918520909186208062809366
:10CFC000852090938620E0917135F0917235008430
:10CFD000F185E02D6BE080E090E019956B017C011C
:10CFE000672B682B692B09F40BCF6CE47DE14ECFE6
:10CFF00080918520909186208460809385209093F5
:10D000008620E0917135F09172350084F185E02D34
:10D010006BE080E090E019956B017C01672B682B39
:10D02000692B09F4EDCE61E47DE130CF809185205C
:10D030009091862088608093852090938620E0914F
:10D040007135F09172350084F185E02D6BE080E060
:10D0500090E019956B017C01672B682B692B09F413
:10D06000CFCE66E37DE112CFE0917535F091763554
:10D07000808181508B3090F0E0917135F091723564
:10D080000084F185E02D67E080E090E019956B0168
:10D090007C01672B682B692B09F03AC1E09171354F
:10D0A000F09172350084F185E02D68E180E090E038
:10D0B00019956B017C01672B682B692B09F4A0CEB5
:10D0C00063E17DE1E3CEE0917535F09176358081C5
:10D0D000853009F4CEC0893009F4CBC09AEF980F9F
:10D0E000933008F4B4C096EF980F923008F4AFC0B4
:10D0F0008150843008F4ABC0E0917135F091723505
:10D100000084F185E02D61E080E090E019956B01ED
:10D110007C01672B682B692B09F0F4C0E091713515
:10D12000F09172350084F185E02D62E080E090E0BE
:10D1300019956B017C01672B682B692B09F0E5C001
:10D14000E0917135F09172350084F185E02D63E056
:10D1500080E090E019956B017C01672B682B692BAF
:10D1600009F0D9C0E0917135F09172350084F185F4
:10D17000E02D64E080E090E019956B017C01672B65
:10D18000682B692B09F0CDC0E0917135F0917235B3
:10D190000084F185E02D65E080E090E019956B0159
:10D1A0007C01672B682B692B09F0C7C0E0917135B2
:10D1B000F09172350084F185E02D66E080E090E02A
:10D1C00019956B017C01672B682B692B09F0B2C0A4
:10D1D000E0917135F09172350084F185E02D68E0C1
:10D1E00080E090E019956B017C01672B682B692B1F
:10D1F00009F09DC0E0917135F09172350084F185A0
:10D20000E02D69E080E090E019956B017C01672BCF
:10D21000682B692B09F088C0E0917135F091723567
:10D220000084F185E02D6AE080E090E019956B01C3
:10D230007C01672B682B692B09F070C0E091753574
:10D24000F091763580818530A1F0893091F0E091C0
:10D250007135F09172350084F185E02D66E180E052
:10D2600090E019956B017C01672B682B692B09F005
:10D2700043C0E0917135F09172350084F185E02D65
:10D2800067E180E090E019956B017C01672B682BCA
:10D29000692B79F5E0917535F0917635808185506F
:10D2A000873008F4ADCDE0917135F091723500848E
:10D2B000F185E02D6DE180E090E019956B017C0136
:10D2C000672B682B692BD9F4E0917135F091723599
:10D2D0000084F185E02D6EE180E090E019956B010E
:10D2E0007C01672B682B692B09F48ACD66EF7CE102
:10D2F000CDCD62EE7CE1CACD6AED7CE1C7CD60EFB9
:10D300007CE1C4CD67E97CE1C1CD6EE97CE1BECDB5
:10D310006CE07DE1BBCD65EA7CE1B8CD60ED7CE100
:10D32000B5CD6CEA7CE1B2CD68EC7CE1AFCD61ECCF
:10D330007CE1ACCD6AEB7CE1A9CD63EB7CE1A6CDD1
:10D340002F923F924F925F926F927F928F929F9215
:10D35000AF92BF92CF92DF92EF92FF920F931F9303
:10D36000CF93DF93CDB7DEB72C97CDBFDEBF1C01C7
:10D370003B012B01440C551CF201EE0FFF1FEE0F79
:10D38000FF1FEE0FFF1FE40DF51DE358FA4C81E07F
:10D39000808311821382148215821286138614866A
:10D3A000158616861786108A118A430182949294F4
:10D3B00070EF9722982487229824F401E758FF4DB4
:10D3C0000680F781E02D11822EE1269DC001279D68
:10D3D000900D11249C01215A3A4C5901B901C30105
:10D3E0000E94B386672B682B692B41F18DE992E28D
:10D3F0000E942506F301E25AFA4C80810E94A6861B
:10D4000024E100ECB12C10E0622F702F8B2D912FB6
:10D410002C96CDBFDEBFDF91CF911F910F91FF9072
:10D42000EF90DF90CF90BF90AF909F908F907F90C4
:10D430006F905F904F903F902F900895D1016D9223
:10D440007C92D5015296ED91FC91539715960D91D2
:10D450001C91169717962D913C9118970190F08189
:10D46000E02D93E8C92E96E8D92E4EE3E42E47E747
:10D47000F42E14964C91149713966C91C301199540
:10D480006B017C01672B682B692B19F5D50152962E
:10D49000ED91FC9153970480F581E02DBE016B5F07
:10D4A0007F4FC30119956B017C01672B682B692B9A
:10D4B00081F48D8190E08C309105D0F0D5015696A5
:10D4C000ED91FC915797108229E000ECB12C10E00F
:10D4D0009BCF8DE992E20E942506F301E25AFA4CB5
:10D4E00080810E94A6862C2D0D2DBE2C1F2D8CCF49
:10D4F000FC018827E85DFB4F8F4F0C947FCF8EE1B6
:10D50000869DF001879DF00D1124E15AFA4C0688A2
:10D51000F789E02D8AE080831EE1169DC001179DEA
:10D52000900D1124FC01E15AFA4CEE83FF8302882E
:10D53000F389E02D04ACF5ADE02D68E0C301199549
:10D540006B017C01672B682B692B19F69401275816
:10D550003F4D2A873B8780E8D9011E968C93AE8188
:10D56000BF815296ED91FC915397E658FF4F019081
:10D57000F081E02D812CAA24A394C12CE12C00E0A1
:10D5800020E040E060E8C30119956B017C01672B46
:10D59000682B692B09F09DCFAE81BF815296ED912A
:10D5A000FC915397E658FF4F0190F081E02D812CBC
:10D5B000A12CC12CE12C00E020E040E0AA85BB8535
:10D5C0001E966C91C30119956B017C01672B682B2A
:10D5D000692B09F07ECFF101A080B1801A9DC001B6
:10D5E0001B9D900D11248C01015A1A4CD8015296A2
:10D5F000ED91FC915397EA5AFF4F0190F081E02D95
:10D6000060E0C50119956B017C01672B682B692BC4
:10D6100009F0B8C1D8015296ED91FC915397EC5A9C
:10D62000FF4F0190F081E02D40E068E0C5011995C1
:10D630006E837F8388879987672B682B692B09F016
:10D64000B8C1D8015296ED91FC915397E85AFF4F1B
:10D650000190F081E02DBE016F5F7F4FC5011995EC
:10D660006E837F8388879987672B682B692B09F0E6
:10D67000ABC189812091B8303091B9304091B6303A
:10D680005091B7302115310521F44115510509F4A8
:10D69000ACC090E08417950709F499C12091BC3083
:10D6A0003091BD304091BA305091BB3021153105D9
:10D6B00021F44115510509F498C08417950709F420
:10D6C00086C12091C0303091C1304091BE30509120
:10D6D000BF302115310521F44115510509F485C0EC
:10D6E0008417950709F473C12091C4303091C53077
:10D6F0004091C2305091C3302115310521F44115BC
:10D70000510509F472C08417950709F460C120918E
:10D71000C8303091C9304091C6305091C730211582
:10D72000310521F44115510509F45FC084179507AF
:10D7300009F44DC12091CC303091CD304091CA30A8
:10D740005091CB302115310521F44115510509F4D3
:10D750004CC08417950709F43AC12091D03030911C
:10D76000D1304091CE305091CF302115310519F490
:10D7700041155105D1F18417950709F428C120916D
:10D78000D4303091D5304091D2305091D3302115E2
:10D79000310519F44115510541F18417950709F434
:10D7A00016C12091D8303091D9304091D630509167
:10D7B000D7302115310519F441155105B1F0841701
:10D7C000950709F404C12091DC303091DD3040919F
:10D7D000DA305091DB302115310519F4411551052E
:10D7E00021F08417950709F4F2C08EE1869DF001BF
:10D7F000879DF00D1124E15AFA4CA289B389A65AEB
:10D80000BF4F008D118DED91FC9124E740E062E067
:10D81000C30119956B017C01672B682B692B09F0FB
:10D8200058CEF201EE0FFF1FEE0FFF1FEE0FFF1F8E
:10D83000E40DF51DE358FA4C81E08087F301E25ACC
:10D84000FA4C80810E94A686262F072FB82E192F0A
:10D85000DBCD8EE1869DF001879DF00D1124E15A0C
:10D86000FA4C0688F789E02D88E0808355CE8EE15A
:10D87000869DF001879DF00D1124E15AFA4C06882F
:10D88000F789E02D89E0808347CE8EE1869DF00107
:10D89000879DF00D1124E15AFA4C0688F789E02D96
:10D8A00087E0808339CE8EE1869DF001879DF00D63
:10D8B0001124E15AFA4C0688F789E02D86E080832E
:10D8C0002BCE8EE1869DF001879DF00D1124E15A4B
:10D8D000FA4C0688F789E02D85E080831DCE8EE125
:10D8E000869DF001879DF00D1124E15AFA4C0688BF
:10D8F000F789E02D84E080830FCE8EE1869DF001D4
:10D90000879DF00D1124E15AFA4C0688F789E02D25
:10D9100083E0808301CE8EE1869DF001879DF00D2E
:10D920001124E15AFA4C0688F789E02D82E08083C1
:10D93000F3CD8EE1869DF001879DF00D1124E15A13
:10D94000FA4C0688F789E02D81E08083E5CD8EE1F1
:10D95000869DF001879DF00D1124E15AFA4C06884E
:10D96000F789E02D1082D8CD8EE1869DF001879D4C
:10D97000F00D1124E15AFA4C0688F789E02D8BE06E
:10D980008083CACD6BE97DE18EEC97E00E94881C14
:10D990002C2D0D2DBE2C1F2D8DE992E22C870E947F
:10D9A0002506F301E25AFA4C80810E94A6862C8556
:10D9B0002BCD6FE97DE18EEC97E00E94881C2E81D3
:10D9C0000F81B8841985E8CF62EA7DE1F4CF8EE15A
:10D9D0008A9DF0018B9DF00D1124E15AFA4C208FA5
:10D9E000318F03CF8F929F92AF92BF92CF92DF92EF
:10D9F000EF92FF920F931F93CF93DF93CDB7DEB7D4
:10DA0000CC54D109CDBFDEBFE82FCE0101965C0119
:10DA100088E2D5011D928A95E9F78E2F90E0FC01EE
:10DA20003B97EA31F10508F0F0C0962E8827EC5CB0
:10DA3000FB4F8F4F0C947FCFE0917135F091723591
:10DA4000E85BFF4F0190F081E02DBE01675D7F4FE5
:10DA500080E090E019958091882089A49AA4ABA4D5
:10DA6000BCA49501840181110BC08091813588236C
:10DA700039F03F7E4801590109A71AA72BA73CA7F7
:10DA800036FDAFC6809185209091862087FFBBC769
:10DA900040918535443011F40C94297740918120D0
:10DAA00050918220609183207091842076FD04C083
:10DAB0008091852086FF07C0809185358350823014
:10DAC00010F40C940C7634FF5FC774FD97C78091F7
:10DAD00085358350823008F420C735FFF6C6809123
:10DAE000812090918220A0918320B0918420B5FF65
:10DAF00004C04091852045FF07C0409185354350C3
:10DB0000423010F40C94697633FF47C0B3FF04C071
:10DB10002091852021FF79C0209185352350223026
:10DB200008F073C0B8608093812090938220A09306
:10DB30008320B0938420E0917D20F0917E2087A9FE
:10DB4000811163C080915E350E94A686E0918D357B
:10DB5000F0918E358BE1199580915E350E94A286F9
:10DB600080918520909186208D7F80938520909351
:10DB70008620E0917F20F091802084E6838F89A524
:10DB80009AA5ABA5BCA5B3FD40C080918120909122
:10DB90008220A0918320B0918420B3FD04C0209105
:10DBA000852020FF32C0209185352350223068F532
:10DBB000B77F8093812090938220A0938320B0939D
:10DBC0008420E0917D20F0917E2081AD81111DC0E7
:10DBD00080915E350E94A686E0918D35F0918E355C
:10DBE0008CE1199580915E350E94A28680918520F6
:10DBF000909186208E7F8093852090938620E0915F
:10DC00007F20F09180208FEF838FC45BDF4FCDBFEB
:10DC1000DEBFDF91CF911F910F91FF90EF90DF90CA
:10DC2000CF90BF90AF909F908F900895E0917D200E
:10DC3000F0917E20EE5BFF4F81818111E6CF8091D4
:10DC40005E350E94A686E0918D35F0918E3581E299
:10DC5000199580915E350E94A286D7CFE0917135EB
:10DC6000F0917235EA58FF4F8E010C5F1F4F019003
:10DC7000F081E02DA801B50180E090E01995D50173
:10DC80009E012C5E3F4F80E09D91890FA217B30744
:10DC9000D9F78111BACF898189A780E1F801DE0126
:10DCA0009A9601900D928A95E1F7E0917D20F0918E
:10DCB0007E2087818111A9CF80915E350E94A68642
:10DCC000E0918B35F0918C3541E1BE01675D7F4F6E
:10DCD00083E0199580915E350E94A28696CFE091EF
:10DCE0007135F0917235EC58FF4F8E010C5F1F4F6C
:10DCF0000190F081E02D9801AE014E5F5F4FB501BC
:10DD000080E090E01995D5019E012C5E3F4F80E0A8
:10DD10009D91890FA217B307D9F7811176CF898119
:10DD200089A78A81982F991F9927991F9AA786FBFF
:10DD3000992790F99BA787708CA780E1F801DE01F5
:10DD40009D9601900D928A95E1F7E0917D20F091EA
:10DD50007E208581811159CF80915E350E94A686F3
:10DD6000E0918B35F0918C3544E1BE01675D7F4FCA
:10DD700082E0199580915E350E94A28646CFE0919F
:10DD80007135F0917235EE58FF4F0190F081E02D22
:10DD90009E01255D3F4FAE01465D5F4FBE01675D51
:10DDA0007F4F80E090E0199599818A81980F8B814F
:10DDB000980F8C81980F8D81890F09F026CFE09103
:10DDC0007D20F0917E20818581111FCF80915E356D
:10DDD0000E94A686E0918B35F0918C354EE1BE0114
:10DDE000675D7F4F84E0199580915E350E94A28621
:10DDF0000CCFE0917135F0917235E059FF4F0190F1
:10DE0000F081E02DCE0105966C01DE0114967D01B6
:10DE10008E010D5F1F4F9E012E5F3F4FA50160E0F9
:10DE200080E090E0199509811A81802F810F3B8154
:10DE3000830F2C81820F9D81890F4E81840FAF80CB
:10DE40008A0DB8848B0DB9858B0FAA858A0F9B84A8
:10DE5000890DFC858F0FED858E0FFE848F0D7F85DC
:10DE6000870F6889860F5989850F09F0CECE09A7DB
:10DE70001AA73BA72CA7292F207630E036952795A7
:10DE8000329522952F7023273F7023272DA794FBCF
:10DE9000882780F98EA7092F0C7010E0169507953A
:10DEA000169507950FA7937098AB842F829586954A
:10DEB0008695837089AB842F807390E092958295CC
:10DEC0008F7089279F7089278AAB4F704BAB8A2D43
:10DED00083708CAB8B2D8F778DABBF70BEABAFAB30
:10DEE00098AEF9AFEAAFFBAE7CAF6DAF5EAFE0913D
:10DEF0007135F091723541E02130310509F040E093
:10DF000006A4F7A5E02D60E080E090E01995E0918F
:10DF10007135F0917235E05CFF4F0190F081E02D9A
:10DF20006EA980E090E01995E0917D20F0917E202F
:10DF3000838581116ACE80915E350E94A686E0912C
:10DF40008B35F0918C3546E1BE01675D7F4F85E0F2
:10DF5000199580915E350E94A28657CEE091713569
:10DF6000F0917235E059FF4F0190F081E02DCE0124
:10DF700005966C01DE0114967D018E010D5F1F4F29
:10DF80009E012E5F3F4FA50165E080E090E019956E
:10DF900088A1843008F071C4F5019E01205E3F4FD6
:10DFA00080E09191890FE217F307D9F781112DCE07
:10DFB000898189A78A818AA78B818BA78C818CA76D
:10DFC0008D818DA78E818EA78F818FA78885829561
:10DFD0008695877088AB898582958F7089AB8A8595
:10DFE00082958F708AAB88E1FE013896DE01D39668
:10DFF00001900D928A95E1F7E0917D20F0917E20CD
:10E000008585811102CE80915E350E94A686E091C1
:10E010008B35F0918C3542E2BE01675D7F4F86E023
:10E02000199580915E350E94A286EFCDE091713501
:10E03000F0917235E059FF4F0190F081E02DCE0153
:10E0400005966C01DE0114967D018E010D5F1F4F58
:10E050009E012E5F3F4FA50164E080E090E019959E
:10E06000992009F49DC388A1843008F0CECD498160
:10E07000F5019E01205E3F4F80E09191890FE217EC
:10E08000F307D9F78111C1CD49A78A818AA78B816E
:10E090008BA78C818CA78D818DA78E818EA78F8178
:10E0A0008FA7888582958695877088AB89858295AC
:10E0B0008F7089AB8A8582958F708AAB85E1FE016E
:10E0C0003B9694CFE0917135F0917235E059FF4F56
:10E0D0000190F081E02DCE0105966C01DE011496D1
:10E0E0007D018E010D5F1F4F9E012E5F3F4FA501E9
:10E0F00061E080E090E01995F5019E01205E3F4FC0
:10E1000080E09191890FE217F307D9F781117DCD56
:10E11000898189A78A818AA78B818BA78C818CA70B
:10E1200088E0FE013596DE019D9601900D928A955C
:10E13000E1F780E1FE013D96DE01D59601900D925A
:10E140008A95E1F78D8D26968FAF2697E0917D20F9
:10E15000F0917E208785811158CD80915E350E9497
:10E16000A686E0918B35F0918C354DE1BE01675D5F
:10E170007F4F87E0199580915E350E94A28645CD3C
:10E18000E0917135F0917235E059FF4F0190F081C7
:10E19000E02DCE0105966C01DE0114967D018E0105
:10E1A0000D5F1F4F9E012E5F3F4FA50162E080E093
:10E1B00090E01995A981FA818A2F8F0FEB818E0F3C
:10E1C0007C81870F2D81820F9E81890F6F81860F41
:10E1D0004885840FB9858B0F5A85580F3B85530F9F
:10E1E0003C85530F3D85530F3E85350F09F00DCD0E
:10E1F000A9A7FAA7EBA77CA7822F82958F708DA77E
:10E2000027702EA7292F2C7130E03695279536954B
:10E2100027952FA7937098AB69AB4AAB8B2F881FBC
:10E220008827881F8BAB8B2F887790E096958795F2
:10E2300096958795969587958CABE0917920F0918E
:10E240007A208181811103C0403208F47FC5E091BA
:10E250007D20F0917E2081898111D7CC80915E351F
:10E260000E94A686E0918B35F0918C354CE0BE0182
:10E27000675D7F4F88E0199580915E350E94A28688
:10E28000C4CCE0917135F0917235E059FF4F0190A7
:10E29000F081E02DDE0115966D01CE0104967C0122
:10E2A0008E010D5F1F4F9E012E5F3F4FA50163E062
:10E2B00080E090E01995A981FA818A2F8F0FEB8178
:10E2C0008E0F7C81870F6D81860F5E81850F4F8158
:10E2D000840F3885830F9985890F2A85820F2B85B6
:10E2E000280F8C85280F8D85280F8E85820F09F0C9
:10E2F0008CCCA9A7FAA7EBA77CA76DA75EA74FA711
:10E3000038AB94FB882780F989AB93709AABE09186
:10E310007D20F0917E208389811177CC80915E35BC
:10E320000E94A686E0918B35F0918C354AE0BE01C3
:10E33000675D7F4F89E0199580915E350E94A286C6
:10E3400064CCE0917D20F0917E208181811114C008
:10E3500091E0691311C080915E350E94A686E0911C
:10E360008935F0918A3542E061E080E0199580912D
:10E370005E350E94A28649CC8381811146CC9110E2
:10E3800044CC82E0809385351092812010928220C7
:10E390001092832010928420E0917135F0917235B3
:10E3A00006A4F7A5E02D40E060E080E090E019953C
:10E3B000E0917135F0917235E05CFF4F0190F08192
:10E3C000E02D60E080E090E0199580915E350E943C
:10E3D000A686E0918935F0918A3542E061E081E0DE
:10E3E000199580915E350E94A2860FCCE0917D2028
:10E3F000F0917E208181811114C0A1E06A1311C0C7
:10E4000080915E350E94A686E0918935F0918A352B
:10E4100043E060E080E0199580915E350E94A2861D
:10E42000F4CB83818111F1CB9110EFCB82E080930B
:10E4300085351092812010928220109283201092B4
:10E440008420E0917135F091723506A4F7A5E02D96
:10E4500040E060E080E090E01995E0917135F09146
:10E460007235E05CFF4F0190F081E02D60E080E0CC
:10E4700090E0199580915E350E94A686E0918935DD
:10E48000F0918A3543E060E081E0199580915E3536
:10E490000E94A286BACBE0917B20F0917C20808103
:10E4A000882309F471C1813009F0AFCB91E0691381
:10E4B0006FC1E0917135F0917235EC57FF4F0190CB
:10E4C000F081E02D9E01245B3F4F41E061E270E06E
:10E4D00080E090E019952D968FAD2D978F718B313F
:10E4E00009F093CB83E08093853510928820BE019C
:10E4F000675D7F4F80E090E00E94F265E0917B20B5
:10E50000F0917C2089A58283E0917D20F0917E208E
:10E51000858981110EC080915E350E94A686E091AA
:10E520008D35F0918E358AE0199580915E350E9487
:10E53000A2868FEF9FEF8093852090938620E091B5
:10E540007135F09172350084F185E02D6BE080E04B
:10E5500090E019955ACBE0917D20F0917E20878D37
:10E56000811153CBB1E06B1350CB60938820809125
:10E570005E350E94A686E0918D35F0918E358FE054
:10E58000199580915E350E94A2863FCBE09171354E
:10E59000F0917235E65BFF4F0190F081E02DBE01F6
:10E5A000675D7F4F80E090E0199589A59AA5ABA59E
:10E5B000BCA588279927AA27BF700097A10528E046
:10E5C000B20709F43CC10097A10524E0B20709F4A1
:10E5D000EEC20097A10522E0B20709F4CAC2009773
:10E5E000A105B14009F011CBE0917D20F0917E2092
:10E5F00083A581110ACB80915E350E94A686E091A9
:10E600008D35F0918E3585E1199580915E350E94AA
:10E61000A286FBCAE0917135F0917235E858FF4F40
:10E620000190F081E02D9E012C5F3F4FAE014E5FC7
:10E630005F4FB50180E090E01995898189A78A81B3
:10E64000982F991F9927991F9AA7282F207730E094
:10E65000329522952F7023273F7023272BA78F7089
:10E660008CA78B81982F991F9927991F9DA7282FD9
:10E67000207330E0329522952F7023273F70232797
:10E680002EA78F708FA78CE1FE013496DE01D09605
:10E6900001900D928A95E1F7E0917D20F0917E2026
:10E6A00081A18111B2CA80915E350E94A686E09157
:10E6B0008B35F0918C3543E2BE01675D7F4F80E181
:10E6C000199580915E350E94A2869FCAE0917135AE
:10E6D000F0917235E257FF4F0190F081E02DAE01CD
:10E6E000475D5F4FBE01645B7F4F80E090E019950E
:10E6F00089A5853009F4D3C008F4CFC1863009F468
:10E7000074C2873009F081CAE0917D20F0917E20AB
:10E7100081A581117ACA80915E350E94A686E0911A
:10E720008D35F0918E3584E1199580915E350E948A
:10E73000A2866BCAE0917D20F0917E2083AD81118D
:10E7400064CA80915E350E94A686E0918D35F09175
:10E750008E358DE1199580915E350E94A28655CA4D
:10E76000E0917D20F0917E2085AD882309F458C08A
:10E77000E0917135F09172350084F185E02D6BE107
:10E7800080E090E0199541CA81E0681709F491CEC4
:10E7900091103BCA82E08093853587E1828335CA38
:10E7A000498149A78A818AA78B818BA78C818CA7F5
:10E7B0008D818DA78E818EA78F818FA718AA8985BD
:10E7C00082958F7089AB8A8582958F708AAB85E13F
:10E7D000FE013B96DE01D39601900D928A95E1F7FA
:10E7E00047CC40918120509182206091832070918C
:10E7F000842076FF13C18091852087FD0FC1809111
:10E800008535843009F462C1D901C8018827992768
:10E81000AA27B074892B8A2B8B2B09F054C946C9BF
:10E8200080915E350E94A686E0918D35F0918E35FF
:10E830008EE1199580915E350E94A28699CFE09174
:10E840007D20F0917E2081A98111DFC980915E3504
:10E850000E94A686E0918D35F0918E3588E119955C
:10E8600080915E350E94A28689A59AA5ABA5BCA51C
:10E8700088279927AA27BF70A6CEE0917135F0911D
:10E880007235E059FF4F0190F081E02D9E012E5F1F
:10E890003F4FA50166E080E090E019957DCBE091C7
:10E8A0007D20F0917E2085A18111AFC980915E35D8
:10E8B0000E94A686E0918D35F0918E3582E1199502
:10E8C00080915E350E94A286A0C98091812090919E
:10E8D0008220A0918320B0918420B5FD04C0409196
:10E8E000852044FF11C9409185354350423008F0DE
:10E8F0000BC9BF7D8093812090938220A0938320B9
:10E90000B0938420E0917D20F0917E20258D2223FC
:10E9100009F483C295018401F7C870614093812096
:10E92000509382206093832070938420E0917D2017
:10E93000F0917E2087898111D0C880915E350E9438
:10E94000A686E0918D35F0918E358BE019958091FA
:10E950005E350E94A2868091852090918620877FD7
:10E96000809385209093862089A49AA4ABA4BCA40C
:10E9700095018401B4FCB1C840918120509182205E
:10E98000609183207091842074FD04C08091852063
:10E9900082FFA3C8809185358350823008F09DC8DE
:10E9A0007F7E4093812050938220609383207093D8
:10E9B0008420E0917D20F0917E20818D81111BC00B
:10E9C00080915E350E94A686E0918D35F0918E355E
:10E9D0008CE0199580915E350E94A28680918520F9
:10E9E000909186208B7F809385209093862089A4A8
:10E9F0009AA4ABA4BCA4950184016FC88091852022
:10EA000083FD65C86AC88091853540918120509109
:10EA100082206091832070918420F3CE809185358F
:10EA20009DEF980F923008F04EC87064409381209B
:10EA3000509382206093832070938420E0917D2006
:10EA4000F0917E2093A99111DCCE80915E350E94D9
:10EA5000A686E0918D35F0918E3589E119958091EA
:10EA60005E350E94A28680918520909186208F77C6
:10EA700080938520909386208091853589A49AA4DF
:10EA8000ABA4BCA4950184014091812050918220C7
:10EA90006091832070918420B4CE843009F0B5C891
:10EAA000E0917D20F0917E2083A18111AEC88091FC
:10EAB0005E350E94A686E0918D35F0918E3581E11C
:10EAC000199580915E350E94A2869FC8809185200D
:10EAD0009091862032FFF0C090FD35C1F12C74601A
:10EAE00040938120509382206093832070938420F0
:10EAF000FF2009F489CEEF2DF0E0EE0FFF1FA0916B
:10EB00007D20B0917E20EA0FFB1F818181117CCE98
:10EB100080915E350E94A686E0918D35F0918E350C
:10EB20008F2D199580915E350E94A286B0E280916A
:10EB3000852090918620FB1609F497C19D7F9160F6
:10EB4000809385209093862089A49AA4ABA4BCA42A
:10EB500095018401D501C40188279927AA27B0749B
:10EB60004091812050918220609183207091842077
:10EB700051CEE0917D20F0917E2085A5811145C880
:10EB800080915E350E94A686E0918D35F0918E359C
:10EB900086E1199580915E350E94A28689A59AA585
:10EBA000ABA5BCA588279927AA27BF7018CDE091EF
:10EBB0007D20F0917E2087A5811127C880915E3548
:10EBC0000E94A686E0918D35F0918E3587E11995EA
:10EBD00080915E350E94A28689A59AA5ABA5BCA5A9
:10EBE00088279927AA27BF70F4CCE0917D20F09167
:10EBF0007E2087A1811109C880915E350E94A6867A
:10EC0000E0918D35F0918E3583E1199580915E35D7
:10EC10000E94A2860C94056E7F7B409381205093C6
:10EC200082206093832070938420E0917135F0916D
:10EC3000723506A4F7A5E02D40E060E080E090E0AA
:10EC40001995E0917135F0917235E05CFF4F0190BC
:10EC5000F081E02D60E080E090E01995E0917D206A
:10EC6000F0917E2085A9811117C080915E350E94A8
:10EC7000A686E0918D35F0918E358AE119958091C7
:10EC80005E350E94A28680918520909186208F7BA0
:10EC900080938520909386204091812050918220FE
:10ECA000609183207091842089A49AA4ABA4BCA411
:10ECB000950184010C94636D91FDD4C0F12C7B7F90
:10ECC000409381205093822060938320709384200E
:10ECD0000FCFB0628093812090938220A0938320F5
:10ECE000B0938420E0917D20F0917E20438D4111EE
:10ECF0000C94846D80915E350E94A686E0918D35DE
:10ED0000F0918E358DE0199580915E350E94A28636
:10ED100080918520909186208F7D8093852090938F
:10ED2000862009A51AA52BA53CA54801590135FF48
:10ED3000CCCD8091812090918220A0918320B091B0
:10ED400084200C94846D80E2F82EC9CE808148170F
:10ED500009F47DCA4083E0917F20F091802080817A
:10ED6000811132C0A0917B20B0917C208C91825087
:10ED7000883008F480C0C12C82818250873008F02E
:10ED800077C090E0FC01E958F44DA080FC01E05907
:10ED9000F44D6081E0917135F09172351F921F92B0
:10EDA0001F921F921F921F921F921F921F9206ACDA
:10EDB000F7ADE02D812C90E8E92E00E020E080E026
:10EDC00090E01995CDBFDEBFE0917135F0917235BD
:10EDD000E658FF4F0190F081E02D812CA12C80E2BC
:10EDE000C82EE12C00E120E040E06091872080E027
:10EDF00090E01995E0917135F0917235E658FF4F2A
:10EE00000190F081E02DC12C00E020E040E0609115
:10EE1000872080E090E019951ACA80915E350E94A3
:10EE2000A686E0918D35F0918E358EE01995809112
:10EE30005E350E94A28680918520909186208F7EEB
:10EE4000809385209093862009A51AA52BA53CA523
:10EE500070CF4091812050918220609183207091E9
:10EE6000842038CEBFE1FB2E2ACF9E7F926068CEF1
:10EE700060E8A12C8FCF20E8C22E7ECF0C94F26CDC
:10EE8000CF92DF92EF92FF92CF93DF93672B59F0EF
:10EE900065E070EC80E090E0DF91CF91FF90EF9023
:10EEA000DF90CF9008950097A1F0EC018EE595E3F7
:10EEB0000E949E866B017C01672B682B692BA1F059
:10EEC000B601C701DF91CF91FF90EF90DF90CF9017
:10EED000089560E170EC80E090E0DF91CF91FF90C9
:10EEE000EF90DF90CF90089580915E350E94A286CA
:10EEF0006B017C01672B682B692B11F780917D35A5
:10EF00008130E1F080918535882369F08DE992E2C6
:10EF10000E94250680915E350E94A68666E670EC0A
:10EF200080E090E0B9CF60E070E0CE01DF91CF915A
:10EF3000FF90EF90DF90CF900C94A0698DE992E262
:10EF40000E94250680915E350E94A6866EE070ECD8
:10EF500080E090E0A1CF8F92AF92CF92DF92EF92BC
:10EF6000FF920F931F93CF93DF93892B79F066E085
:10EF700070EC80E090E0DF91CF911F910F91FF90B6
:10EF8000EF90DF90CF90AF908F900895611571054D
:10EF900009F498C0EB0180915E350E94A2866B0156
:10EFA0007C01611571058105910509F090C0809182
:10EFB0007D35882309F49AC08A8180938135811137
:10EFC00088C060E0A0917535B091763512968C912D
:10EFD000129781119AC040E019968C91199781116E
:10EFE00092C020E0E0917135F0917235E45AFF4F04
:10EFF00001E017968C91811101C000E00190F08131
:10F00000E02D80E090E019956B017C01672B682B67
:10F01000692B09F060C0898180938035813009F4C3
:10F020008FC1823009F08EC140E2E0917135F091DC
:10F03000723502ACF3ADE02DEE24E39400E020E065
:10F0400060E080E090E019956B017C01672B682BF4
:10F05000692B09F040C08B81813009F475C1109291
:10F060007F35E0917135F0917235E657FF4F019091
:10F07000F081E02D00E120E240E060E880E090E0F7
:10F0800019956B017C01672B682B692B09F43FC034
:10F0900083E1C81680EAD806E104F104E1F488812E
:10F0A00080937E35813009F0F8C08DE992E20E94AC
:10F0B000250680915E350E94A68663E170EA80E0B5
:10F0C00090E059CF60E170EC80E090E054CFC70150
:10F0D00052CF60E477CF8DE992E20E9425068091BD
:10F0E0005E350E94A686B601C70145CF8DE992E242
:10F0F0000E94250680915E350E94A6866FE070EC26
:10F1000080E090E038CF22E06DCF40E165CF88818C
:10F1100080937E35813009F0C0C080E880938720DD
:10F12000E0917135F0917235E658FF4F0190F08112
:10F13000E02D812CA12CC12CE12C00E020E040E04E
:10F1400060E880E090E019956B017C01672B682BEB
:10F15000692B09F6E0917135F0917235E65AFF4F4F
:10F1600000917735109178350190F081E02D24E7FA
:10F1700040E062E080E090E019956B017C01672B34
:10F18000682B692B09F0A7CFE0917135F0917235AA
:10F19000EC59FF4F0190F081E02D60E080E090E0BD
:10F1A00019956B017C01672B682B692B09F093CFB4
:10F1B000E0917135F0917235EC5AFF4F0190F0817A
:10F1C000E02D42E064E080E090E019956B017C0165
:10F1D000672B682B692B09F07ECF84E190E00E94B9
:10F1E00083866B017C01672B682B692B09F073CF39
:10F1F000E0917135F0917235E65AFF4F0091773505
:10F20000109178350190F081E02D24E741E060E035
:10F2100080E090E019956B017C01672B682B692BCE
:10F2200009F059CF10928720E0917135F091723535
:10F23000E658FF4F0190F081E02D812CA12CC12CCC
:10F24000E12C00E020E040E060E080E090E01995F3
:10F250006B017C01672B682B692B09F03CCFE09197
:10F260007135F0917235E459FF4F0190F081E02D36
:10F2700083E0882E9CE0A92E20E3C22EE12C08E139
:10F2800020E040E067E080E090E019956B017C01B0
:10F29000672B682B692B09F01ECFE0917135F09137
:10F2A0007235E658FF4F0190F081E02D812CAA24A1
:10F2B000A394C12CE12C00E020E040E06091872085
:10F2C00080E090E019956B017C01672B682B692B1E
:10F2D00009F001CFE0917135F0917235E658FF4F9A
:10F2E0000190F081E02D812CA12CC12CE12C00E0BB
:10F2F00020E040E06091872080E090E019956B016C
:10F300007C01672B682B692B09F0E5CE64E080E077
:10F3100090E00E94715F6B017C01672B682B692B69
:10F3200009F0D9CE80915E35DF91CF911F910F9179
:10F33000FF90EF90DF90CF90AF908F900C94A686C7
:10F3400040E173CE40E071CE80937F35E09171351E
:10F35000F0917235E657FF4F0190F081E02D00E00B
:10F3600020E040E060E08ACE8F929F92AF92BF9201
:10F37000CF92DF92EF92FF920F931F93CF93DF9381
:10F38000892B89F066E070EC80E090E0DF91CF910E
:10F390001F910F91FF90EF90DF90CF90BF90AF90B3
:10F3A0009F908F90089569017A01EB0180915E35FD
:10F3B0000E94A2864B015C016115710581059105D2
:10F3C000A9F480917D35882399F18091853581302C
:10F3D00079F08DE992E20E94250680915E350E94C7
:10F3E000A68666E670EC80E090E0D0CFC501CECF77
:10F3F000C0938735D0938835E0928935F0928A356D
:10F40000C0928B35D0928C3500938D3510938E350C
:10F4100080915E35DF91CF911F910F91FF90EF901A
:10F42000DF90CF90BF90AF909F908F900C94A68666
:10F430008DE992E20E94250680915E350E94A686A3
:10F440006FE070EC80E090E0A1CF8F92AF92CF920E
:10F45000DF92EF92FF920F93CF93892B69F066E0D2
:10F4600070EC80E090E0CF910F91FF90EF90DF90F3
:10F47000CF90AF908F900895623228F069E070ECE1
:10F4800080E090E0F0CFC62F80915E350E94A2868A
:10F490006B017C016115710581059105E1F4EC2F8B
:10F4A000F0E0EE0FFF1F80917D2090917E20E80F0D
:10F4B000F91F11828C2F90E08D31910570F08091B1
:10F4C0005E35CF910F91FF90EF90DF90CF90AF908E
:10F4D0008F900C94A686C701C6CFFC018827E25BFB
:10F4E000FB4F8F4F0C947FCF6C2F80E090E00E94F9
:10F4F000EC666B017C01C114D104E104F104F9F262
:10F500008DE992E20E94250680915E350E94A686D2
:10F51000B601C701A8CFE0917135F091723504842E
:10F52000F585E02D41E06FE180E090E019956B01F9
:10F530007C01672B682B692B19F7E0917135F091ED
:10F540007235E658FF4F0190F081E02D812CA12CFF
:10F55000C12C88E0E82E00E020E040E060918720A8
:10F5600080E090E019956B017C01672B682B692B7B
:10F5700039F6E0917135F0917235E658FF4F019000
:10F58000F081E02D812CA12CC12CE12C00E020E0A9
:10F5900040E06091872080E090E019956B017C014C
:10F5A000AACFE0917135F09172350484F585E02D94
:10F5B00041E065E180E090E019956B017C01C114A8
:10F5C000D104E104F10409F09BCFE0917135F09191
:10F5D0007235E658FF4F0190F081E02D812CA12C6F
:10F5E000C12CE12C00E022E040E0B8CFE091713581
:10F5F000F09172350484F585E02D41E064E180E00E
:10F6000090E019956B017C01DACFE0917135F091B2
:10F6100072350484F585E02D41E063E180E090E0FF
:10F6200019956B017C01CBCFE0917135F09172356A
:10F630000484F585E02D41E062E180E090E01995D9
:10F64000E0917135F09172350484F585E02D41E04B
:10F6500061E180E090E01995E0917135F0917235AB
:10F660000484F585E02D41E060E180E090E01995AB
:10F670006B017C01A4CFE0917135F0917235048467
:10F68000F585E02D41E06FE080E090E019956B0199
:10F690007C0195CFE0917135F09172350484F58548
:10F6A000E02D41E06EE080E090E019956B017C0177
:10F6B000C114D104E104F10409F022CFE0917135C5
:10F6C000F0917235E658FF4F0190F081E02D812CCA
:10F6D000A12CC12CE12C00E020E044E03FCFE091E0
:10F6E0007135F09172350484F585E02D41E06CE0D0
:10F6F00080E090E019956B017C01DACFE0917135E3
:10F70000F09172350484F585E02D41E06DE080E0F4
:10F7100090E019956B017C01CBCF6F927F928F9215
:10F720009F92AF92BF92CF92DF92EF92FF920F9390
:10F730001F93CF93DF931F92CDB7DEB7892BA1F034
:10F7400066E070EC80E090E00F90DF91CF911F9128
:10F750000F91FF90EF90DF90CF90BF90AF909F9070
:10F760008F907F906F900895162F80915E350E9444
:10F77000A2866B017C01672B682B692BE1F4E09179
:10F780007B20F0917C209081772473948EEF810F01
:10F790008830A0F0712C9250983060F51083812F42
:10F7A00090E08A30910580F4FC018827E559FB4FF1
:10F7B0008F4F0C947FCFB601C701C6CF1083812F26
:10F7C00090E08A30910578F080915E350E94A6869F
:10F7D0006B017C01672B682B692B69F769E070EC82
:10F7E00080E090E0B1CFFC018827EB58FB4F8F4FB2
:10F7F0000C947FCF1083812F90E08A30910520F701
:10F80000FC018827E158FB4F8F4F0C947FCF78E1A4
:10F81000672E60E040E2E0917135F0917235EE566E
:10F82000FF4F0190F081E02D80E090E019956B0191
:10F830007C01672B682B692B09F0D9C0A0917B2034
:10F84000B0917C20E0917135F09172350288F38996
:10F85000E02D13962C91139711964C9160E080E067
:10F8600090E019956B017C01672B682B692B09F0DF
:10F87000BEC0E0917135F0917235028CF38DE02DB0
:10F88000C12CE12C00E0262D40E060E080E090E01B
:10F8900019956B017C01672B682B692B09F0A7C0B8
:10F8A000E0917135F091723500A8F1A9E02D42E0A8
:10F8B00064E080E090E019956B017C01672B682B78
:10F8C000692B09F094C0E0917135F0917235E459DB
:10F8D000FF4F0190F081E02DB3E08B2E1CE0A12EB4
:10F8E00000E3C02EE12C08E120E040E067E080E08A
:10F8F00090E019956B017C01672B682B692B09F04F
:10F9000076C0E0917F20F0918020808181115DC1DF
:10F91000772009F478C1A0E8CA2E828190E089306E
:10F92000910508F05BCFFC018827E757FB4F8F4F0D
:10F930000C947FCF612C173009F472C161E040E66E
:10F940006ACF38E0632E163009F46DC161E040E201
:10F9500062CF38E1632E183009F457C161E040E00E
:10F960005ACF612C193009F471C161E040E453CFE2
:10F9700082E008E0602E163009F44AC161E040E2FE
:10F98000A4E09A2EB8E0BB2E28E010E1882309F409
:10F9900042CF813009F47EC0E0917135F09172352B
:10F9A0000684F785E02DA12CC12C83E0E82E04E02D
:10F9B000412F60E280E090E019956B017C01672B9C
:10F9C000682B692BA1F4E0917135F091723502A892
:10F9D000F3A9E02D292D4B2D60E280E090E01995F0
:10F9E0006B017C01672B682B692B09F427CF8DE90C
:10F9F00092E20E94250680915E350E94A686B6019D
:10FA0000C701A2CE10E028E090E1B92E33E0932E9A
:10FA100048E1642EC1CF82E0612C193009F419C18C
:10FA200061E040E454E0952E78E0B72E28E010E144
:10FA3000ADCF98E1692E23E0922E30E1B32E20E085
:10FA400010E0AACF82E008E1602E183009F4F6C079
:10FA500061E040E0A4E09A2EB8E0BB2E28E010E17F
:10FA600095CF82E0612C173009F4E0C061E040E6F8
:10FA700054E0952E78E0B72E28E010E187CF81E0A2
:10FA800078CF81E0E0CF81E0EDCF10E028E040E2E8
:10FA900068E1662EE0917135F0917235EE56FF4FB8
:10FAA0000190F081E02D60E080E090E029831995DD
:10FAB0006B017C012981672B682B692B09F097CF9B
:10FAC000E0917135F09172350684F785E02DA12C17
:10FAD000C12C53E0E52E04E0412F60E280E090E08D
:10FAE00019956B017C01672B682B692B09F07FCF7F
:10FAF000E0917135F0917235E658FF4F0190F08139
:10FB0000E02D812CAA24A394C12CE12C00E020E05C
:10FB100040E06091872080E090E019956B017C01C6
:10FB2000672B682B692B09F062CFE0917135F0915A
:10FB30007235E658FF4F0190F081E02D812CA12C09
:10FB4000C12CE12C00E020E040E06091872080E0C3
:10FB500090E019956B017C01672B682B692B09F0EC
:10FB600046CF80E00E94AA8669CE88E1682E40E2F6
:10FB700020E010E08FCF81E04FCF60E8A12CE09132
:10FB80007135F0917235A0917920B0917A201F9251
:10FB90001F921F921F921F921F921F921F921F92DD
:10FBA00006ACF7ADE02D812C40E8E42E00E020E02B
:10FBB0004C9180E090E019956B017C01CDBFDEBFD8
:10FBC000672B682B692B09F012CF80915E350F905F
:10FBD000DF91CF911F910F91FF90EF90DF90CF9029
:10FBE000BF90AF909F908F907F906F900C94A6865F
:10FBF00060E0A12CC4CF60E870E4A72EC0CF60E025
:10FC000050E4A52EBCCFC12C88CE69E040E003CEE5
:10FC100040E294E0992E28E0B22E28E010E1B9CE1F
:10FC200069E040E6F8CD69E040E2F5CD40E6E4E089
:10FC30009E2EF8E0BF2E28E010E1ABCE40E094E02D
:10FC4000992E28E0B22E28E010E1A3CE69E040E42E
:10FC5000E2CD40E4E4E09E2EF8E0BF2E28E010E183
:10FC600098CECF92DF92EF92FF92CF93DF93611500
:10FC7000710569F0892BB1F066E070EC80E090E0EE
:10FC8000DF91CF91FF90EF90DF90CF90089560E1EA
:10FC900070EC80E090E0DF91CF91FF90EF90DF90EB
:10FCA000CF900895EB0180915E350E94A2866B0192
:10FCB0007C01611571058105910591F4809185356F
:10FCC0008350823078F08DE992E20E94250680917F
:10FCD0005E350E94A68666E670EC80E090E0D0CFAC
:10FCE000C701CECFBE0180E090E00E94F2656B01BB
:10FCF0007C01672B682B692B39F083E0C81688ECF0
:10FD0000D806E104F10481F48881E0917B20F09130
:10FD10007C20828380915E35DF91CF91FF90EF90C0
:10FD2000DF90CF900C94A6868DE992E20E94250682
:10FD300080915E350E94A686B601C701A1CF8F9241
:10FD40009F92AF92BF92CF92DF92EF92FF920F936A
:10FD50001F93CF93892B81F066E070EC80E090E0F8
:10FD6000CF911F910F91FF90EF90DF90CF90BF90B8
:10FD7000AF909F908F900895C62F80915E35E2D707
:10FD80004B015C01611571058105910589F4809134
:10FD900085358350823070F08DE992E20E9425060D
:10FDA00080915E35D3D766E670EC80E090E0D8CFE6
:10FDB000C501D6CF409168354423C9F0A091733571
:10FDC000B09174358C918C17D1F098E1A92EB12C9B
:10FDD00080E00AC09501285E3F4FFD01EA0DFB1D42
:10FDE00090819C1771F059018F5F8413F3CF80913C
:10FDF0005E35ACD765E078EC80E090E0B1CFA12C27
:10FE0000B12CC73108F49AC0912CC0E0E091713553
:10FE1000F091723500A0F1A1E02D41E451E06FEEC8
:10FE200072E080E090E019956B017C01672B682BF4
:10FE3000692B09F079C0E0917335F0917435EA0DC2
:10FE4000FB1DA0917135B091723507811085258118
:10FE5000368143815481618172815896ED91FC9184
:10FE6000599780E090E019956B017C01672B682B16
:10FE7000692B09F059C0E0917135F0917235028C0F
:10FE8000F38DE02DC12CE12C00E028E140E060E0A2
:10FE900080E090E019956B017C01672B682B692B42
:10FEA00009F042C0E0917135F0917235609173357F
:10FEB000709174356A0D7B1D675F7F4F048CF58DE3
:10FEC000E02D80E090E019956B017C01672B682B99
:10FED000692B51F5E0917135F091723504A8F5A9BF
:10FEE000E02D80E8882EA12CC12CE12C092D2C2F8F
:10FEF00040E260E080E090E019956B017C01672BA7
:10FF0000682B692B89F484E08093853580915E3578
:10FF1000CF911F910F91FF90EF90DF90CF90BF9006
:10FF2000AF909F908F9012C78DE992E20E942506B4
:10FF300080915E350BD7B601C70112CF8C2F90E0B0
:10FF4000FC01E75AF44DC081FC01EE5BF44D90805A
:10FF50005DCF8F929F92AF92BF92CF92DF92EF923E
:10FF6000FF921F93CF93DF93CDB7DEB76E97CDBFD0
:10FF7000DEBF892B99F066E070EC80E090E06E9631
:10FF8000CDBFDEBFDF91CF911F91FF90EF90DF904B
:10FF9000CF90BF90AF909F908F90089569017A01A4
:10FFA000162F80915E35CED64B015C01611571052F
:10FFB0008105910509F0A1C0123009F400C108F0D3
:10FFC0009EC0112309F442C1113009F0A6C0E1140A
:10FFD000F10409F4ACC1D7018D919C9111978983EB
:10FFE0009A8312968D919C9113978B839C83149680
:10FFF0008D919C9115978D839E8316968D919C91E2
:020000021000EC
:1000000017978F83988718968D919C911997898758
:100010009A871A968D919C911B978B879C871C962B
:100020008D919C911D978D879E871E968D919C9199
:100030001F978F87988B50968D919C915197898BA4
:100040009A8B52968D919C9153978B8B9C8B549647
:100050008D919C9155978D8B9E8B56968D919C91F1
:1000600057978F8B988F58968D919C915997898F20
:100070009A8F5A968D919C915B978B8F9C8F5C96F3
:100080008D919C915D978D8F9E8F60E0E091713591
:10009000F09172350688F789E02DAE014F5F5F4F12
:1000A00080E090E019954B015C01672B682B692B70
:1000B00009F0CEC0C114D104E1F0E0917135F091A6
:1000C0007235D60114962D913C91159712964D914B
:1000D0005C9113976D917C9106A0F7A1E02D80E0D3
:1000E00090E019956B017C01672B682B692B09F057
:1000F000B9C080915E352AD642CFC50140CF1330BA
:10010000C1F0143051F480917035833008F0B2C0E2
:1001100069E070EC80E090E032CF80915E3516D6D9
:100120006B017C01672B682B692B91F3B601C7012A
:1001300026CF80917035823058F3E0916E35F09182
:100140006F35868D978D89839A8380A191A18B834A
:100150009C8382A193A18D839E8384A195A18F838B
:10016000988786A197A189879A8780A591A58B8773
:100170009C8782A593A58D879E8784A595A58F874B
:10018000988B86A597A5898B9A8B80A991A98B8B33
:100190009C8B82A993A98D8B9E8B84A995A98F8B0B
:1001A000988F86A997A9898F9A8F80AD91AD8B8FF3
:1001B0009C8F82AD93AD8D8F9E8F60E067CF8091D5
:1001C0007035882309F4A4CFE0916E35F0916F3536
:1001D0008081918189839A83828193818B839C839F
:1001E000848195818D839E83868197818F83988773
:1001F0008085918589879A87828593858B879C875F
:10020000848595858D879E87868597858F87988B32
:1002100080899189898B9A8B828993898B8B9C8B1E
:10022000848995898D8B9E8B868997898F8B988FF2
:10023000808D918D898F9A8F828D938D8B8F9C8FDE
:10024000848D958D8D8F9E8F60E020CF64E01ECFD2
:100250008DE992E20E94250680915E3577D5B40142
:10026000C5018DCE8DE992E20E94250680915E3512
:100270006DD55CCFE0916E35F0916F3584AD95AD65
:1002800089839A8386AD97AD8B839C83DF01A05CC5
:10029000BF4F8D919C9111978D839E8312968D9166
:1002A0009C9111978F83988712968D919C911197AD
:1002B00089879A8712968D919C9111978B879C873D
:1002C00012968D919C9111978D879E8712968D9194
:1002D0009C9111978F87988B12968D919C91119775
:1002E000898B9A8B12968D919C9111978B8B9C8BFD
:1002F00012968D919C9111978D8B9E8B12968D915C
:100300009C9111978F8B988F12968D919C9111973C
:10031000898F9A8F12968D919C918B8F9C8FE85A22
:10032000FF4F808191818D8F9E8F60E0AFCE60E125
:1003300070EC80E090E023CE8F929F92AF92BF92BC
:10034000CF92EF92FF920F931F93CF93DF93892B5E
:1003500081F066E070EC80E090E0DF91CF911F913A
:100360000F91FF90EF90CF90BF90AF909F908F90A4
:100370000895F02E122FD42FC62F80915E35E2D42F
:100380004B015C01672B682B692B09F0DFC0E09102
:100390007B20F0917C20C1830383D4831583C130FB
:1003A00009F400C108F4FBC0C23009F0D2C080815A
:1003B0008A3008F4FAC063E0C2E0112309F4D7C020
:1003C000DD2309F4D6C000E1D8E0E0917135F09169
:1003D000723500A4F1A5E02D462F80E090E019953C
:1003E0004B015C01672B682B692B09F0CEC0E091B3
:1003F0007135F091723504A4F5A5E02DCC2EED2ECB
:1004000020E240E060E880E090E019954B015C015B
:10041000672B682B692B09F0B8C011E0F11001C0FF
:1004200010E0E0917135F09172350288F389E02D8A
:10043000212F4C2F60E080E090E019954B015C018A
:10044000672B682B692B09F0A0C080917B35811147
:10045000C3C000E081E0F81609F4C0C0E091753532
:10046000F09176358081E0917135F0917235008898
:10047000F189E02D853009F49EC08750823008F460
:100480009AC040917C35602F80E090E019954B0137
:100490005C0181149104A104B10441F083E1881648
:1004A00080EA9806A104B10409F06FC0E0917135AB
:1004B000F091723504A0F5A1E02D40917A3560915C
:1004C000793580E090E01995D83009F4B1C0E09119
:1004D0007B20F0917C2080818250E0917135F091F9
:1004E000723502A8F3A9E02D883008F46CC023E02F
:1004F00040E160E280E090E019954B015C01E09101
:100500007135F091723500ACF1ADE02D88E0E82E48
:1005100000E120E040E060E080E090E01995862A6C
:10052000972AA82AB92A81149104A104B10469F573
:1005300080915E35DF91CF911F910F91FF90EF90E9
:10054000CF90BF90AF909F908F9000C4B401C50131
:1005500004CF80915E35FAD34B015C01672B682B89
:10056000692BA1F769E070EC80E090E0F6CEDD2326
:1005700001F18DE992E20E94250680915E35E6D375
:1005800069E070EC80E090E0E8CE8DE992E20E94B4
:10059000250680915E35DAD3B401C501DECE60E078
:1005A000C0E00BCF63E0C1E008CF81E08017D0F25C
:1005B00002CF00E00ACF40E0602F80E090E0199584
:1005C0004B015C0166CF24E048E060E280E090E00F
:1005D00019954B015C0193CF00E83CCFE091713558
:1005E000F09172350288F389E02D212F4C2F60E8BD
:1005F00080E090E019954B015C01E0917535F09138
:1006000076358081E0917135F09172350088F189FD
:10061000E02D8530D1F187508230B8F140E0602F75
:1006200080E090E01995862A972AA82AB92A31CF26
:10063000E0917135F091723502A8F3A9E02D25E023
:1006400048E260E280E090E01995E0917135F09128
:10065000723504A8F5A9E02D90E8892EA12CC12CB3
:10066000E12C00E020E040E260E080E090E01995BD
:100670004B015C01E0917135F091723500ACF1AD48
:10068000E02D28E0E22E01E044CF45E0602F80E03D
:1006900090E01995862A972AA82AB92AFACE8F922D
:1006A000AF92BF92CF92DF92EF92FF920F931F9380
:1006B000CF93DF93892B81F066E070EC80E090E0CF
:1006C000DF91CF911F910F91FF90EF90DF90CF902E
:1006D000BF90AF908F900895D42FC62F80915E3534
:1006E00031D36B017C01672B682B692B39F5E091C5
:1006F0007F20F0918020C283D28F8081813009F4E5
:10070000A3C0E0917B20F0917C20808182508830D2
:1007100008F4E6C0C12C8C2F90E08930910588F058
:1007200080915E3513D36B017C01672B682B692B9D
:1007300029F469E070EC80E090E0C2CFB601C70117
:10074000BFCFFC018827EE56FB4F8F4F0C947FCF15
:1007500060E8B12CC0E014E090E4A92ED13009F497
:10076000C4C008F4C0C0D230D9F6D2E0E0917135EF
:10077000F0917235A0917920B0917A201F921F924A
:100780001F921F921F921F921F921F921F9206ACE0
:10079000F7ADE02D812C80E8E82E00E020E04C91C0
:1007A00080E090E019956B017C018DB79EB70996AA
:1007B0008DBF9EBFC114D104E104F10409F086C0CD
:1007C000E0917135F0917235EE5BFF4F0190F08151
:1007D000E02DEB2C00E0212F40E06C2F80E090E03A
:1007E00019956B017C01672B682B692B09F06EC092
:1007F000E0917135F0917235EA5BFF4F0190F08125
:10080000E02D60E080E090E019956B017C01672BA2
:10081000682B692B09F05AC0E0917135F09172355F
:10082000E258FF4F0190F081E02DED2E03E020E132
:1008300040E060E080E090E019956B017C01672B5F
:10084000682B692B09F042C080915E35DF91CF9112
:100850001F910F91FF90EF90DF90CF90BF90AF90DE
:100860008F9074C260E044E0B42EC1E014E0A12C8B
:1008700075CF60E054E0B52EC1E010E0A12C6ECF42
:1008800060E024E0B22EC1E014E030E4A32E66CF95
:1008900060E8B12CC0E014E0A12C60CF60E0B12C86
:1008A000C1E010E0A12C5ACF60E8B12CC0E114E007
:1008B000A12C54CF60E8B12CC0E010E0A12C4ECFA9
:1008C00060E0B12CC3E014E0A12C48CF8DE992E2A6
:1008D0000E94250680915E3539D2B601C701F0CE5F
:1008E00060E8C62E18CFD0E041CFD1E03FCF8F9245
:1008F0009F92AF92BF92EF92FF920F931F93CF936D
:10090000DF931F921F92CDB7DEB7892B89F066E087
:1009100070EC80E090E00F900F90DF91CF911F91ED
:100920000F91FF90EF90BF90AF909F908F900895A0
:100930006115710589F04115510571F07A018B013E
:1009400080915E35FFD14B015C0161157105810518
:10095000910539F0C501DFCF60E170EC80E090E0F7
:10096000DACFE0917135F0917235E857FF4F019081
:10097000F081E02DAE014F5F5F4FBE016E5F7F4F94
:1009800080E090E019954B015C01672B682B692B87
:1009900051F48A81F80180838981F70180838091F5
:1009A0005E35D4D1B8CF8DE992E20E9425068091C0
:1009B0005E35CCD1B401C501AECF8F929F92AF927C
:1009C000BF92CF92DF92EF92FF920F93CF93DF937C
:1009D000CDB7DEB72597CDBFDEBF892B99F066E096
:1009E00070EC80E090E02596CDBFDEBFDF91CF9127
:1009F0000F91FF90EF90DF90CF90BF90AF909F90BE
:100A00008F90089580917F35811105C068E670EC64
:100A100080E090E0E8CF022F6A017B0180915E3593
:100A200091D14B015C01611571058105910509F0BA
:100A300059C01C821D82F701970121583F4F80E069
:100A40009191890FE217F307D9F781958983A02F38
:100A5000B0E0BD0160587F4F80E890E030E0AF57D4
:100A6000BF4F6817790741F0A817B90729F0F701B8
:100A7000E80FF91F4081340F01968F3F910589F7E8
:100A8000F60180819181890F830F81958A8382810C
:100A90009381890F380F31953B83E0917135F09147
:100AA0007235E457FF4F0190F081E02D9E012F5FDA
:100AB0003F4FA601B70180E090E019956B017C01E2
:100AC000672B682B692B21F480915E353FD18BCF4A
:100AD0008DE992E20E94250680915E3537D1B601FC
:100AE000C70181CFC5017FCFCF92DF92EF92FF92F6
:100AF0000F931F93CF93DF93892B69F066E070EC1F
:100B000080E090E0DF91CF911F910F91FF90EF90E7
:100B1000DF90CF9008958A01EB0180915E3512D16C
:100B20006B017C01611571058105910511F0C7010B
:100B3000E9CFA801BE0180E090E00E94135F6B0145
:100B40007C01672B682B692B59F480915E35DF910E
:100B5000CF911F910F91FF90EF90DF90CF90F6C053
:100B60008DE992E20E94250680915E35EFD0B601B4
:100B7000C701C8CF8F929F92AF92BF92EF92FF9220
:100B80000F931F93CF93DF937B01892BA9F06BEB1E
:100B90007EE18EEC97E00E94881C66E070EC80E0BD
:100BA00090E0DF91CF911F910F91FF90EF90BF9058
:100BB000AF909F908F900895E0917F20F0918020DA
:100BC00081E0818380915E35BDD0D7018C918630E4
:100BD000C8F109E082E0E0917F20F09180208483D9
:100BE000E7012196015010E0000F111F0D5F1F4F0C
:100BF0000E0D1F1D812C912C540119C0F0E0EA5EEE
:100C0000F44D4081FE013197E081E831C8F4F0E015
:100C1000E65DF44D608180E090E00E94E445862A24
:100C2000972AA82AB92A2296C017D10771F0E8811D
:100C3000E43120F340E4FE013197E081E83138F3FC
:100C40006FEFE9CF06E080E0C6CFE0917F20F09122
:100C50008020D7018C91808711968C911197818784
:100C600012968C911297828713968C911397838793
:100C700014968C911497848715968C911597858777
:100C800016968C911697868717968C9187878091F8
:100C90005E355CD0B401C50184CFCF92DF92EF9274
:100CA000FF920F931F93CF93DF938C01F62EEC01ED
:100CB000C25ADA4C888146D081E0F816E9F082E029
:100CC000F81699F060E0C8010E94715F6B017C0129
:100CD00088813CD0C701B601DF91CF911F910F9160
:100CE000FF90EF90DF90CF90089562E0C8010E94DE
:100CF000715F6B017C01ECCF61E0C8010E94715F04
:100D00006B017C01E5CF9F938F938EE79BE29F93CE
:100D10008F9389EE9AE39F938F930E943DD062E078
:100D200089EE9AE30E94A4060F900F900F900F9007
:100D30000F900F9060E070E0CB01089560E070E0EC
:100D4000CB01089560E070E0CB01089560E070E0B1
:100D5000CB0108950895BC0183E00C94F41DBC01FF
:100D600083E00C943A1D0F931F93CF93DF938C0174
:100D7000EB0164E087E89BE20E94A406012B91F45A
:100D8000209719F18EE1EFEEF0E2DE0101900D9275
:100D90008A95E1F760E070E0CB01DF91CF911F9180
:100DA0000F9108958FE89BE20E94FC056BE472E0CE
:100DB0008EEC97E00E94881C65E070EC80E090E08B
:100DC000DF91CF911F910F9108958FE89BE20E94D0
:100DD000FC0562E572E08EEC97E00E94881C60E101
:100DE00070EC80E090E0D9CF02D080E002C00C949B
:100DF00032920C94D592CF93C82F8EED90E30E943F
:100E0000250684E190E00E94681342E050E06CEB1C
:100E10008C2F0E940C9D41E150E06FEB8C2F0E94C3
:100E20000C9D81E290E00E94681349E253E067EB79
:100E30008C2F0E940C9D86EA90E00E94681349E284
:100E400050E06FEB8C2FCF910C940C9DCF93C82F5B
:100E500081EF90E30E94250641E253E067EB8C2F7F
:100E60000E940C9D80E190E00E94681348E250E0EF
:100E70006FEB8C2F0E940C9D80E190E00E94681324
:100E800040E150E06FEB8C2F0E940C9D84E190E0DC
:100E9000CF910C9468130C94349ECF93C82F48E2E2
:100EA00050E06FEB0E940C9D88E790E00E94681371
:100EB00040E150E06FEB8C2F0E940C9D88EE93E098
:100EC0000E94681349E250E06FEB8C2F0E940C9D4A
:100ED00088E790E00E94681341E150E06FEB8C2FAF
:100EE000CF910C940C9D1F93CF93DF93C82F162F97
:100EF000D42F6093192184E00E948F15D09318217C
:100F00006D2F88E00E948F154EEF58E06FEB8C2F0D
:100F10000E940C9D1C3351F149E856EE6FEB8C2F6B
:100F20000E940C9DD233A9F04AE85EE86FEB8C2F4B
:100F30000E940C9D4BE851E16FEB8C2F0E940C9DA1
:100F40004EEF50E06FEB8C2FDF91CF911F910C94FF
:100F50000C9D4AE853EF6FEB8C2F0E940C9D4BE8E1
:100F600050E16FEB8C2F0E940C9DEACF49E858E9C5
:100F70006FEB8C2F0E940C9D4D2F50E04B3551058F
:100F800068F04AE85CEC6FEB8C2F0E940C9D4BE8FC
:100F900053E76FEB8C2F0E940C9DD2CFFA0188276C
:100FA000E556FB4F8F4F0C947FCF4AE85AE36FEB27
:100FB0008C2F0E940C9D4BE856E76FEB8C2F0E9404
:100FC0000C9DBECF4AE852E1F2CF4AE85BE86FEBF6
:100FD0008C2F0E940C9D4BE855E76FEB8C2F0E94E5
:100FE0000C9DAECF4AE85CE86FEB8C2F0E940C9D05
:100FF0004BE854E76FEB8C2F0E940C9DA1CF4AE881
:1010000055EDD5CF4AE856E0BECF4AE853E46FEB42
:101010008C2F0E940C9D4BE852E76FEB8C2F0E94A7
:101020000C9D8ECF4AE850E86FEB8C2F0E940C9DF0
:101030004BE851E76FEB8C2F0E940C9D81CF4AE863
:101040005DEB6FEB8C2F0E940C9D4BE850E76FEB34
:101050008C2F0E940C9D74CF4AE857E0F2CF9091FC
:101060009235981749F080939235811106C081E03E
:1010700080938F3510929435089581E08093903558
:1010800090919335911104C080939335809391355D
:1010900028C0809192358111089581E08093923526
:1010A0008093903590919335911104C0809393353E
:1010B0008093913516C080919235882339F0109233
:1010C000923581E080938F35109294350895809108
:1010D000A80682FB882780F991E08927C0CF0C946D
:1010E0008E1A0C94511C08950C943B1B0C94941A6A
:1010F000CF93DF93EC01FC01E859FF4F61E0808161
:101100009181892B09F460E081E291E20E94E1A7DC
:1011100097FD65C080917336882351F0FE01EA592E
:10112000FF4F608181E291E20E944EA797FD3EC091
:10113000AE014B5A5F4F63E181E291E20E9492A2BD
:1011400097FD63C0AE0165E081E291E20E9492A248
:1011500097FD5EC0AE014F5E5F4F68E081E291E2B5
:101160000E9492A297FD57C0AE014E5D5F4F61E0B5
:1011700081E291E20E9492A297FD53C0AE014D5CC4
:101180005F4F62E081E291E20E9492A297FD46C029
:10119000AE014C5B5F4F63E081E291E20E9492A25C
:1011A00097FD42C081E0DF91CF91089521E331E3C3
:1011B0003F932F939F938F9386E291E39F938F9317
:1011C000E0913521F091362119950F900F900F90F5
:1011D0000F900F900F9080E0DF91CF91089525E060
:1011E00031E33F932F939F938F9386E291E39F93F5
:1011F0008F93E0913521F091362119950F900F9042
:101200000F900F900F900F9085CF20E531E3D0CF56
:1012100021E731E3CDCF22E831E3CACF28EA31E339
:10122000C7CF24E931E3C4CF2BEB31E3C1CF0F9318
:101230001F93CF93DF93CDB7DEB76D97CDBFDEBFE2
:1012400040E251E261E080E10E94B015E8E2FBE398
:1012500080E1DF011D928A95E9F740E050E060E20D
:1012600080E096E00E9467A943E050E064E080E8F7
:1012700096E00E9467A948E152E068E080E696E0C7
:101280000E9467A910917436111122C080E89AE17A
:10129000A6E0B0E089839A83AB83BC8388E4898726
:1012A00089E190E0A0E0B0E08D839E83AF83B887B2
:1012B00060E483E00E94EDA8BE016F5F7F4F80E88D
:1012C00094E00E942FC181111AC081E0809374368E
:1012D000809169068E7F8093690688E080936A0614
:1012E0008FEF80936C068091690681608093690618
:1012F00081E291E20E948FA2892B51F010E0812FB0
:101300006D96CDBFDEBFDF91CF911F910F910895F4
:101310008E010F5F1F4F8DE0F80111928A95E9F75A
:101320008DEC91E39F938F93E0913521F0913621DD
:101330001995B80181E291E20E94F9A60F900F90F1
:10134000009709F03FC18D858F938C858F938B819A
:101350001F928F938A811F928F938BE092E39F93CA
:101360008F93E0913521F091362119958F818F93DC
:101370008E818F938D818F938C818F9380E292E306
:101380009F938F93E0913521F091362119958B85AC
:101390008F938A858F9389858F9388858F9384E334
:1013A00092E39F938F93E0913521F0913621199527
:1013B0008DE0F801DE01519601900D928A95E1F7DA
:1013C000CDBFDEBF8DE0FE017196ABE1BBE30190C6
:1013D0000D928A95E1F720911C3B80911D3B90E096
:1013E000AAE02A9F800D911D112442970CF402C19E
:1013F00081E08093733683E080931A3B809194352B
:101400008295807F8D5F8093283B1092293B80EDF1
:101410009CECACECBCE089839A83AB83BC8380E119
:101420009EEDA9E0B2E08D839E83AF83B88780E60E
:101430009BEFA1E2B9E189879A87AB87BC871D86BC
:101440001E861F86188A89E492E39F938F93E0910A
:101450003521F0913621199524E030E0A8016DE2A4
:101460007EE381E291E20E9479A50F900F900097B0
:1014700009F0C8C080E892E39F938F93E0913521F3
:10148000F0913621199524E030E0A8016EE27EE368
:1014900081E291E20E9479A50F900F90009779F078
:1014A0009F938F938BE692E39F938F93E0913521E7
:1014B000F091362119950F900F900F900F9087EAB9
:1014C00092E39F938F93E0913521F0913621199506
:1014D0002AE330E04EE753E369E779E781E291E2FE
:1014E0000E9479A50F900F90009779F09F938F93AA
:1014F0008AEB92E39F938F93E0913521F09136210F
:1015000019950F900F900F900F9081E291E20E9439
:101510008FA2892B09F0F2CE8EE6E5E0F6E3DF013B
:10152000382F1D923A95E9F790917336992309F473
:1015300079C040EC54ED61E070E040936F36509319
:101540007036609371367093723640EA56E861E007
:1015500070E040935F3650936036609361367093CD
:1015600062369091202104EC19E020E030E09111E6
:10157000FEC000930A3610930B3620930C3630933E
:101580000D3600933D3610933E3620933F36309310
:10159000403621E030E020936B3630936C36E7E93B
:1015A000F5E3DF011D928A95E9F74093F1355093F9
:1015B000F2356093F3357093F43580E492E4AFE054
:1015C000B0E077C09F938F9388EE91E39F938F93C2
:1015D000E0913521F091362119958DE0F801DE0179
:1015E000519601900D928A95E1F70F900F900F9010
:1015F0000F90E8CE809173368111FDCE81E080930B
:101600001A3B03CF9F938F938BE692E39F938F9325
:10161000E0913521F091362119950F900F900F90A0
:101620000F9028CF40E65AEE60E070E040936F36AE
:1016300050937036609371367093723640EA56E874
:1016400061E070E040935F3650936036609361369E
:10165000709362369091202108E813E120E030E099
:10166000911151C000930A3610930B3620930C361B
:1016700030930D3610923D3610923E3610923F3622
:101680001092403621E030E020936B3630936C3678
:10169000E7E9F5E3DF011D928A95E9F74093F1351B
:1016A0005093F2356093F3357093F43580E090E019
:1016B000DC0140E452E46FE070E040939C355093CD
:1016C0009D3560939E3570939F3540E050E0BA01A0
:1016D0004093AD355093AE356093AF357093B035D0
:1016E0008093CF359093D035A093D135B093D23538
:1016F00081E090E08093FD359093FE3585E096E3A0
:10170000F7DC11E0FCCD00931B3610931C362093C0
:101710001D3630931E3610923D3610923E36109292
:101720003F361092403621E030E020936B36309304
:101730006C36E7E9F5E3DF011D928A95E9F74093FE
:10174000F1355093F2356093F3357093F43580E0C2
:1017500090E0DC0110929C3510929D3510929E35E0
:1017600010929F3540E452E46FE070E0B1CF0093F7
:101770001B3610931C3620931D3630931E36009373
:101780003D3610933E3620933F363093403621E06D
:1017900030E020936B3630936C36E7E9F5E3DF01F8
:1017A0001D928A95E9F74093F1355093F235609395
:1017B000F3357093F43580E492E4AFE0B0E0CACF43
:1017C0002F923F924F925F926F927F928F929F9251
:1017D000AF92BF92CF92DF92EF92FF920F931F933F
:1017E000CF93DF93CDB7DEB76297CDBFDEBF198A47
:1017F0001A8A9E012F5E3F4F41E050E0BE016F5FAD
:101800007F4F81E291E20E94DBA2039709F499C124
:1018100029893A89121613060CF063C18E010F5FF5
:101820001F4F7E0185E0E80EF11C2E0192E0490E6B
:10183000511C612C712C83E3882E83E3982E94E550
:10184000C92E93E3D92E21EFA22E22E3B22E38E047
:10185000332E46E0242E3DC080916F369091703635
:10186000A0917136B09172360097A105B10501F1D2
:1018700040911A2150911B2160911C2170911D21D2
:1018800084179507A607B70708F06EC080931A2142
:1018900090931B21A0931C21B0931D21F80120815E
:1018A000283009F46EC0AC01BD01233109F4CBC06E
:1018B000FFEF6F1A7F0A29893A89005F1F4F80E185
:1018C000E80EF11C90E1490E511C621673060CF0F3
:1018D00008C1D8018C91833009F46EC008F45DC052
:1018E000853009F466C0883081F4D2018C918093F0
:1018F000293BF701AAE2BBE3832D01900D928A9563
:10190000E1F788E29BE30E94B7B080919635882387
:1019100009F4A2CFF8018081833009F4BFC008F038
:1019200062C0813009F4F7C0823009F095CF81851B
:101930008F9380858F9387818F9386818F93F70113
:1019400081818F9380818F93D2018C911F928F938D
:10195000A2E1B3E3BF93AF93E0913521F09136213B
:101960001995CDBFDEBF78CFD8012C91283009F072
:101970009CCF411551056105710509F499CFDB0133
:10198000CA010197A109B10980931A2190931B21E3
:10199000A0931C21B0931D218BCF823009F0B5CFCD
:1019A000F701A2E3BBE3822D01900D928A95E1F746
:1019B000ACCFF20180819BCF80914E3690914F3613
:1019C000A0915036B0915136892B8A2B8B2B09F47C
:1019D00060C0F70132978081837090E080931E2170
:1019E00090931F2192CF853019F0883009F034CFC1
:1019F000D8011B968C911B978F931A968C911A97EE
:101A00008F9319968C9119978F9318968C9118979C
:101A10008F9317968C9117978F9316968C918F931F
:101A2000F70181818F9380818F93D2018C911F92D6
:101A30008F93DF92CF92E0913521F0913621199565
:101A4000CDBFDEBF09CFF70180819181019709F0F9
:101A50002FCF452B462B472B09F02ACF87E995E35B
:101A600047DB81E291E20E949DA785E096E340DB9F
:101A700080916F3690917036A0917136B091723628
:101A800080931A2190931B21A0931C21B0931D21B8
:101A90000FCF80919635882309F4DECED8011996B0
:101AA0008C9119978F9318968C9118978F931796FE
:101AB0008C9117978F9316968C918F93F701818154
:101AC0008F9380818F93D2018C911F928F939F92DD
:101AD0008F92E0913521F09136211995CDBFDEBF6F
:101AE000BBCE81E01216130654F56296CDBFDEBF61
:101AF000DF91CF911F910F91FF90EF90DF90CF90EA
:101B0000BF90AF909F908F907F906F905F904F901D
:101B10003F902F90089581858F9380858F93878143
:101B20008F9386818F93F70181818F9380818F932B
:101B3000D2018C911F928F93BF92AF92CACF80E057
:101B4000D4CF86ED92E39F938F93E0913521F0916E
:101B50003621199585E096E3CBDA80916F36909126
:101B60007036A0917136B091723680931A2190939D
:101B70001B21A0931C21B0931D210F900F9048CEE4
:101B8000AF92BF92CF92DF92EF92FF920F931F938B
:101B9000CF93DF93CDB7DEB7E797CDBFDEBF86E14A
:101BA000E1E7F2E2DE01579601900D928A95E1F7A6
:101BB0008E01035D1F4F8BE0F80111928A95E9F7C2
:101BC00088E4D82EDDA695E0C92ECEA622E0A22E6E
:101BD000B12CA9AABAAACE0147968BAB9CAB36E131
:101BE000E32EF12CEDAAFEAA40E0B80180E894E0D3
:101BF0000E9444C1882379F080E0E796CDBFDEBF24
:101C0000DF91CF911F910F91FF90EF90DF90CF90D8
